{"contracts/BountyManager.sol":{"BountyManager":{"abi":[{"inputs":[],"stateMutability":"nonpayable","type":"constructor"},{"inputs":[{"internalType":"address","name":"owner","type":"address"}],"name":"OwnableInvalidOwner","type":"error"},{"inputs":[{"internalType":"address","name":"account","type":"address"}],"name":"OwnableUnauthorizedAccount","type":"error"},{"inputs":[],"name":"ReentrancyGuardReentrantCall","type":"error"},{"anonymous":false,"inputs":[{"indexed":true,"internalType":"uint256","name":"bountyId","type":"uint256"},{"indexed":true,"internalType":"address","name":"worker","type":"address"},{"indexed":false,"internalType":"uint256","name":"acceptedAt","type":"uint256"}],"name":"BountyAccepted","type":"event"},{"anonymous":false,"inputs":[{"indexed":true,"internalType":"uint256","name":"bountyId","type":"uint256"},{"indexed":true,"internalType":"address","name":"requester","type":"address"},{"indexed":false,"internalType":"uint256","name":"cancelledAt","type":"uint256"}],"name":"BountyCancelled","type":"event"},{"anonymous":false,"inputs":[{"indexed":true,"internalType":"uint256","name":"bountyId","type":"uint256"},{"indexed":true,"internalType":"address","name":"worker","type":"address"},{"indexed":false,"internalType":"uint256","name":"amount","type":"uint256"},{"indexed":false,"internalType":"uint256","name":"claimedAt","type":"uint256"}],"name":"BountyClaimed","type":"event"},{"anonymous":false,"inputs":[{"indexed":true,"internalType":"uint256","name":"bountyId","type":"uint256"},{"indexed":false,"internalType":"uint256","name":"confirmedAt","type":"uint256"},{"indexed":false,"internalType":"uint256","name":"coolingUntil","type":"uint256"}],"name":"BountyConfirmed","type":"event"},{"anonymous":false,"inputs":[{"indexed":true,"internalType":"uint256","name":"bountyId","type":"uint256"},{"indexed":false,"internalType":"string","name":"taskId","type":"string"},{"indexed":false,"internalType":"bytes32","name":"taskHash","type":"bytes32"},{"indexed":false,"internalType":"string","name":"taskUrl","type":"string"},{"indexed":true,"internalType":"address","name":"requester","type":"address"},{"indexed":false,"internalType":"uint256","name":"amount","type":"uint256"},{"indexed":false,"internalType":"address","name":"asset","type":"address"}],"name":"BountyCreated","type":"event"},{"anonymous":false,"inputs":[{"indexed":true,"internalType":"uint256","name":"bountyId","type":"uint256"},{"indexed":false,"internalType":"string","name":"submissionUrl","type":"string"},{"indexed":false,"internalType":"uint256","name":"submittedAt","type":"uint256"}],"name":"BountySubmitted","type":"event"},{"anonymous":false,"inputs":[{"indexed":true,"internalType":"address","name":"previousOwner","type":"address"},{"indexed":true,"internalType":"address","name":"newOwner","type":"address"}],"name":"OwnershipTransferred","type":"event"},{"inputs":[],"name":"COOLING_PERIOD","outputs":[{"internalType":"uint256","name":"","type":"uint256"}],"stateMutability":"view","type":"function"},{"inputs":[{"internalType":"uint256","name":"bountyId","type":"uint256"},{"internalType":"address","name":"worker","type":"address"}],"name":"acceptBounty","outputs":[],"stateMutability":"nonpayable","type":"function"},{"inputs":[{"internalType":"uint256","name":"","type":"uint256"}],"name":"bounties","outputs":[{"internalType":"uint256","name":"bountyId","type":"uint256"},{"internalType":"string","name":"taskId","type":"string"},{"internalType":"bytes32","name":"taskHash","type":"bytes32"},{"internalType":"string","name":"taskUrl","type":"string"},{"internalType":"address","name":"requester","type":"address"},{"internalType":"address","name":"worker","type":"address"},{"internalType":"uint256","name":"amount","type":"uint256"},{"internalType":"address","name":"asset","type":"address"},{"internalType":"enum BountyManager.BountyStatus","name":"status","type":"uint8"},{"internalType":"uint256","name":"createdAt","type":"uint256"},{"internalType":"uint256","name":"acceptedAt","type":"uint256"},{"internalType":"uint256","name":"submittedAt","type":"uint256"},{"internalType":"string","name":"submissionUrl","type":"string"},{"internalType":"uint256","name":"confirmedAt","type":"uint256"},{"internalType":"uint256","name":"coolingUntil","type":"uint256"},{"internalType":"uint256","name":"claimedAt","type":"uint256"}],"stateMutability":"view","type":"function"},{"inputs":[{"internalType":"uint256","name":"bountyId","type":"uint256"}],"name":"cancelBounty","outputs":[],"stateMutability":"nonpayable","type":"function"},{"inputs":[{"internalType":"uint256","name":"bountyId","type":"uint256"}],"name":"claimBounty","outputs":[],"stateMutability":"nonpayable","type":"function"},{"inputs":[{"internalType":"uint256","name":"bountyId","type":"uint256"},{"internalType":"uint256","name":"confirmedAt","type":"uint256"}],"name":"confirmBounty","outputs":[],"stateMutability":"nonpayable","type":"function"},{"inputs":[{"internalType":"string","name":"taskId","type":"string"},{"internalType":"bytes32","name":"taskHash","type":"bytes32"},{"internalType":"string","name":"taskUrl","type":"string"}],"name":"createBounty","outputs":[{"internalType":"uint256","name":"","type":"uint256"}],"stateMutability":"payable","type":"function"},{"inputs":[{"internalType":"string","name":"taskId","type":"string"},{"internalType":"bytes32","name":"taskHash","type":"bytes32"},{"internalType":"string","name":"taskUrl","type":"string"},{"internalType":"address","name":"asset","type":"address"},{"internalType":"uint256","name":"amount","type":"uint256"}],"name":"createBountyWithToken","outputs":[{"internalType":"uint256","name":"","type":"uint256"}],"stateMutability":"nonpayable","type":"function"},{"inputs":[{"internalType":"address","name":"requester","type":"address"}],"name":"getBountiesByRequester","outputs":[{"internalType":"uint256[]","name":"","type":"uint256[]"}],"stateMutability":"view","type":"function"},{"inputs":[{"internalType":"enum BountyManager.BountyStatus","name":"status","type":"uint8"}],"name":"getBountiesByStatus","outputs":[{"internalType":"uint256[]","name":"","type":"uint256[]"}],"stateMutability":"view","type":"function"},{"inputs":[{"internalType":"address","name":"worker","type":"address"}],"name":"getBountiesByWorker","outputs":[{"internalType":"uint256[]","name":"","type":"uint256[]"}],"stateMutability":"view","type":"function"},{"inputs":[{"internalType":"uint256","name":"bountyId","type":"uint256"}],"name":"getBounty","outputs":[{"components":[{"internalType":"uint256","name":"bountyId","type":"uint256"},{"internalType":"string","name":"taskId","type":"string"},{"internalType":"bytes32","name":"taskHash","type":"bytes32"},{"internalType":"string","name":"taskUrl","type":"string"},{"internalType":"address","name":"requester","type":"address"},{"internalType":"address","name":"worker","type":"address"},{"internalType":"uint256","name":"amount","type":"uint256"},{"internalType":"address","name":"asset","type":"address"},{"internalType":"enum BountyManager.BountyStatus","name":"status","type":"uint8"},{"internalType":"uint256","name":"createdAt","type":"uint256"},{"internalType":"uint256","name":"acceptedAt","type":"uint256"},{"internalType":"uint256","name":"submittedAt","type":"uint256"},{"internalType":"string","name":"submissionUrl","type":"string"},{"internalType":"uint256","name":"confirmedAt","type":"uint256"},{"internalType":"uint256","name":"coolingUntil","type":"uint256"},{"internalType":"uint256","name":"claimedAt","type":"uint256"}],"internalType":"struct BountyManager.Bounty","name":"","type":"tuple"}],"stateMutability":"view","type":"function"},{"inputs":[{"internalType":"bytes32","name":"taskHash","type":"bytes32"}],"name":"getBountyByTaskHash","outputs":[{"internalType":"bool","name":"exists","type":"bool"},{"internalType":"uint256","name":"bountyId","type":"uint256"}],"stateMutability":"view","type":"function"},{"inputs":[{"internalType":"uint256","name":"offset","type":"uint256"},{"internalType":"uint256","name":"limit","type":"uint256"}],"name":"listBounties","outputs":[{"internalType":"uint256[]","name":"","type":"uint256[]"}],"stateMutability":"view","type":"function"},{"inputs":[],"name":"owner","outputs":[{"internalType":"address","name":"","type":"address"}],"stateMutability":"view","type":"function"},{"inputs":[],"name":"renounceOwnership","outputs":[],"stateMutability":"nonpayable","type":"function"},{"inputs":[{"internalType":"address","name":"","type":"address"},{"internalType":"uint256","name":"","type":"uint256"}],"name":"requesterBounties","outputs":[{"internalType":"uint256","name":"","type":"uint256"}],"stateMutability":"view","type":"function"},{"inputs":[{"internalType":"uint256","name":"bountyId","type":"uint256"},{"internalType":"string","name":"submissionUrl","type":"string"}],"name":"submitBounty","outputs":[],"stateMutability":"nonpayable","type":"function"},{"inputs":[{"internalType":"bytes32","name":"","type":"bytes32"}],"name":"taskHashToBountyId","outputs":[{"internalType":"uint256","name":"","type":"uint256"}],"stateMutability":"view","type":"function"},{"inputs":[{"internalType":"address","name":"newOwner","type":"address"}],"name":"transferOwnership","outputs":[],"stateMutability":"nonpayable","type":"function"},{"inputs":[{"internalType":"address","name":"","type":"address"},{"internalType":"uint256","name":"","type":"uint256"}],"name":"workerBounties","outputs":[{"internalType":"uint256","name":"","type":"uint256"}],"stateMutability":"view","type":"function"}],"evm":{"bytecode":{"linkReferences":{},"object":"60808060405234610084576001600055331561006e5760018054336001600160a01b03198216811790925560405191906001600160a01b03167f8be0079c531659141344cd1fd0a4f28419497f9722a3daafe3b4186f6b6457e0600080a360016002556127bf908161008a8239f35b631e4fbdf760e01b815260006004820152602490fd5b600080fdfe6080604052600436101561001257600080fd5b60003560e01c8063332710d41461217057806335491a47146121445780633edc8d99146120cc57806344021ad714611e3e578063493b242b14611dba5780634a0bccd414611c335780634f59524414611be95780636f068f87146114ee578063715018a6146114915780637577132a146114395780638da5cb5b146114105780638e438b7514611267578063a4c0b37d14611235578063b2b5df6814610f2b578063c63c4cdd14610e44578063dc2f874414610d01578063df28897414610ce5578063e5e5dff114610a5e578063ee8c4bbf146107bf578063f2fde38b146107365763fdcf377f1461010357600080fd5b6060366003190112610731576004356001600160401b0381116107315761012e90369060040161236d565b6044356001600160401b0381116107315761014d90369060040161236d565b9061015661261e565b61016134151561250d565b602435600052600460205261017b60406000205415612559565b60025490610188826125b1565b600255604051610197816122fa565b8281528160208201526024356040820152836060820152336080820152600060a08201523460c0820152600060e0820152600061010082015242610120820152600061014082015260006101608201526040516101f381612316565b6000815261018082015260006101a082015260006101c082015260006101e08201528260005260036020526040600020908051825560208101518051906001600160401b03821161056557819061024d60018601546123b4565b601f81116106de575b50602090601f831160011461066c57600092610661575b50508160011b916000199060031b1c19161760018301555b6040810151600283015560608101518051906001600160401b0382116105655781906102b460038601546123b4565b601f811161060e575b50602090601f831160011461059c57600092610591575b50508160011b916000199060031b1c19161760038301555b6004820160018060a01b039081608084015116906001600160601b0360a01b9182825416179055600584018260a0850151168282541617905560c08301516006850155600784019160e08401511690825416178155610100820151600681101561057b57610359916125c0565b61012081015160088301556101408101516009830155610160810151600a8301556101808101518051906001600160401b0382116105655761039e600b8501546123b4565b601f811161051e575b5091859391602097938890601f83116001146104935760008051602061276a8339815191529593836104679694600e946101e094600092610488575b50508160011b916000199060031b1c191617600b8501555b6101a0810151600c8501556101c0810151600d85015501519101556024356000526004875283604060002055336000526005875261043d8460406000206125e4565b6104526040519560a0875260a0870190612494565b90602435888701528582036040870152612494565b92346060820152600060808201528033940390a36001600055604051908152f35b0151905038806103e3565b90600b8501600052896000209160005b601f1985168110610504575093600184600e946101e09460008051602061276a8339815191529a986104679a98601f198116106104eb575b505050811b01600b8501556103fb565b015160001960f88460031b161c191690553880806104db565b8183015184558a9850600190930192918b01918b016104a3565b600b85016000526020600020601f840160051c81016020851061055e575b601f830160051c820181106105525750506103a7565b6000815560010161053c565b508061053c565b634e487b7160e01b600052604160045260246000fd5b634e487b7160e01b600052602160045260246000fd5b0151905038806102d4565b9250600385016000526020600020906000935b601f19841685106105f3576001945083601f198116106105da575b505050811b0160038301556102ec565b015160001960f88460031b161c191690553880806105ca565b818101518355602094850194600190930192909101906105af565b909150600385016000526020600020601f840160051c81016020851061065a575b90849392915b601f830160051c8201811061064b5750506102bd565b60008155859450600101610635565b508061062f565b01519050388061026d565b9250600185016000526020600020906000935b601f19841685106106c3576001945083601f198116106106aa575b505050811b016001830155610285565b015160001960f88460031b161c1916905538808061069a565b8181015183556020948501946001909301929091019061067f565b909150600185016000526020600020601f840160051c81016020851061072a575b90849392915b601f830160051c8201811061071b575050610256565b60008155859450600101610705565b50806106ff565b600080fd5b346107315760203660031901126107315761074f6122a0565b6107576124e1565b6001600160a01b039081169081156107a657600154826001600160601b0360a01b821617600155167f8be0079c531659141344cd1fd0a4f28419497f9722a3daafe3b4186f6b6457e0600080a3005b604051631e4fbdf760e01b815260006004820152602490fd5b346107315760203660031901126107315760043560006101e06040516107e4816122fa565b828152606060208201528260408201526060808201528260808201528260a08201528260c08201528260e0820152826101008201528261012082015282610140820152826101608201526060610180820152826101a0820152826101c0820152015280600052600360205261085f604060002054151561269d565b6000526003602052604060002060405190610879826122fa565b80548252610889600182016123ee565b6020830152600281015460408301526108a4600382016123ee565b606083015260048101546001600160a01b0390811660808401526005820154811660a08085019190915260068084015460c0860152600784015492831660e08601529192919083901c60ff16101561057b5760ff600e9260a01c1661010084015260088101546101208401526009810154610140840152600a810154610160840152610932600b82016123ee565b610180840152600c8101546101a0840152600d8101546101c084015201546101e0820152604051809160208252805160208301526101e0610a3b6109aa61098a60208501516102006040880152610220870190612494565b604085015160608701526060850151601f19878303016080880152612494565b60018060a01b0360808501511660a086015260018060a01b0360a08501511660c086015260c084015160e086015260018060a01b0360e0850151166101008601526109ff6101008501516101208701906124d4565b610120840151610140860152610140840151610160860152610160840151610180860152610180840151601f19868303016101a0870152612494565b916101a08101516101c08501526101c08101518285015201516102008301520390f35b346107315760208060031936011261073157600435610a7b61261e565b80600052600382526040600020610a948154151561269d565b6007810180549160ff8360a01c16600681101561057b57610ca057600481019160018060a01b03938484541691823303610c5b5760ff60a01b198216600560a01b179055869190851680610b7357505050600080808093600687875416910154905af1610aff6126dc565b5015610b3a57907fb9670bf4f2273686f771c9ab65309436df5ed75afa63eefec8b67640d8bcf72c915b541692604051428152a36001600055005b60405162461bcd60e51b8152600481018590526011602482015270115512081c99599d5b990819985a5b1959607a1b6044820152606490fd5b6006939093015460405163a9059cbb60e01b81526001600160a01b03929092166004830152602482015291829060449082906000905af1908115610c4f57600091610c22575b5015610be757907fb9670bf4f2273686f771c9ab65309436df5ed75afa63eefec8b67640d8bcf72c91610b29565b60405162461bcd60e51b8152600481018590526013602482015272151bdad95b881c99599d5b990819985a5b1959606a1b6044820152606490fd5b610c429150853d8711610c48575b610c3a8183612331565b810190612641565b85610bb9565b503d610c30565b6040513d6000823e3d90fd5b60405162461bcd60e51b815260048101899052601960248201527f4f6e6c79207265717565737465722063616e2063616e63656c000000000000006044820152606490fd5b60405162461bcd60e51b815260048101869052601b60248201527f43616e206f6e6c792063616e63656c206f70656e20626f756e747900000000006044820152606490fd5b3461073157600036600319011261073157602060405160008152f35b34610731576020366003190112610731576004356000526003602052604060002080549060018101610d32906123ee565b9060028101549260038201610d46906123ee565b600483015460058401546006850154600786015460088701546009880154600a8901549698966001600160a01b03958616969095169493909290610d8c600b89016123ee565b96600c8901549a600d8a015499600e01549a6040519e8f9e8f9283526102008060208501528301610dbc91612494565b91604001528d8082039060600152610dd391612494565b9660808d015260a08c015260c08b0152600160a01b60019003811660e08b01526101008a019060a01c60ff1690610e09916124d4565b610120890152610140880152610160870152858103610180870152610e2d91612494565b926101a08501526101c08401526101e08301520390f35b3461073157610e52366122b6565b6002549081831015610ef057828203918211610ed3576000198201918211610ed35780821015610ee957505b610e8781612723565b9160005b828110610ea45760405180610ea08682612265565b0390f35b80820190818311610ed35760018201809211610ed357610ece91610ec88287612755565b526125b1565b610e8b565b634e487b7160e01b600052601160045260246000fd5b9050610e7e565b60405162461bcd60e51b81526020600482015260136024820152724f6666736574206f7574206f662072616e676560681b6044820152606490fd5b34610731576040366003190112610731576001600160401b036004356024803583811161073157610f6090369060040161236d565b90610f6961261e565b8260005260209060038252604060002094610f868654151561269d565b600786019586549660ff8860a01c169760068910156112205760018099036111e65760058301546001600160a01b031633036111a9578651156111655760ff60a01b1916600160a11b17905542600a8201558451600b9190910192909182116111515750610ff482546123b4565b601f8111611108575b5082601f821160011461107c57918161106394927f15feca2794848feb9e2ebb4a4a286dddbf20f7a2c1508e117799dab6e7ff89569694600091611071575b50600019600383901b1c191690881b1790555b604051928392604084526040840190612494565b9042908301520390a2600055005b90508401518961103c565b908691601f1982169084600052856000209160005b8181106110f157509183917f15feca2794848feb9e2ebb4a4a286dddbf20f7a2c1508e117799dab6e7ff8956989694611063989694106110d8575b5050811b01905561104f565b86015160001960f88460031b161c1916905589806110cc565b8883015184558a9590930192918701918701611091565b8260005283600020601f830160051c810191858410611147575b601f0160051c019087905b82811061113b575050610ffd565b6000815501879061112d565b9091508190611122565b634e487b7160e01b60009081526041600452fd5b60405162461bcd60e51b8152600481018790526017818701527f5375626d697373696f6e2055524c2072657175697265640000000000000000006044820152606490fd5b60405162461bcd60e51b8152600481018790526016818701527513db9b1e481ddbdc9ad95c8818d85b881cdd589b5a5d60521b6044820152606490fd5b60405162461bcd60e51b81526004810187905260138187015272109bdd5b9d1e481b9bdd081858d8d95c1d1959606a1b6044820152606490fd5b84634e487b7160e01b60005260216004526000fd5b346107315760203660031901126107315760043560005260046020526040806000205481519080151582526020820152f35b34610731576040366003190112610731576001600160a01b0360243581811690600435908290036107315761129a61261e565b8060005260206003815260406000206112b58154151561269d565b6007810180549560ff8760a01c16600681101561057b576113d9576004830154163303611394578415611356577f4aa9d087bda72ed5e9f18284fbda4e853a8b279176f1805c7155872fbc1258e693949560058301876001600160601b0360a01b825416179055600160a01b9060ff60a01b191617905560094291015583600052600681526113488360406000206125e4565b604051428152a36001600055005b60405162461bcd60e51b8152600481018490526016602482015275496e76616c696420776f726b6572206164647265737360501b6044820152606490fd5b60405162461bcd60e51b815260048101849052601960248201527f4f6e6c79207265717565737465722063616e20616363657074000000000000006044820152606490fd5b60405162461bcd60e51b815260048101859052600f60248201526e2137bab73a3c903737ba1037b832b760891b6044820152606490fd5b34610731576000366003190112610731576001546040516001600160a01b039091168152602090f35b34610731576040366003190112610731576114526122a0565b6001600160a01b031660009081526006602052604090208054602435919082101561073157602091611483916122cc565b90546040519160031b1c8152f35b34610731576000366003190112610731576114aa6124e1565b600180546001600160a01b031981169091556000906001600160a01b03167f8be0079c531659141344cd1fd0a4f28419497f9722a3daafe3b4186f6b6457e08280a3005b346107315760a0366003190112610731576004356001600160401b0381116107315761151e90369060040161236d565b6044356001600160401b0381116107315761153d90369060040161236d565b6064356001600160a01b03811681036107315761155861261e565b6001600160a01b03811615611bac57611574608435151561250d565b602435600052600460205261158e60406000205415612559565b6040516323b872dd60e01b8152336004820152306024820152608435604482015260208160648160006001600160a01b0387165af18015610c4f576115db91600091611b8d575b50612659565b600254916115e8836125b1565b6002556040516115f7816122fa565b8381528460208201526024356040820152816060820152336080820152600060a082015260843560c082015260018060a01b03831660e08201526000610100820152426101208201526000610140820152600061016082015260405161165c81612316565b6000815261018082015260006101a082015260006101c082015260006101e08201528360005260036020526040600020908051825560208101518051906001600160401b0382116105655781906116b660018601546123b4565b601f8111611b3a575b50602090601f8311600114611ac857600092611abd575b50508160011b916000199060031b1c19161760018301555b6040810151600283015560608101518051906001600160401b03821161056557819061171d60038601546123b4565b601f8111611a6a575b50602090601f83116001146119f8576000926119ed575b50508160011b916000199060031b1c19161760038301555b6004820160018060a01b03608083015116906001600160601b0360a01b91828254161790556005830160018060a01b0360a0840151168282541617905560c08201516006840155600783019060018060a01b0360e08401511690825416178155610100820151600681101561057b576117cd916125c0565b61012081015160088301556101408101516009830155610160810151600a8301556101808101518051906001600160401b03821161056557611812600b8501546123b4565b601f81116119a6575b509160209793918795938990601f83116001146119145760008051602061276a833981519152969593836118dd9694600e946101e094600092611909575b50508160011b916000199060031b1c191617600b8501555b6101a0810151600c8501556101c0810151600d8501550151910155602435600052600488528460406000205533600052600588526118b38560406000206125e4565b6118c86040519360a0855260a0850190612494565b90602435898501528382036040850152612494565b60843560608301526001600160a01b039094166080820152339381900390a36001600055604051908152f35b015190508e80611859565b600b8594939298979695016000528a6000209060005b601f198416811061198c5750926001836101e09360008051602061276a8339815191529a9b6118dd999897600e97601f19811610611973575b505050811b01600b850155611871565b015160001960f88460031b161c191690558e8080611963565b818a01518355988c01988b98506001909201918c0161192a565b600b85016000526020600020601f840160051c8101602085106119e6575b601f830160051c820181106119da57505061181b565b600081556001016119c4565b50806119c4565b01519050888061173d565b9250600385016000526020600020906000935b601f1984168510611a4f576001945083601f19811610611a36575b505050811b016003830155611755565b015160001960f88460031b161c19169055888080611a26565b81810151835560209485019460019093019290910190611a0b565b909150600385016000526020600020601f840160051c810160208510611ab6575b90849392915b601f830160051c82018110611aa7575050611726565b60008155859450600101611a91565b5080611a8b565b0151905088806116d6565b9250600185016000526020600020906000935b601f1984168510611b1f576001945083601f19811610611b06575b505050811b0160018301556116ee565b015160001960f88460031b161c19169055888080611af6565b81810151835560209485019460019093019290910190611adb565b909150600185016000526020600020601f840160051c810160208510611b86575b90849392915b601f830160051c82018110611b775750506116bf565b60008155859450600101611b61565b5080611b5b565b611ba6915060203d602011610c4857610c3a8183612331565b856115d5565b60405162461bcd60e51b8152602060048201526015602482015274496e76616c696420746f6b656e206164647265737360581b6044820152606490fd5b3461073157604036600319011261073157611c026122a0565b6001600160a01b031660009081526005602052604090208054602435919082101561073157602091611483916122cc565b3461073157611c41366122b6565b611c4961261e565b8160005260036020526040600020611c638154151561269d565b600781019182549260ff8460a01c16600681101561057b57600203611d7e5760048301546001600160a01b03163303611d39578115611cf45760ff60a01b19909316600360a01b17909255600c8101829055600d018190556040805182815260208101929092527fe2c01b5758e9a0315e7c73eb6ff4d8f49df76a7adf97bdc252e685949e8d74a091a26001600055005b60405162461bcd60e51b815260206004820152601b60248201527f496e76616c696420636f6e6669726d65642074696d657374616d7000000000006044820152606490fd5b60405162461bcd60e51b815260206004820152601a60248201527f4f6e6c79207265717565737465722063616e20636f6e6669726d0000000000006044820152606490fd5b60405162461bcd60e51b8152602060048201526014602482015273109bdd5b9d1e481b9bdd081cdd589b5a5d1d195960621b6044820152606490fd5b3461073157602080600319360112610731576001600160a01b03611ddc6122a0565b1660005260058152604060002090604051908181845491828152019360005281600020916000905b828210611e2757610ea085611e1b81890382612331565b60405191829182612265565b835486529485019460019384019390910190611e04565b346107315760208060031936011261073157600435611e5b61261e565b8060005260038252604060002091611e758354151561269d565b6007830180549060ff8260a01c16600681101561057b5760030361209057600585019060018060a01b0392838354169182330361205357600d880154421061200e5760ff60a01b198216600160a21b17905542600e880155831680611f7157505060008080808585541660068a0154905af1611eef6126dc565b5015611f36579160066040927f2eefa727cced3362efe12827696bbd9df4926abce3c569ddaf6b9634ae1af147945b54169501549082519182524290820152a36001600055005b60405162461bcd60e51b8152600481018490526013602482015272115512081d1c985b9cd9995c8819985a5b1959606a1b6044820152606490fd5b600687015460405163a9059cbb60e01b81526001600160a01b0393909316600484015260248301529193909290918290849060449082906000905af1908115610c4f577f2eefa727cced3362efe12827696bbd9df4926abce3c569ddaf6b9634ae1af14794611fec600693604096600091611ff15750612659565b611f1e565b6120089150863d8811610c4857610c3a8183612331565b8a6115d5565b60405162461bcd60e51b815260048101879052601860248201527f436f6f6c696e6720706572696f64206e6f7420656e64656400000000000000006044820152606490fd5b60405162461bcd60e51b81526004810187905260156024820152744f6e6c7920776f726b65722063616e20636c61696d60581b6044820152606490fd5b60405162461bcd60e51b8152600481018490526014602482015273109bdd5b9d1e481b9bdd0818dbdb999a5c9b595960621b6044820152606490fd5b3461073157602080600319360112610731576001600160a01b036120ee6122a0565b1660005260068152604060002090604051908181845491828152019360005281600020916000905b82821061212d57610ea085611e1b81890382612331565b835486529485019460019384019390910190612116565b346107315760203660031901126107315760043560005260046020526020604060002054604051908152f35b3461073157602080600319360112610731576004359060069081831015806107315760025491600060015b84811061221657506121ac90612723565b9360009160015b8581106121c85760405180610ea08982612265565b8085916000526003835260ff60076040600020015460a01c169161057b578382101561057b57886121fd9214612202576125b1565b6121b3565b80610ec861220f876125b1565b968a612755565b80600052600383528360ff60076040600020015460a01c169061057b578681101561057b578714612250575b61224b906125b1565b61219b565b9061225d61224b916125b1565b919050612242565b6020908160408183019282815285518094520193019160005b82811061228c575050505090565b83518552938101939281019260010161227e565b600435906001600160a01b038216820361073157565b6040906003190112610731576004359060243590565b80548210156122e45760005260206000200190600090565b634e487b7160e01b600052603260045260246000fd5b61020081019081106001600160401b0382111761056557604052565b602081019081106001600160401b0382111761056557604052565b90601f801991011681019081106001600160401b0382111761056557604052565b6001600160401b03811161056557601f01601f191660200190565b81601f820112156107315780359061238482612352565b926123926040519485612331565b8284526020838301011161073157816000926020809301838601378301015290565b90600182811c921680156123e4575b60208310146123ce57565b634e487b7160e01b600052602260045260246000fd5b91607f16916123c3565b9060405191826000825492612402846123b4565b908184526001948581169081600014612471575060011461242e575b505061242c92500383612331565b565b9093915060005260209081600020936000915b81831061245957505061242c9350820101388061241e565b85548884018501529485019487945091830191612441565b91505061242c94506020925060ff191682840152151560051b820101388061241e565b919082519283825260005b8481106124c0575050826000602080949584010152601f8019910116010190565b60208183018101518483018201520161249f565b90600682101561057b5752565b6001546001600160a01b031633036124f557565b60405163118cdaa760e01b8152336004820152602490fd5b1561251457565b60405162461bcd60e51b815260206004820152601d60248201527f416d6f756e74206d7573742062652067726561746572207468616e20300000006044820152606490fd5b1561256057565b60405162461bcd60e51b815260206004820152602360248201527f426f756e747920616c72656164792065786973747320666f722074686973207460448201526261736b60e81b6064820152608490fd5b6000198114610ed35760010190565b90600681101561057b57815460ff60a01b191660a09190911b60ff60a01b16179055565b80546801000000000000000081101561056557612606916001820181556122cc565b819291549060031b91821b91600019901b1916179055565b60026000541461262f576002600055565b604051633ee5aeb560e01b8152600490fd5b90816020910312610731575180151581036107315790565b1561266057565b60405162461bcd60e51b8152602060048201526015602482015274151bdad95b881d1c985b9cd9995c8819985a5b1959605a1b6044820152606490fd5b156126a457565b60405162461bcd60e51b815260206004820152601060248201526f109bdd5b9d1e481b9bdd08199bdd5b9960821b6044820152606490fd5b3d15612707573d906126ed82612352565b916126fb6040519384612331565b82523d6000602084013e565b606090565b6001600160401b0381116105655760051b60200190565b9061272d8261270c565b61273a6040519182612331565b828152809261274b601f199161270c565b0190602036910137565b80518210156122e45760209160051b01019056fecfb20adba82781899b704d711bdf1fb0f695b9656b9cd36e723ae5eeaa239ed0a2646970667358221220e81bbf26fbcf7d4e58c4226fc28cb46bedd01943c4ff21dace397011fa45a46964736f6c63430008140033","opcodes":"PUSH1 0x80 DUP1 PUSH1 0x40 MSTORE CALLVALUE PUSH2 0x84 JUMPI PUSH1 0x1 PUSH1 0x0 SSTORE CALLER ISZERO PUSH2 0x6E JUMPI PUSH1 0x1 DUP1 SLOAD CALLER PUSH1 0x1 PUSH1 0x1 PUSH1 0xA0 SHL SUB NOT DUP3 AND DUP2 OR SWAP1 SWAP3 SSTORE PUSH1 0x40 MLOAD SWAP2 SWAP1 PUSH1 0x1 PUSH1 0x1 PUSH1 0xA0 SHL SUB AND PUSH32 0x8BE0079C531659141344CD1FD0A4F28419497F9722A3DAAFE3B4186F6B6457E0 PUSH1 0x0 DUP1 LOG3 PUSH1 0x1 PUSH1 0x2 SSTORE PUSH2 0x27BF SWAP1 DUP2 PUSH2 0x8A DUP3 CODECOPY RETURN JUMPDEST PUSH4 0x1E4FBDF7 PUSH1 0xE0 SHL DUP2 MSTORE PUSH1 0x0 PUSH1 0x4 DUP3 ADD MSTORE PUSH1 0x24 SWAP1 REVERT JUMPDEST PUSH1 0x0 DUP1 REVERT INVALID PUSH1 0x80 PUSH1 0x40 MSTORE PUSH1 0x4 CALLDATASIZE LT ISZERO PUSH2 0x12 JUMPI PUSH1 0x0 DUP1 REVERT JUMPDEST PUSH1 0x0 CALLDATALOAD PUSH1 0xE0 SHR DUP1 PUSH4 0x332710D4 EQ PUSH2 0x2170 JUMPI DUP1 PUSH4 0x35491A47 EQ PUSH2 0x2144 JUMPI DUP1 PUSH4 0x3EDC8D99 EQ PUSH2 0x20CC JUMPI DUP1 PUSH4 0x44021AD7 EQ PUSH2 0x1E3E JUMPI DUP1 PUSH4 0x493B242B EQ PUSH2 0x1DBA JUMPI DUP1 PUSH4 0x4A0BCCD4 EQ PUSH2 0x1C33 JUMPI DUP1 PUSH4 0x4F595244 EQ PUSH2 0x1BE9 JUMPI DUP1 PUSH4 0x6F068F87 EQ PUSH2 0x14EE JUMPI DUP1 PUSH4 0x715018A6 EQ PUSH2 0x1491 JUMPI DUP1 PUSH4 0x7577132A EQ PUSH2 0x1439 JUMPI DUP1 PUSH4 0x8DA5CB5B EQ PUSH2 0x1410 JUMPI DUP1 PUSH4 0x8E438B75 EQ PUSH2 0x1267 JUMPI DUP1 PUSH4 0xA4C0B37D EQ PUSH2 0x1235 JUMPI DUP1 PUSH4 0xB2B5DF68 EQ PUSH2 0xF2B JUMPI DUP1 PUSH4 0xC63C4CDD EQ PUSH2 0xE44 JUMPI DUP1 PUSH4 0xDC2F8744 EQ PUSH2 0xD01 JUMPI DUP1 PUSH4 0xDF288974 EQ PUSH2 0xCE5 JUMPI DUP1 PUSH4 0xE5E5DFF1 EQ PUSH2 0xA5E JUMPI DUP1 PUSH4 0xEE8C4BBF EQ PUSH2 0x7BF JUMPI DUP1 PUSH4 0xF2FDE38B EQ PUSH2 0x736 JUMPI PUSH4 0xFDCF377F EQ PUSH2 0x103 JUMPI PUSH1 0x0 DUP1 REVERT JUMPDEST PUSH1 0x60 CALLDATASIZE PUSH1 0x3 NOT ADD SLT PUSH2 0x731 JUMPI PUSH1 0x4 CALLDATALOAD PUSH1 0x1 PUSH1 0x1 PUSH1 0x40 SHL SUB DUP2 GT PUSH2 0x731 JUMPI PUSH2 0x12E SWAP1 CALLDATASIZE SWAP1 PUSH1 0x4 ADD PUSH2 0x236D JUMP JUMPDEST PUSH1 0x44 CALLDATALOAD PUSH1 0x1 PUSH1 0x1 PUSH1 0x40 SHL SUB DUP2 GT PUSH2 0x731 JUMPI PUSH2 0x14D SWAP1 CALLDATASIZE SWAP1 PUSH1 0x4 ADD PUSH2 0x236D JUMP JUMPDEST SWAP1 PUSH2 0x156 PUSH2 0x261E JUMP JUMPDEST PUSH2 0x161 CALLVALUE ISZERO ISZERO PUSH2 0x250D JUMP JUMPDEST PUSH1 0x24 CALLDATALOAD PUSH1 0x0 MSTORE PUSH1 0x4 PUSH1 0x20 MSTORE PUSH2 0x17B PUSH1 0x40 PUSH1 0x0 KECCAK256 SLOAD ISZERO PUSH2 0x2559 JUMP JUMPDEST PUSH1 0x2 SLOAD SWAP1 PUSH2 0x188 DUP3 PUSH2 0x25B1 JUMP JUMPDEST PUSH1 0x2 SSTORE PUSH1 0x40 MLOAD PUSH2 0x197 DUP2 PUSH2 0x22FA JUMP JUMPDEST DUP3 DUP2 MSTORE DUP2 PUSH1 0x20 DUP3 ADD MSTORE PUSH1 0x24 CALLDATALOAD PUSH1 0x40 DUP3 ADD MSTORE DUP4 PUSH1 0x60 DUP3 ADD MSTORE CALLER PUSH1 0x80 DUP3 ADD MSTORE PUSH1 0x0 PUSH1 0xA0 DUP3 ADD MSTORE CALLVALUE PUSH1 0xC0 DUP3 ADD MSTORE PUSH1 0x0 PUSH1 0xE0 DUP3 ADD MSTORE PUSH1 0x0 PUSH2 0x100 DUP3 ADD MSTORE TIMESTAMP PUSH2 0x120 DUP3 ADD MSTORE PUSH1 0x0 PUSH2 0x140 DUP3 ADD MSTORE PUSH1 0x0 PUSH2 0x160 DUP3 ADD MSTORE PUSH1 0x40 MLOAD PUSH2 0x1F3 DUP2 PUSH2 0x2316 JUMP JUMPDEST PUSH1 0x0 DUP2 MSTORE PUSH2 0x180 DUP3 ADD MSTORE PUSH1 0x0 PUSH2 0x1A0 DUP3 ADD MSTORE PUSH1 0x0 PUSH2 0x1C0 DUP3 ADD MSTORE PUSH1 0x0 PUSH2 0x1E0 DUP3 ADD MSTORE DUP3 PUSH1 0x0 MSTORE PUSH1 0x3 PUSH1 0x20 MSTORE PUSH1 0x40 PUSH1 0x0 KECCAK256 SWAP1 DUP1 MLOAD DUP3 SSTORE PUSH1 0x20 DUP2 ADD MLOAD DUP1 MLOAD SWAP1 PUSH1 0x1 PUSH1 0x1 PUSH1 0x40 SHL SUB DUP3 GT PUSH2 0x565 JUMPI DUP2 SWAP1 PUSH2 0x24D PUSH1 0x1 DUP7 ADD SLOAD PUSH2 0x23B4 JUMP JUMPDEST PUSH1 0x1F DUP2 GT PUSH2 0x6DE JUMPI JUMPDEST POP PUSH1 0x20 SWAP1 PUSH1 0x1F DUP4 GT PUSH1 0x1 EQ PUSH2 0x66C JUMPI PUSH1 0x0 SWAP3 PUSH2 0x661 JUMPI JUMPDEST POP POP DUP2 PUSH1 0x1 SHL SWAP2 PUSH1 0x0 NOT SWAP1 PUSH1 0x3 SHL SHR NOT AND OR PUSH1 0x1 DUP4 ADD SSTORE JUMPDEST PUSH1 0x40 DUP2 ADD MLOAD PUSH1 0x2 DUP4 ADD SSTORE PUSH1 0x60 DUP2 ADD MLOAD DUP1 MLOAD SWAP1 PUSH1 0x1 PUSH1 0x1 PUSH1 0x40 SHL SUB DUP3 GT PUSH2 0x565 JUMPI DUP2 SWAP1 PUSH2 0x2B4 PUSH1 0x3 DUP7 ADD SLOAD PUSH2 0x23B4 JUMP JUMPDEST PUSH1 0x1F DUP2 GT PUSH2 0x60E JUMPI JUMPDEST POP PUSH1 0x20 SWAP1 PUSH1 0x1F DUP4 GT PUSH1 0x1 EQ PUSH2 0x59C JUMPI PUSH1 0x0 SWAP3 PUSH2 0x591 JUMPI JUMPDEST POP POP DUP2 PUSH1 0x1 SHL SWAP2 PUSH1 0x0 NOT SWAP1 PUSH1 0x3 SHL SHR NOT AND OR PUSH1 0x3 DUP4 ADD SSTORE JUMPDEST PUSH1 0x4 DUP3 ADD PUSH1 0x1 DUP1 PUSH1 0xA0 SHL SUB SWAP1 DUP2 PUSH1 0x80 DUP5 ADD MLOAD AND SWAP1 PUSH1 0x1 PUSH1 0x1 PUSH1 0x60 SHL SUB PUSH1 0xA0 SHL SWAP2 DUP3 DUP3 SLOAD AND OR SWAP1 SSTORE PUSH1 0x5 DUP5 ADD DUP3 PUSH1 0xA0 DUP6 ADD MLOAD AND DUP3 DUP3 SLOAD AND OR SWAP1 SSTORE PUSH1 0xC0 DUP4 ADD MLOAD PUSH1 0x6 DUP6 ADD SSTORE PUSH1 0x7 DUP5 ADD SWAP2 PUSH1 0xE0 DUP5 ADD MLOAD AND SWAP1 DUP3 SLOAD AND OR DUP2 SSTORE PUSH2 0x100 DUP3 ADD MLOAD PUSH1 0x6 DUP2 LT ISZERO PUSH2 0x57B JUMPI PUSH2 0x359 SWAP2 PUSH2 0x25C0 JUMP JUMPDEST PUSH2 0x120 DUP2 ADD MLOAD PUSH1 0x8 DUP4 ADD SSTORE PUSH2 0x140 DUP2 ADD MLOAD PUSH1 0x9 DUP4 ADD SSTORE PUSH2 0x160 DUP2 ADD MLOAD PUSH1 0xA DUP4 ADD SSTORE PUSH2 0x180 DUP2 ADD MLOAD DUP1 MLOAD SWAP1 PUSH1 0x1 PUSH1 0x1 PUSH1 0x40 SHL SUB DUP3 GT PUSH2 0x565 JUMPI PUSH2 0x39E PUSH1 0xB DUP6 ADD SLOAD PUSH2 0x23B4 JUMP JUMPDEST PUSH1 0x1F DUP2 GT PUSH2 0x51E JUMPI JUMPDEST POP SWAP2 DUP6 SWAP4 SWAP2 PUSH1 0x20 SWAP8 SWAP4 DUP9 SWAP1 PUSH1 0x1F DUP4 GT PUSH1 0x1 EQ PUSH2 0x493 JUMPI PUSH1 0x0 DUP1 MLOAD PUSH1 0x20 PUSH2 0x276A DUP4 CODECOPY DUP2 MLOAD SWAP2 MSTORE SWAP6 SWAP4 DUP4 PUSH2 0x467 SWAP7 SWAP5 PUSH1 0xE SWAP5 PUSH2 0x1E0 SWAP5 PUSH1 0x0 SWAP3 PUSH2 0x488 JUMPI JUMPDEST POP POP DUP2 PUSH1 0x1 SHL SWAP2 PUSH1 0x0 NOT SWAP1 PUSH1 0x3 SHL SHR NOT AND OR PUSH1 0xB DUP6 ADD SSTORE JUMPDEST PUSH2 0x1A0 DUP2 ADD MLOAD PUSH1 0xC DUP6 ADD SSTORE PUSH2 0x1C0 DUP2 ADD MLOAD PUSH1 0xD DUP6 ADD SSTORE ADD MLOAD SWAP2 ADD SSTORE PUSH1 0x24 CALLDATALOAD PUSH1 0x0 MSTORE PUSH1 0x4 DUP8 MSTORE DUP4 PUSH1 0x40 PUSH1 0x0 KECCAK256 SSTORE CALLER PUSH1 0x0 MSTORE PUSH1 0x5 DUP8 MSTORE PUSH2 0x43D DUP5 PUSH1 0x40 PUSH1 0x0 KECCAK256 PUSH2 0x25E4 JUMP JUMPDEST PUSH2 0x452 PUSH1 0x40 MLOAD SWAP6 PUSH1 0xA0 DUP8 MSTORE PUSH1 0xA0 DUP8 ADD SWAP1 PUSH2 0x2494 JUMP JUMPDEST SWAP1 PUSH1 0x24 CALLDATALOAD DUP9 DUP8 ADD MSTORE DUP6 DUP3 SUB PUSH1 0x40 DUP8 ADD MSTORE PUSH2 0x2494 JUMP JUMPDEST SWAP3 CALLVALUE PUSH1 0x60 DUP3 ADD MSTORE PUSH1 0x0 PUSH1 0x80 DUP3 ADD MSTORE DUP1 CALLER SWAP5 SUB SWAP1 LOG3 PUSH1 0x1 PUSH1 0x0 SSTORE PUSH1 0x40 MLOAD SWAP1 DUP2 MSTORE RETURN JUMPDEST ADD MLOAD SWAP1 POP CODESIZE DUP1 PUSH2 0x3E3 JUMP JUMPDEST SWAP1 PUSH1 0xB DUP6 ADD PUSH1 0x0 MSTORE DUP10 PUSH1 0x0 KECCAK256 SWAP2 PUSH1 0x0 JUMPDEST PUSH1 0x1F NOT DUP6 AND DUP2 LT PUSH2 0x504 JUMPI POP SWAP4 PUSH1 0x1 DUP5 PUSH1 0xE SWAP5 PUSH2 0x1E0 SWAP5 PUSH1 0x0 DUP1 MLOAD PUSH1 0x20 PUSH2 0x276A DUP4 CODECOPY DUP2 MLOAD SWAP2 MSTORE SWAP11 SWAP9 PUSH2 0x467 SWAP11 SWAP9 PUSH1 0x1F NOT DUP2 AND LT PUSH2 0x4EB JUMPI JUMPDEST POP POP POP DUP2 SHL ADD PUSH1 0xB DUP6 ADD SSTORE PUSH2 0x3FB JUMP JUMPDEST ADD MLOAD PUSH1 0x0 NOT PUSH1 0xF8 DUP5 PUSH1 0x3 SHL AND SHR NOT AND SWAP1 SSTORE CODESIZE DUP1 DUP1 PUSH2 0x4DB JUMP JUMPDEST DUP2 DUP4 ADD MLOAD DUP5 SSTORE DUP11 SWAP9 POP PUSH1 0x1 SWAP1 SWAP4 ADD SWAP3 SWAP2 DUP12 ADD SWAP2 DUP12 ADD PUSH2 0x4A3 JUMP JUMPDEST PUSH1 0xB DUP6 ADD PUSH1 0x0 MSTORE PUSH1 0x20 PUSH1 0x0 KECCAK256 PUSH1 0x1F DUP5 ADD PUSH1 0x5 SHR DUP2 ADD PUSH1 0x20 DUP6 LT PUSH2 0x55E JUMPI JUMPDEST PUSH1 0x1F DUP4 ADD PUSH1 0x5 SHR DUP3 ADD DUP2 LT PUSH2 0x552 JUMPI POP POP PUSH2 0x3A7 JUMP JUMPDEST PUSH1 0x0 DUP2 SSTORE PUSH1 0x1 ADD PUSH2 0x53C JUMP JUMPDEST POP DUP1 PUSH2 0x53C JUMP JUMPDEST PUSH4 0x4E487B71 PUSH1 0xE0 SHL PUSH1 0x0 MSTORE PUSH1 0x41 PUSH1 0x4 MSTORE PUSH1 0x24 PUSH1 0x0 REVERT JUMPDEST PUSH4 0x4E487B71 PUSH1 0xE0 SHL PUSH1 0x0 MSTORE PUSH1 0x21 PUSH1 0x4 MSTORE PUSH1 0x24 PUSH1 0x0 REVERT JUMPDEST ADD MLOAD SWAP1 POP CODESIZE DUP1 PUSH2 0x2D4 JUMP JUMPDEST SWAP3 POP PUSH1 0x3 DUP6 ADD PUSH1 0x0 MSTORE PUSH1 0x20 PUSH1 0x0 KECCAK256 SWAP1 PUSH1 0x0 SWAP4 JUMPDEST PUSH1 0x1F NOT DUP5 AND DUP6 LT PUSH2 0x5F3 JUMPI PUSH1 0x1 SWAP5 POP DUP4 PUSH1 0x1F NOT DUP2 AND LT PUSH2 0x5DA JUMPI JUMPDEST POP POP POP DUP2 SHL ADD PUSH1 0x3 DUP4 ADD SSTORE PUSH2 0x2EC JUMP JUMPDEST ADD MLOAD PUSH1 0x0 NOT PUSH1 0xF8 DUP5 PUSH1 0x3 SHL AND SHR NOT AND SWAP1 SSTORE CODESIZE DUP1 DUP1 PUSH2 0x5CA JUMP JUMPDEST DUP2 DUP2 ADD MLOAD DUP4 SSTORE PUSH1 0x20 SWAP5 DUP6 ADD SWAP5 PUSH1 0x1 SWAP1 SWAP4 ADD SWAP3 SWAP1 SWAP2 ADD SWAP1 PUSH2 0x5AF JUMP JUMPDEST SWAP1 SWAP2 POP PUSH1 0x3 DUP6 ADD PUSH1 0x0 MSTORE PUSH1 0x20 PUSH1 0x0 KECCAK256 PUSH1 0x1F DUP5 ADD PUSH1 0x5 SHR DUP2 ADD PUSH1 0x20 DUP6 LT PUSH2 0x65A JUMPI JUMPDEST SWAP1 DUP5 SWAP4 SWAP3 SWAP2 JUMPDEST PUSH1 0x1F DUP4 ADD PUSH1 0x5 SHR DUP3 ADD DUP2 LT PUSH2 0x64B JUMPI POP POP PUSH2 0x2BD JUMP JUMPDEST PUSH1 0x0 DUP2 SSTORE DUP6 SWAP5 POP PUSH1 0x1 ADD PUSH2 0x635 JUMP JUMPDEST POP DUP1 PUSH2 0x62F JUMP JUMPDEST ADD MLOAD SWAP1 POP CODESIZE DUP1 PUSH2 0x26D JUMP JUMPDEST SWAP3 POP PUSH1 0x1 DUP6 ADD PUSH1 0x0 MSTORE PUSH1 0x20 PUSH1 0x0 KECCAK256 SWAP1 PUSH1 0x0 SWAP4 JUMPDEST PUSH1 0x1F NOT DUP5 AND DUP6 LT PUSH2 0x6C3 JUMPI PUSH1 0x1 SWAP5 POP DUP4 PUSH1 0x1F NOT DUP2 AND LT PUSH2 0x6AA JUMPI JUMPDEST POP POP POP DUP2 SHL ADD PUSH1 0x1 DUP4 ADD SSTORE PUSH2 0x285 JUMP JUMPDEST ADD MLOAD PUSH1 0x0 NOT PUSH1 0xF8 DUP5 PUSH1 0x3 SHL AND SHR NOT AND SWAP1 SSTORE CODESIZE DUP1 DUP1 PUSH2 0x69A JUMP JUMPDEST DUP2 DUP2 ADD MLOAD DUP4 SSTORE PUSH1 0x20 SWAP5 DUP6 ADD SWAP5 PUSH1 0x1 SWAP1 SWAP4 ADD SWAP3 SWAP1 SWAP2 ADD SWAP1 PUSH2 0x67F JUMP JUMPDEST SWAP1 SWAP2 POP PUSH1 0x1 DUP6 ADD PUSH1 0x0 MSTORE PUSH1 0x20 PUSH1 0x0 KECCAK256 PUSH1 0x1F DUP5 ADD PUSH1 0x5 SHR DUP2 ADD PUSH1 0x20 DUP6 LT PUSH2 0x72A JUMPI JUMPDEST SWAP1 DUP5 SWAP4 SWAP3 SWAP2 JUMPDEST PUSH1 0x1F DUP4 ADD PUSH1 0x5 SHR DUP3 ADD DUP2 LT PUSH2 0x71B JUMPI POP POP PUSH2 0x256 JUMP JUMPDEST PUSH1 0x0 DUP2 SSTORE DUP6 SWAP5 POP PUSH1 0x1 ADD PUSH2 0x705 JUMP JUMPDEST POP DUP1 PUSH2 0x6FF JUMP JUMPDEST PUSH1 0x0 DUP1 REVERT JUMPDEST CALLVALUE PUSH2 0x731 JUMPI PUSH1 0x20 CALLDATASIZE PUSH1 0x3 NOT ADD SLT PUSH2 0x731 JUMPI PUSH2 0x74F PUSH2 0x22A0 JUMP JUMPDEST PUSH2 0x757 PUSH2 0x24E1 JUMP JUMPDEST PUSH1 0x1 PUSH1 0x1 PUSH1 0xA0 SHL SUB SWAP1 DUP2 AND SWAP1 DUP2 ISZERO PUSH2 0x7A6 JUMPI PUSH1 0x1 SLOAD DUP3 PUSH1 0x1 PUSH1 0x1 PUSH1 0x60 SHL SUB PUSH1 0xA0 SHL DUP3 AND OR PUSH1 0x1 SSTORE AND PUSH32 0x8BE0079C531659141344CD1FD0A4F28419497F9722A3DAAFE3B4186F6B6457E0 PUSH1 0x0 DUP1 LOG3 STOP JUMPDEST PUSH1 0x40 MLOAD PUSH4 0x1E4FBDF7 PUSH1 0xE0 SHL DUP2 MSTORE PUSH1 0x0 PUSH1 0x4 DUP3 ADD MSTORE PUSH1 0x24 SWAP1 REVERT JUMPDEST CALLVALUE PUSH2 0x731 JUMPI PUSH1 0x20 CALLDATASIZE PUSH1 0x3 NOT ADD SLT PUSH2 0x731 JUMPI PUSH1 0x4 CALLDATALOAD PUSH1 0x0 PUSH2 0x1E0 PUSH1 0x40 MLOAD PUSH2 0x7E4 DUP2 PUSH2 0x22FA JUMP JUMPDEST DUP3 DUP2 MSTORE PUSH1 0x60 PUSH1 0x20 DUP3 ADD MSTORE DUP3 PUSH1 0x40 DUP3 ADD MSTORE PUSH1 0x60 DUP1 DUP3 ADD MSTORE DUP3 PUSH1 0x80 DUP3 ADD MSTORE DUP3 PUSH1 0xA0 DUP3 ADD MSTORE DUP3 PUSH1 0xC0 DUP3 ADD MSTORE DUP3 PUSH1 0xE0 DUP3 ADD MSTORE DUP3 PUSH2 0x100 DUP3 ADD MSTORE DUP3 PUSH2 0x120 DUP3 ADD MSTORE DUP3 PUSH2 0x140 DUP3 ADD MSTORE DUP3 PUSH2 0x160 DUP3 ADD MSTORE PUSH1 0x60 PUSH2 0x180 DUP3 ADD MSTORE DUP3 PUSH2 0x1A0 DUP3 ADD MSTORE DUP3 PUSH2 0x1C0 DUP3 ADD MSTORE ADD MSTORE DUP1 PUSH1 0x0 MSTORE PUSH1 0x3 PUSH1 0x20 MSTORE PUSH2 0x85F PUSH1 0x40 PUSH1 0x0 KECCAK256 SLOAD ISZERO ISZERO PUSH2 0x269D JUMP JUMPDEST PUSH1 0x0 MSTORE PUSH1 0x3 PUSH1 0x20 MSTORE PUSH1 0x40 PUSH1 0x0 KECCAK256 PUSH1 0x40 MLOAD SWAP1 PUSH2 0x879 DUP3 PUSH2 0x22FA JUMP JUMPDEST DUP1 SLOAD DUP3 MSTORE PUSH2 0x889 PUSH1 0x1 DUP3 ADD PUSH2 0x23EE JUMP JUMPDEST PUSH1 0x20 DUP4 ADD MSTORE PUSH1 0x2 DUP2 ADD SLOAD PUSH1 0x40 DUP4 ADD MSTORE PUSH2 0x8A4 PUSH1 0x3 DUP3 ADD PUSH2 0x23EE JUMP JUMPDEST PUSH1 0x60 DUP4 ADD MSTORE PUSH1 0x4 DUP2 ADD SLOAD PUSH1 0x1 PUSH1 0x1 PUSH1 0xA0 SHL SUB SWAP1 DUP2 AND PUSH1 0x80 DUP5 ADD MSTORE PUSH1 0x5 DUP3 ADD SLOAD DUP2 AND PUSH1 0xA0 DUP1 DUP6 ADD SWAP2 SWAP1 SWAP2 MSTORE PUSH1 0x6 DUP1 DUP5 ADD SLOAD PUSH1 0xC0 DUP7 ADD MSTORE PUSH1 0x7 DUP5 ADD SLOAD SWAP3 DUP4 AND PUSH1 0xE0 DUP7 ADD MSTORE SWAP2 SWAP3 SWAP2 SWAP1 DUP4 SWAP1 SHR PUSH1 0xFF AND LT ISZERO PUSH2 0x57B JUMPI PUSH1 0xFF PUSH1 0xE SWAP3 PUSH1 0xA0 SHR AND PUSH2 0x100 DUP5 ADD MSTORE PUSH1 0x8 DUP2 ADD SLOAD PUSH2 0x120 DUP5 ADD MSTORE PUSH1 0x9 DUP2 ADD SLOAD PUSH2 0x140 DUP5 ADD MSTORE PUSH1 0xA DUP2 ADD SLOAD PUSH2 0x160 DUP5 ADD MSTORE PUSH2 0x932 PUSH1 0xB DUP3 ADD PUSH2 0x23EE JUMP JUMPDEST PUSH2 0x180 DUP5 ADD MSTORE PUSH1 0xC DUP2 ADD SLOAD PUSH2 0x1A0 DUP5 ADD MSTORE PUSH1 0xD DUP2 ADD SLOAD PUSH2 0x1C0 DUP5 ADD MSTORE ADD SLOAD PUSH2 0x1E0 DUP3 ADD MSTORE PUSH1 0x40 MLOAD DUP1 SWAP2 PUSH1 0x20 DUP3 MSTORE DUP1 MLOAD PUSH1 0x20 DUP4 ADD MSTORE PUSH2 0x1E0 PUSH2 0xA3B PUSH2 0x9AA PUSH2 0x98A PUSH1 0x20 DUP6 ADD MLOAD PUSH2 0x200 PUSH1 0x40 DUP9 ADD MSTORE PUSH2 0x220 DUP8 ADD SWAP1 PUSH2 0x2494 JUMP JUMPDEST PUSH1 0x40 DUP6 ADD MLOAD PUSH1 0x60 DUP8 ADD MSTORE PUSH1 0x60 DUP6 ADD MLOAD PUSH1 0x1F NOT DUP8 DUP4 SUB ADD PUSH1 0x80 DUP9 ADD MSTORE PUSH2 0x2494 JUMP JUMPDEST PUSH1 0x1 DUP1 PUSH1 0xA0 SHL SUB PUSH1 0x80 DUP6 ADD MLOAD AND PUSH1 0xA0 DUP7 ADD MSTORE PUSH1 0x1 DUP1 PUSH1 0xA0 SHL SUB PUSH1 0xA0 DUP6 ADD MLOAD AND PUSH1 0xC0 DUP7 ADD MSTORE PUSH1 0xC0 DUP5 ADD MLOAD PUSH1 0xE0 DUP7 ADD MSTORE PUSH1 0x1 DUP1 PUSH1 0xA0 SHL SUB PUSH1 0xE0 DUP6 ADD MLOAD AND PUSH2 0x100 DUP7 ADD MSTORE PUSH2 0x9FF PUSH2 0x100 DUP6 ADD MLOAD PUSH2 0x120 DUP8 ADD SWAP1 PUSH2 0x24D4 JUMP JUMPDEST PUSH2 0x120 DUP5 ADD MLOAD PUSH2 0x140 DUP7 ADD MSTORE PUSH2 0x140 DUP5 ADD MLOAD PUSH2 0x160 DUP7 ADD MSTORE PUSH2 0x160 DUP5 ADD MLOAD PUSH2 0x180 DUP7 ADD MSTORE PUSH2 0x180 DUP5 ADD MLOAD PUSH1 0x1F NOT DUP7 DUP4 SUB ADD PUSH2 0x1A0 DUP8 ADD MSTORE PUSH2 0x2494 JUMP JUMPDEST SWAP2 PUSH2 0x1A0 DUP2 ADD MLOAD PUSH2 0x1C0 DUP6 ADD MSTORE PUSH2 0x1C0 DUP2 ADD MLOAD DUP3 DUP6 ADD MSTORE ADD MLOAD PUSH2 0x200 DUP4 ADD MSTORE SUB SWAP1 RETURN JUMPDEST CALLVALUE PUSH2 0x731 JUMPI PUSH1 0x20 DUP1 PUSH1 0x3 NOT CALLDATASIZE ADD SLT PUSH2 0x731 JUMPI PUSH1 0x4 CALLDATALOAD PUSH2 0xA7B PUSH2 0x261E JUMP JUMPDEST DUP1 PUSH1 0x0 MSTORE PUSH1 0x3 DUP3 MSTORE PUSH1 0x40 PUSH1 0x0 KECCAK256 PUSH2 0xA94 DUP2 SLOAD ISZERO ISZERO PUSH2 0x269D JUMP JUMPDEST PUSH1 0x7 DUP2 ADD DUP1 SLOAD SWAP2 PUSH1 0xFF DUP4 PUSH1 0xA0 SHR AND PUSH1 0x6 DUP2 LT ISZERO PUSH2 0x57B JUMPI PUSH2 0xCA0 JUMPI PUSH1 0x4 DUP2 ADD SWAP2 PUSH1 0x1 DUP1 PUSH1 0xA0 SHL SUB SWAP4 DUP5 DUP5 SLOAD AND SWAP2 DUP3 CALLER SUB PUSH2 0xC5B JUMPI PUSH1 0xFF PUSH1 0xA0 SHL NOT DUP3 AND PUSH1 0x5 PUSH1 0xA0 SHL OR SWAP1 SSTORE DUP7 SWAP2 SWAP1 DUP6 AND DUP1 PUSH2 0xB73 JUMPI POP POP POP PUSH1 0x0 DUP1 DUP1 DUP1 SWAP4 PUSH1 0x6 DUP8 DUP8 SLOAD AND SWAP2 ADD SLOAD SWAP1 GAS CALL PUSH2 0xAFF PUSH2 0x26DC JUMP JUMPDEST POP ISZERO PUSH2 0xB3A JUMPI SWAP1 PUSH32 0xB9670BF4F2273686F771C9AB65309436DF5ED75AFA63EEFEC8B67640D8BCF72C SWAP2 JUMPDEST SLOAD AND SWAP3 PUSH1 0x40 MLOAD TIMESTAMP DUP2 MSTORE LOG3 PUSH1 0x1 PUSH1 0x0 SSTORE STOP JUMPDEST PUSH1 0x40 MLOAD PUSH3 0x461BCD PUSH1 0xE5 SHL DUP2 MSTORE PUSH1 0x4 DUP2 ADD DUP6 SWAP1 MSTORE PUSH1 0x11 PUSH1 0x24 DUP3 ADD MSTORE PUSH17 0x115512081C99599D5B990819985A5B1959 PUSH1 0x7A SHL PUSH1 0x44 DUP3 ADD MSTORE PUSH1 0x64 SWAP1 REVERT JUMPDEST PUSH1 0x6 SWAP4 SWAP1 SWAP4 ADD SLOAD PUSH1 0x40 MLOAD PUSH4 0xA9059CBB PUSH1 0xE0 SHL DUP2 MSTORE PUSH1 0x1 PUSH1 0x1 PUSH1 0xA0 SHL SUB SWAP3 SWAP1 SWAP3 AND PUSH1 0x4 DUP4 ADD MSTORE PUSH1 0x24 DUP3 ADD MSTORE SWAP2 DUP3 SWAP1 PUSH1 0x44 SWAP1 DUP3 SWAP1 PUSH1 0x0 SWAP1 GAS CALL SWAP1 DUP2 ISZERO PUSH2 0xC4F JUMPI PUSH1 0x0 SWAP2 PUSH2 0xC22 JUMPI JUMPDEST POP ISZERO PUSH2 0xBE7 JUMPI SWAP1 PUSH32 0xB9670BF4F2273686F771C9AB65309436DF5ED75AFA63EEFEC8B67640D8BCF72C SWAP2 PUSH2 0xB29 JUMP JUMPDEST PUSH1 0x40 MLOAD PUSH3 0x461BCD PUSH1 0xE5 SHL DUP2 MSTORE PUSH1 0x4 DUP2 ADD DUP6 SWAP1 MSTORE PUSH1 0x13 PUSH1 0x24 DUP3 ADD MSTORE PUSH19 0x151BDAD95B881C99599D5B990819985A5B1959 PUSH1 0x6A SHL PUSH1 0x44 DUP3 ADD MSTORE PUSH1 0x64 SWAP1 REVERT JUMPDEST PUSH2 0xC42 SWAP2 POP DUP6 RETURNDATASIZE DUP8 GT PUSH2 0xC48 JUMPI JUMPDEST PUSH2 0xC3A DUP2 DUP4 PUSH2 0x2331 JUMP JUMPDEST DUP2 ADD SWAP1 PUSH2 0x2641 JUMP JUMPDEST DUP6 PUSH2 0xBB9 JUMP JUMPDEST POP RETURNDATASIZE PUSH2 0xC30 JUMP JUMPDEST PUSH1 0x40 MLOAD RETURNDATASIZE PUSH1 0x0 DUP3 RETURNDATACOPY RETURNDATASIZE SWAP1 REVERT JUMPDEST PUSH1 0x40 MLOAD PUSH3 0x461BCD PUSH1 0xE5 SHL DUP2 MSTORE PUSH1 0x4 DUP2 ADD DUP10 SWAP1 MSTORE PUSH1 0x19 PUSH1 0x24 DUP3 ADD MSTORE PUSH32 0x4F6E6C79207265717565737465722063616E2063616E63656C00000000000000 PUSH1 0x44 DUP3 ADD MSTORE PUSH1 0x64 SWAP1 REVERT JUMPDEST PUSH1 0x40 MLOAD PUSH3 0x461BCD PUSH1 0xE5 SHL DUP2 MSTORE PUSH1 0x4 DUP2 ADD DUP7 SWAP1 MSTORE PUSH1 0x1B PUSH1 0x24 DUP3 ADD MSTORE PUSH32 0x43616E206F6E6C792063616E63656C206F70656E20626F756E74790000000000 PUSH1 0x44 DUP3 ADD MSTORE PUSH1 0x64 SWAP1 REVERT JUMPDEST CALLVALUE PUSH2 0x731 JUMPI PUSH1 0x0 CALLDATASIZE PUSH1 0x3 NOT ADD SLT PUSH2 0x731 JUMPI PUSH1 0x20 PUSH1 0x40 MLOAD PUSH1 0x0 DUP2 MSTORE RETURN JUMPDEST CALLVALUE PUSH2 0x731 JUMPI PUSH1 0x20 CALLDATASIZE PUSH1 0x3 NOT ADD SLT PUSH2 0x731 JUMPI PUSH1 0x4 CALLDATALOAD PUSH1 0x0 MSTORE PUSH1 0x3 PUSH1 0x20 MSTORE PUSH1 0x40 PUSH1 0x0 KECCAK256 DUP1 SLOAD SWAP1 PUSH1 0x1 DUP2 ADD PUSH2 0xD32 SWAP1 PUSH2 0x23EE JUMP JUMPDEST SWAP1 PUSH1 0x2 DUP2 ADD SLOAD SWAP3 PUSH1 0x3 DUP3 ADD PUSH2 0xD46 SWAP1 PUSH2 0x23EE JUMP JUMPDEST PUSH1 0x4 DUP4 ADD SLOAD PUSH1 0x5 DUP5 ADD SLOAD PUSH1 0x6 DUP6 ADD SLOAD PUSH1 0x7 DUP7 ADD SLOAD PUSH1 0x8 DUP8 ADD SLOAD PUSH1 0x9 DUP9 ADD SLOAD PUSH1 0xA DUP10 ADD SLOAD SWAP7 SWAP9 SWAP7 PUSH1 0x1 PUSH1 0x1 PUSH1 0xA0 SHL SUB SWAP6 DUP7 AND SWAP7 SWAP1 SWAP6 AND SWAP5 SWAP4 SWAP1 SWAP3 SWAP1 PUSH2 0xD8C PUSH1 0xB DUP10 ADD PUSH2 0x23EE JUMP JUMPDEST SWAP7 PUSH1 0xC DUP10 ADD SLOAD SWAP11 PUSH1 0xD DUP11 ADD SLOAD SWAP10 PUSH1 0xE ADD SLOAD SWAP11 PUSH1 0x40 MLOAD SWAP15 DUP16 SWAP15 DUP16 SWAP3 DUP4 MSTORE PUSH2 0x200 DUP1 PUSH1 0x20 DUP6 ADD MSTORE DUP4 ADD PUSH2 0xDBC SWAP2 PUSH2 0x2494 JUMP JUMPDEST SWAP2 PUSH1 0x40 ADD MSTORE DUP14 DUP1 DUP3 SUB SWAP1 PUSH1 0x60 ADD MSTORE PUSH2 0xDD3 SWAP2 PUSH2 0x2494 JUMP JUMPDEST SWAP7 PUSH1 0x80 DUP14 ADD MSTORE PUSH1 0xA0 DUP13 ADD MSTORE PUSH1 0xC0 DUP12 ADD MSTORE PUSH1 0x1 PUSH1 0xA0 SHL PUSH1 0x1 SWAP1 SUB DUP2 AND PUSH1 0xE0 DUP12 ADD MSTORE PUSH2 0x100 DUP11 ADD SWAP1 PUSH1 0xA0 SHR PUSH1 0xFF AND SWAP1 PUSH2 0xE09 SWAP2 PUSH2 0x24D4 JUMP JUMPDEST PUSH2 0x120 DUP10 ADD MSTORE PUSH2 0x140 DUP9 ADD MSTORE PUSH2 0x160 DUP8 ADD MSTORE DUP6 DUP2 SUB PUSH2 0x180 DUP8 ADD MSTORE PUSH2 0xE2D SWAP2 PUSH2 0x2494 JUMP JUMPDEST SWAP3 PUSH2 0x1A0 DUP6 ADD MSTORE PUSH2 0x1C0 DUP5 ADD MSTORE PUSH2 0x1E0 DUP4 ADD MSTORE SUB SWAP1 RETURN JUMPDEST CALLVALUE PUSH2 0x731 JUMPI PUSH2 0xE52 CALLDATASIZE PUSH2 0x22B6 JUMP JUMPDEST PUSH1 0x2 SLOAD SWAP1 DUP2 DUP4 LT ISZERO PUSH2 0xEF0 JUMPI DUP3 DUP3 SUB SWAP2 DUP3 GT PUSH2 0xED3 JUMPI PUSH1 0x0 NOT DUP3 ADD SWAP2 DUP3 GT PUSH2 0xED3 JUMPI DUP1 DUP3 LT ISZERO PUSH2 0xEE9 JUMPI POP JUMPDEST PUSH2 0xE87 DUP2 PUSH2 0x2723 JUMP JUMPDEST SWAP2 PUSH1 0x0 JUMPDEST DUP3 DUP2 LT PUSH2 0xEA4 JUMPI PUSH1 0x40 MLOAD DUP1 PUSH2 0xEA0 DUP7 DUP3 PUSH2 0x2265 JUMP JUMPDEST SUB SWAP1 RETURN JUMPDEST DUP1 DUP3 ADD SWAP1 DUP2 DUP4 GT PUSH2 0xED3 JUMPI PUSH1 0x1 DUP3 ADD DUP1 SWAP3 GT PUSH2 0xED3 JUMPI PUSH2 0xECE SWAP2 PUSH2 0xEC8 DUP3 DUP8 PUSH2 0x2755 JUMP JUMPDEST MSTORE PUSH2 0x25B1 JUMP JUMPDEST PUSH2 0xE8B JUMP JUMPDEST PUSH4 0x4E487B71 PUSH1 0xE0 SHL PUSH1 0x0 MSTORE PUSH1 0x11 PUSH1 0x4 MSTORE PUSH1 0x24 PUSH1 0x0 REVERT JUMPDEST SWAP1 POP PUSH2 0xE7E JUMP JUMPDEST PUSH1 0x40 MLOAD PUSH3 0x461BCD PUSH1 0xE5 SHL DUP2 MSTORE PUSH1 0x20 PUSH1 0x4 DUP3 ADD MSTORE PUSH1 0x13 PUSH1 0x24 DUP3 ADD MSTORE PUSH19 0x4F6666736574206F7574206F662072616E6765 PUSH1 0x68 SHL PUSH1 0x44 DUP3 ADD MSTORE PUSH1 0x64 SWAP1 REVERT JUMPDEST CALLVALUE PUSH2 0x731 JUMPI PUSH1 0x40 CALLDATASIZE PUSH1 0x3 NOT ADD SLT PUSH2 0x731 JUMPI PUSH1 0x1 PUSH1 0x1 PUSH1 0x40 SHL SUB PUSH1 0x4 CALLDATALOAD PUSH1 0x24 DUP1 CALLDATALOAD DUP4 DUP2 GT PUSH2 0x731 JUMPI PUSH2 0xF60 SWAP1 CALLDATASIZE SWAP1 PUSH1 0x4 ADD PUSH2 0x236D JUMP JUMPDEST SWAP1 PUSH2 0xF69 PUSH2 0x261E JUMP JUMPDEST DUP3 PUSH1 0x0 MSTORE PUSH1 0x20 SWAP1 PUSH1 0x3 DUP3 MSTORE PUSH1 0x40 PUSH1 0x0 KECCAK256 SWAP5 PUSH2 0xF86 DUP7 SLOAD ISZERO ISZERO PUSH2 0x269D JUMP JUMPDEST PUSH1 0x7 DUP7 ADD SWAP6 DUP7 SLOAD SWAP7 PUSH1 0xFF DUP9 PUSH1 0xA0 SHR AND SWAP8 PUSH1 0x6 DUP10 LT ISZERO PUSH2 0x1220 JUMPI PUSH1 0x1 DUP1 SWAP10 SUB PUSH2 0x11E6 JUMPI PUSH1 0x5 DUP4 ADD SLOAD PUSH1 0x1 PUSH1 0x1 PUSH1 0xA0 SHL SUB AND CALLER SUB PUSH2 0x11A9 JUMPI DUP7 MLOAD ISZERO PUSH2 0x1165 JUMPI PUSH1 0xFF PUSH1 0xA0 SHL NOT AND PUSH1 0x1 PUSH1 0xA1 SHL OR SWAP1 SSTORE TIMESTAMP PUSH1 0xA DUP3 ADD SSTORE DUP5 MLOAD PUSH1 0xB SWAP2 SWAP1 SWAP2 ADD SWAP3 SWAP1 SWAP2 DUP3 GT PUSH2 0x1151 JUMPI POP PUSH2 0xFF4 DUP3 SLOAD PUSH2 0x23B4 JUMP JUMPDEST PUSH1 0x1F DUP2 GT PUSH2 0x1108 JUMPI JUMPDEST POP DUP3 PUSH1 0x1F DUP3 GT PUSH1 0x1 EQ PUSH2 0x107C JUMPI SWAP2 DUP2 PUSH2 0x1063 SWAP5 SWAP3 PUSH32 0x15FECA2794848FEB9E2EBB4A4A286DDDBF20F7A2C1508E117799DAB6E7FF8956 SWAP7 SWAP5 PUSH1 0x0 SWAP2 PUSH2 0x1071 JUMPI JUMPDEST POP PUSH1 0x0 NOT PUSH1 0x3 DUP4 SWAP1 SHL SHR NOT AND SWAP1 DUP9 SHL OR SWAP1 SSTORE JUMPDEST PUSH1 0x40 MLOAD SWAP3 DUP4 SWAP3 PUSH1 0x40 DUP5 MSTORE PUSH1 0x40 DUP5 ADD SWAP1 PUSH2 0x2494 JUMP JUMPDEST SWAP1 TIMESTAMP SWAP1 DUP4 ADD MSTORE SUB SWAP1 LOG2 PUSH1 0x0 SSTORE STOP JUMPDEST SWAP1 POP DUP5 ADD MLOAD DUP10 PUSH2 0x103C JUMP JUMPDEST SWAP1 DUP7 SWAP2 PUSH1 0x1F NOT DUP3 AND SWAP1 DUP5 PUSH1 0x0 MSTORE DUP6 PUSH1 0x0 KECCAK256 SWAP2 PUSH1 0x0 JUMPDEST DUP2 DUP2 LT PUSH2 0x10F1 JUMPI POP SWAP2 DUP4 SWAP2 PUSH32 0x15FECA2794848FEB9E2EBB4A4A286DDDBF20F7A2C1508E117799DAB6E7FF8956 SWAP9 SWAP7 SWAP5 PUSH2 0x1063 SWAP9 SWAP7 SWAP5 LT PUSH2 0x10D8 JUMPI JUMPDEST POP POP DUP2 SHL ADD SWAP1 SSTORE PUSH2 0x104F JUMP JUMPDEST DUP7 ADD MLOAD PUSH1 0x0 NOT PUSH1 0xF8 DUP5 PUSH1 0x3 SHL AND SHR NOT AND SWAP1 SSTORE DUP10 DUP1 PUSH2 0x10CC JUMP JUMPDEST DUP9 DUP4 ADD MLOAD DUP5 SSTORE DUP11 SWAP6 SWAP1 SWAP4 ADD SWAP3 SWAP2 DUP8 ADD SWAP2 DUP8 ADD PUSH2 0x1091 JUMP JUMPDEST DUP3 PUSH1 0x0 MSTORE DUP4 PUSH1 0x0 KECCAK256 PUSH1 0x1F DUP4 ADD PUSH1 0x5 SHR DUP2 ADD SWAP2 DUP6 DUP5 LT PUSH2 0x1147 JUMPI JUMPDEST PUSH1 0x1F ADD PUSH1 0x5 SHR ADD SWAP1 DUP8 SWAP1 JUMPDEST DUP3 DUP2 LT PUSH2 0x113B JUMPI POP POP PUSH2 0xFFD JUMP JUMPDEST PUSH1 0x0 DUP2 SSTORE ADD DUP8 SWAP1 PUSH2 0x112D JUMP JUMPDEST SWAP1 SWAP2 POP DUP2 SWAP1 PUSH2 0x1122 JUMP JUMPDEST PUSH4 0x4E487B71 PUSH1 0xE0 SHL PUSH1 0x0 SWAP1 DUP2 MSTORE PUSH1 0x41 PUSH1 0x4 MSTORE REVERT JUMPDEST PUSH1 0x40 MLOAD PUSH3 0x461BCD PUSH1 0xE5 SHL DUP2 MSTORE PUSH1 0x4 DUP2 ADD DUP8 SWAP1 MSTORE PUSH1 0x17 DUP2 DUP8 ADD MSTORE PUSH32 0x5375626D697373696F6E2055524C207265717569726564000000000000000000 PUSH1 0x44 DUP3 ADD MSTORE PUSH1 0x64 SWAP1 REVERT JUMPDEST PUSH1 0x40 MLOAD PUSH3 0x461BCD PUSH1 0xE5 SHL DUP2 MSTORE PUSH1 0x4 DUP2 ADD DUP8 SWAP1 MSTORE PUSH1 0x16 DUP2 DUP8 ADD MSTORE PUSH22 0x13DB9B1E481DDBDC9AD95C8818D85B881CDD589B5A5D PUSH1 0x52 SHL PUSH1 0x44 DUP3 ADD MSTORE PUSH1 0x64 SWAP1 REVERT JUMPDEST PUSH1 0x40 MLOAD PUSH3 0x461BCD PUSH1 0xE5 SHL DUP2 MSTORE PUSH1 0x4 DUP2 ADD DUP8 SWAP1 MSTORE PUSH1 0x13 DUP2 DUP8 ADD MSTORE PUSH19 0x109BDD5B9D1E481B9BDD081858D8D95C1D1959 PUSH1 0x6A SHL PUSH1 0x44 DUP3 ADD MSTORE PUSH1 0x64 SWAP1 REVERT JUMPDEST DUP5 PUSH4 0x4E487B71 PUSH1 0xE0 SHL PUSH1 0x0 MSTORE PUSH1 0x21 PUSH1 0x4 MSTORE PUSH1 0x0 REVERT JUMPDEST CALLVALUE PUSH2 0x731 JUMPI PUSH1 0x20 CALLDATASIZE PUSH1 0x3 NOT ADD SLT PUSH2 0x731 JUMPI PUSH1 0x4 CALLDATALOAD PUSH1 0x0 MSTORE PUSH1 0x4 PUSH1 0x20 MSTORE PUSH1 0x40 DUP1 PUSH1 0x0 KECCAK256 SLOAD DUP2 MLOAD SWAP1 DUP1 ISZERO ISZERO DUP3 MSTORE PUSH1 0x20 DUP3 ADD MSTORE RETURN JUMPDEST CALLVALUE PUSH2 0x731 JUMPI PUSH1 0x40 CALLDATASIZE PUSH1 0x3 NOT ADD SLT PUSH2 0x731 JUMPI PUSH1 0x1 PUSH1 0x1 PUSH1 0xA0 SHL SUB PUSH1 0x24 CALLDATALOAD DUP2 DUP2 AND SWAP1 PUSH1 0x4 CALLDATALOAD SWAP1 DUP3 SWAP1 SUB PUSH2 0x731 JUMPI PUSH2 0x129A PUSH2 0x261E JUMP JUMPDEST DUP1 PUSH1 0x0 MSTORE PUSH1 0x20 PUSH1 0x3 DUP2 MSTORE PUSH1 0x40 PUSH1 0x0 KECCAK256 PUSH2 0x12B5 DUP2 SLOAD ISZERO ISZERO PUSH2 0x269D JUMP JUMPDEST PUSH1 0x7 DUP2 ADD DUP1 SLOAD SWAP6 PUSH1 0xFF DUP8 PUSH1 0xA0 SHR AND PUSH1 0x6 DUP2 LT ISZERO PUSH2 0x57B JUMPI PUSH2 0x13D9 JUMPI PUSH1 0x4 DUP4 ADD SLOAD AND CALLER SUB PUSH2 0x1394 JUMPI DUP5 ISZERO PUSH2 0x1356 JUMPI PUSH32 0x4AA9D087BDA72ED5E9F18284FBDA4E853A8B279176F1805C7155872FBC1258E6 SWAP4 SWAP5 SWAP6 PUSH1 0x5 DUP4 ADD DUP8 PUSH1 0x1 PUSH1 0x1 PUSH1 0x60 SHL SUB PUSH1 0xA0 SHL DUP3 SLOAD AND OR SWAP1 SSTORE PUSH1 0x1 PUSH1 0xA0 SHL SWAP1 PUSH1 0xFF PUSH1 0xA0 SHL NOT AND OR SWAP1 SSTORE PUSH1 0x9 TIMESTAMP SWAP2 ADD SSTORE DUP4 PUSH1 0x0 MSTORE PUSH1 0x6 DUP2 MSTORE PUSH2 0x1348 DUP4 PUSH1 0x40 PUSH1 0x0 KECCAK256 PUSH2 0x25E4 JUMP JUMPDEST PUSH1 0x40 MLOAD TIMESTAMP DUP2 MSTORE LOG3 PUSH1 0x1 PUSH1 0x0 SSTORE STOP JUMPDEST PUSH1 0x40 MLOAD PUSH3 0x461BCD PUSH1 0xE5 SHL DUP2 MSTORE PUSH1 0x4 DUP2 ADD DUP5 SWAP1 MSTORE PUSH1 0x16 PUSH1 0x24 DUP3 ADD MSTORE PUSH22 0x496E76616C696420776F726B65722061646472657373 PUSH1 0x50 SHL PUSH1 0x44 DUP3 ADD MSTORE PUSH1 0x64 SWAP1 REVERT JUMPDEST PUSH1 0x40 MLOAD PUSH3 0x461BCD PUSH1 0xE5 SHL DUP2 MSTORE PUSH1 0x4 DUP2 ADD DUP5 SWAP1 MSTORE PUSH1 0x19 PUSH1 0x24 DUP3 ADD MSTORE PUSH32 0x4F6E6C79207265717565737465722063616E2061636365707400000000000000 PUSH1 0x44 DUP3 ADD MSTORE PUSH1 0x64 SWAP1 REVERT JUMPDEST PUSH1 0x40 MLOAD PUSH3 0x461BCD PUSH1 0xE5 SHL DUP2 MSTORE PUSH1 0x4 DUP2 ADD DUP6 SWAP1 MSTORE PUSH1 0xF PUSH1 0x24 DUP3 ADD MSTORE PUSH15 0x2137BAB73A3C903737BA1037B832B7 PUSH1 0x89 SHL PUSH1 0x44 DUP3 ADD MSTORE PUSH1 0x64 SWAP1 REVERT JUMPDEST CALLVALUE PUSH2 0x731 JUMPI PUSH1 0x0 CALLDATASIZE PUSH1 0x3 NOT ADD SLT PUSH2 0x731 JUMPI PUSH1 0x1 SLOAD PUSH1 0x40 MLOAD PUSH1 0x1 PUSH1 0x1 PUSH1 0xA0 SHL SUB SWAP1 SWAP2 AND DUP2 MSTORE PUSH1 0x20 SWAP1 RETURN JUMPDEST CALLVALUE PUSH2 0x731 JUMPI PUSH1 0x40 CALLDATASIZE PUSH1 0x3 NOT ADD SLT PUSH2 0x731 JUMPI PUSH2 0x1452 PUSH2 0x22A0 JUMP JUMPDEST PUSH1 0x1 PUSH1 0x1 PUSH1 0xA0 SHL SUB AND PUSH1 0x0 SWAP1 DUP2 MSTORE PUSH1 0x6 PUSH1 0x20 MSTORE PUSH1 0x40 SWAP1 KECCAK256 DUP1 SLOAD PUSH1 0x24 CALLDATALOAD SWAP2 SWAP1 DUP3 LT ISZERO PUSH2 0x731 JUMPI PUSH1 0x20 SWAP2 PUSH2 0x1483 SWAP2 PUSH2 0x22CC JUMP JUMPDEST SWAP1 SLOAD PUSH1 0x40 MLOAD SWAP2 PUSH1 0x3 SHL SHR DUP2 MSTORE RETURN JUMPDEST CALLVALUE PUSH2 0x731 JUMPI PUSH1 0x0 CALLDATASIZE PUSH1 0x3 NOT ADD SLT PUSH2 0x731 JUMPI PUSH2 0x14AA PUSH2 0x24E1 JUMP JUMPDEST PUSH1 0x1 DUP1 SLOAD PUSH1 0x1 PUSH1 0x1 PUSH1 0xA0 SHL SUB NOT DUP2 AND SWAP1 SWAP2 SSTORE PUSH1 0x0 SWAP1 PUSH1 0x1 PUSH1 0x1 PUSH1 0xA0 SHL SUB AND PUSH32 0x8BE0079C531659141344CD1FD0A4F28419497F9722A3DAAFE3B4186F6B6457E0 DUP3 DUP1 LOG3 STOP JUMPDEST CALLVALUE PUSH2 0x731 JUMPI PUSH1 0xA0 CALLDATASIZE PUSH1 0x3 NOT ADD SLT PUSH2 0x731 JUMPI PUSH1 0x4 CALLDATALOAD PUSH1 0x1 PUSH1 0x1 PUSH1 0x40 SHL SUB DUP2 GT PUSH2 0x731 JUMPI PUSH2 0x151E SWAP1 CALLDATASIZE SWAP1 PUSH1 0x4 ADD PUSH2 0x236D JUMP JUMPDEST PUSH1 0x44 CALLDATALOAD PUSH1 0x1 PUSH1 0x1 PUSH1 0x40 SHL SUB DUP2 GT PUSH2 0x731 JUMPI PUSH2 0x153D SWAP1 CALLDATASIZE SWAP1 PUSH1 0x4 ADD PUSH2 0x236D JUMP JUMPDEST PUSH1 0x64 CALLDATALOAD PUSH1 0x1 PUSH1 0x1 PUSH1 0xA0 SHL SUB DUP2 AND DUP2 SUB PUSH2 0x731 JUMPI PUSH2 0x1558 PUSH2 0x261E JUMP JUMPDEST PUSH1 0x1 PUSH1 0x1 PUSH1 0xA0 SHL SUB DUP2 AND ISZERO PUSH2 0x1BAC JUMPI PUSH2 0x1574 PUSH1 0x84 CALLDATALOAD ISZERO ISZERO PUSH2 0x250D JUMP JUMPDEST PUSH1 0x24 CALLDATALOAD PUSH1 0x0 MSTORE PUSH1 0x4 PUSH1 0x20 MSTORE PUSH2 0x158E PUSH1 0x40 PUSH1 0x0 KECCAK256 SLOAD ISZERO PUSH2 0x2559 JUMP JUMPDEST PUSH1 0x40 MLOAD PUSH4 0x23B872DD PUSH1 0xE0 SHL DUP2 MSTORE CALLER PUSH1 0x4 DUP3 ADD MSTORE ADDRESS PUSH1 0x24 DUP3 ADD MSTORE PUSH1 0x84 CALLDATALOAD PUSH1 0x44 DUP3 ADD MSTORE PUSH1 0x20 DUP2 PUSH1 0x64 DUP2 PUSH1 0x0 PUSH1 0x1 PUSH1 0x1 PUSH1 0xA0 SHL SUB DUP8 AND GAS CALL DUP1 ISZERO PUSH2 0xC4F JUMPI PUSH2 0x15DB SWAP2 PUSH1 0x0 SWAP2 PUSH2 0x1B8D JUMPI JUMPDEST POP PUSH2 0x2659 JUMP JUMPDEST PUSH1 0x2 SLOAD SWAP2 PUSH2 0x15E8 DUP4 PUSH2 0x25B1 JUMP JUMPDEST PUSH1 0x2 SSTORE PUSH1 0x40 MLOAD PUSH2 0x15F7 DUP2 PUSH2 0x22FA JUMP JUMPDEST DUP4 DUP2 MSTORE DUP5 PUSH1 0x20 DUP3 ADD MSTORE PUSH1 0x24 CALLDATALOAD PUSH1 0x40 DUP3 ADD MSTORE DUP2 PUSH1 0x60 DUP3 ADD MSTORE CALLER PUSH1 0x80 DUP3 ADD MSTORE PUSH1 0x0 PUSH1 0xA0 DUP3 ADD MSTORE PUSH1 0x84 CALLDATALOAD PUSH1 0xC0 DUP3 ADD MSTORE PUSH1 0x1 DUP1 PUSH1 0xA0 SHL SUB DUP4 AND PUSH1 0xE0 DUP3 ADD MSTORE PUSH1 0x0 PUSH2 0x100 DUP3 ADD MSTORE TIMESTAMP PUSH2 0x120 DUP3 ADD MSTORE PUSH1 0x0 PUSH2 0x140 DUP3 ADD MSTORE PUSH1 0x0 PUSH2 0x160 DUP3 ADD MSTORE PUSH1 0x40 MLOAD PUSH2 0x165C DUP2 PUSH2 0x2316 JUMP JUMPDEST PUSH1 0x0 DUP2 MSTORE PUSH2 0x180 DUP3 ADD MSTORE PUSH1 0x0 PUSH2 0x1A0 DUP3 ADD MSTORE PUSH1 0x0 PUSH2 0x1C0 DUP3 ADD MSTORE PUSH1 0x0 PUSH2 0x1E0 DUP3 ADD MSTORE DUP4 PUSH1 0x0 MSTORE PUSH1 0x3 PUSH1 0x20 MSTORE PUSH1 0x40 PUSH1 0x0 KECCAK256 SWAP1 DUP1 MLOAD DUP3 SSTORE PUSH1 0x20 DUP2 ADD MLOAD DUP1 MLOAD SWAP1 PUSH1 0x1 PUSH1 0x1 PUSH1 0x40 SHL SUB DUP3 GT PUSH2 0x565 JUMPI DUP2 SWAP1 PUSH2 0x16B6 PUSH1 0x1 DUP7 ADD SLOAD PUSH2 0x23B4 JUMP JUMPDEST PUSH1 0x1F DUP2 GT PUSH2 0x1B3A JUMPI JUMPDEST POP PUSH1 0x20 SWAP1 PUSH1 0x1F DUP4 GT PUSH1 0x1 EQ PUSH2 0x1AC8 JUMPI PUSH1 0x0 SWAP3 PUSH2 0x1ABD JUMPI JUMPDEST POP POP DUP2 PUSH1 0x1 SHL SWAP2 PUSH1 0x0 NOT SWAP1 PUSH1 0x3 SHL SHR NOT AND OR PUSH1 0x1 DUP4 ADD SSTORE JUMPDEST PUSH1 0x40 DUP2 ADD MLOAD PUSH1 0x2 DUP4 ADD SSTORE PUSH1 0x60 DUP2 ADD MLOAD DUP1 MLOAD SWAP1 PUSH1 0x1 PUSH1 0x1 PUSH1 0x40 SHL SUB DUP3 GT PUSH2 0x565 JUMPI DUP2 SWAP1 PUSH2 0x171D PUSH1 0x3 DUP7 ADD SLOAD PUSH2 0x23B4 JUMP JUMPDEST PUSH1 0x1F DUP2 GT PUSH2 0x1A6A JUMPI JUMPDEST POP PUSH1 0x20 SWAP1 PUSH1 0x1F DUP4 GT PUSH1 0x1 EQ PUSH2 0x19F8 JUMPI PUSH1 0x0 SWAP3 PUSH2 0x19ED JUMPI JUMPDEST POP POP DUP2 PUSH1 0x1 SHL SWAP2 PUSH1 0x0 NOT SWAP1 PUSH1 0x3 SHL SHR NOT AND OR PUSH1 0x3 DUP4 ADD SSTORE JUMPDEST PUSH1 0x4 DUP3 ADD PUSH1 0x1 DUP1 PUSH1 0xA0 SHL SUB PUSH1 0x80 DUP4 ADD MLOAD AND SWAP1 PUSH1 0x1 PUSH1 0x1 PUSH1 0x60 SHL SUB PUSH1 0xA0 SHL SWAP2 DUP3 DUP3 SLOAD AND OR SWAP1 SSTORE PUSH1 0x5 DUP4 ADD PUSH1 0x1 DUP1 PUSH1 0xA0 SHL SUB PUSH1 0xA0 DUP5 ADD MLOAD AND DUP3 DUP3 SLOAD AND OR SWAP1 SSTORE PUSH1 0xC0 DUP3 ADD MLOAD PUSH1 0x6 DUP5 ADD SSTORE PUSH1 0x7 DUP4 ADD SWAP1 PUSH1 0x1 DUP1 PUSH1 0xA0 SHL SUB PUSH1 0xE0 DUP5 ADD MLOAD AND SWAP1 DUP3 SLOAD AND OR DUP2 SSTORE PUSH2 0x100 DUP3 ADD MLOAD PUSH1 0x6 DUP2 LT ISZERO PUSH2 0x57B JUMPI PUSH2 0x17CD SWAP2 PUSH2 0x25C0 JUMP JUMPDEST PUSH2 0x120 DUP2 ADD MLOAD PUSH1 0x8 DUP4 ADD SSTORE PUSH2 0x140 DUP2 ADD MLOAD PUSH1 0x9 DUP4 ADD SSTORE PUSH2 0x160 DUP2 ADD MLOAD PUSH1 0xA DUP4 ADD SSTORE PUSH2 0x180 DUP2 ADD MLOAD DUP1 MLOAD SWAP1 PUSH1 0x1 PUSH1 0x1 PUSH1 0x40 SHL SUB DUP3 GT PUSH2 0x565 JUMPI PUSH2 0x1812 PUSH1 0xB DUP6 ADD SLOAD PUSH2 0x23B4 JUMP JUMPDEST PUSH1 0x1F DUP2 GT PUSH2 0x19A6 JUMPI JUMPDEST POP SWAP2 PUSH1 0x20 SWAP8 SWAP4 SWAP2 DUP8 SWAP6 SWAP4 DUP10 SWAP1 PUSH1 0x1F DUP4 GT PUSH1 0x1 EQ PUSH2 0x1914 JUMPI PUSH1 0x0 DUP1 MLOAD PUSH1 0x20 PUSH2 0x276A DUP4 CODECOPY DUP2 MLOAD SWAP2 MSTORE SWAP7 SWAP6 SWAP4 DUP4 PUSH2 0x18DD SWAP7 SWAP5 PUSH1 0xE SWAP5 PUSH2 0x1E0 SWAP5 PUSH1 0x0 SWAP3 PUSH2 0x1909 JUMPI JUMPDEST POP POP DUP2 PUSH1 0x1 SHL SWAP2 PUSH1 0x0 NOT SWAP1 PUSH1 0x3 SHL SHR NOT AND OR PUSH1 0xB DUP6 ADD SSTORE JUMPDEST PUSH2 0x1A0 DUP2 ADD MLOAD PUSH1 0xC DUP6 ADD SSTORE PUSH2 0x1C0 DUP2 ADD MLOAD PUSH1 0xD DUP6 ADD SSTORE ADD MLOAD SWAP2 ADD SSTORE PUSH1 0x24 CALLDATALOAD PUSH1 0x0 MSTORE PUSH1 0x4 DUP9 MSTORE DUP5 PUSH1 0x40 PUSH1 0x0 KECCAK256 SSTORE CALLER PUSH1 0x0 MSTORE PUSH1 0x5 DUP9 MSTORE PUSH2 0x18B3 DUP6 PUSH1 0x40 PUSH1 0x0 KECCAK256 PUSH2 0x25E4 JUMP JUMPDEST PUSH2 0x18C8 PUSH1 0x40 MLOAD SWAP4 PUSH1 0xA0 DUP6 MSTORE PUSH1 0xA0 DUP6 ADD SWAP1 PUSH2 0x2494 JUMP JUMPDEST SWAP1 PUSH1 0x24 CALLDATALOAD DUP10 DUP6 ADD MSTORE DUP4 DUP3 SUB PUSH1 0x40 DUP6 ADD MSTORE PUSH2 0x2494 JUMP JUMPDEST PUSH1 0x84 CALLDATALOAD PUSH1 0x60 DUP4 ADD MSTORE PUSH1 0x1 PUSH1 0x1 PUSH1 0xA0 SHL SUB SWAP1 SWAP5 AND PUSH1 0x80 DUP3 ADD MSTORE CALLER SWAP4 DUP2 SWAP1 SUB SWAP1 LOG3 PUSH1 0x1 PUSH1 0x0 SSTORE PUSH1 0x40 MLOAD SWAP1 DUP2 MSTORE RETURN JUMPDEST ADD MLOAD SWAP1 POP DUP15 DUP1 PUSH2 0x1859 JUMP JUMPDEST PUSH1 0xB DUP6 SWAP5 SWAP4 SWAP3 SWAP9 SWAP8 SWAP7 SWAP6 ADD PUSH1 0x0 MSTORE DUP11 PUSH1 0x0 KECCAK256 SWAP1 PUSH1 0x0 JUMPDEST PUSH1 0x1F NOT DUP5 AND DUP2 LT PUSH2 0x198C JUMPI POP SWAP3 PUSH1 0x1 DUP4 PUSH2 0x1E0 SWAP4 PUSH1 0x0 DUP1 MLOAD PUSH1 0x20 PUSH2 0x276A DUP4 CODECOPY DUP2 MLOAD SWAP2 MSTORE SWAP11 SWAP12 PUSH2 0x18DD SWAP10 SWAP9 SWAP8 PUSH1 0xE SWAP8 PUSH1 0x1F NOT DUP2 AND LT PUSH2 0x1973 JUMPI JUMPDEST POP POP POP DUP2 SHL ADD PUSH1 0xB DUP6 ADD SSTORE PUSH2 0x1871 JUMP JUMPDEST ADD MLOAD PUSH1 0x0 NOT PUSH1 0xF8 DUP5 PUSH1 0x3 SHL AND SHR NOT AND SWAP1 SSTORE DUP15 DUP1 DUP1 PUSH2 0x1963 JUMP JUMPDEST DUP2 DUP11 ADD MLOAD DUP4 SSTORE SWAP9 DUP13 ADD SWAP9 DUP12 SWAP9 POP PUSH1 0x1 SWAP1 SWAP3 ADD SWAP2 DUP13 ADD PUSH2 0x192A JUMP JUMPDEST PUSH1 0xB DUP6 ADD PUSH1 0x0 MSTORE PUSH1 0x20 PUSH1 0x0 KECCAK256 PUSH1 0x1F DUP5 ADD PUSH1 0x5 SHR DUP2 ADD PUSH1 0x20 DUP6 LT PUSH2 0x19E6 JUMPI JUMPDEST PUSH1 0x1F DUP4 ADD PUSH1 0x5 SHR DUP3 ADD DUP2 LT PUSH2 0x19DA JUMPI POP POP PUSH2 0x181B JUMP JUMPDEST PUSH1 0x0 DUP2 SSTORE PUSH1 0x1 ADD PUSH2 0x19C4 JUMP JUMPDEST POP DUP1 PUSH2 0x19C4 JUMP JUMPDEST ADD MLOAD SWAP1 POP DUP9 DUP1 PUSH2 0x173D JUMP JUMPDEST SWAP3 POP PUSH1 0x3 DUP6 ADD PUSH1 0x0 MSTORE PUSH1 0x20 PUSH1 0x0 KECCAK256 SWAP1 PUSH1 0x0 SWAP4 JUMPDEST PUSH1 0x1F NOT DUP5 AND DUP6 LT PUSH2 0x1A4F JUMPI PUSH1 0x1 SWAP5 POP DUP4 PUSH1 0x1F NOT DUP2 AND LT PUSH2 0x1A36 JUMPI JUMPDEST POP POP POP DUP2 SHL ADD PUSH1 0x3 DUP4 ADD SSTORE PUSH2 0x1755 JUMP JUMPDEST ADD MLOAD PUSH1 0x0 NOT PUSH1 0xF8 DUP5 PUSH1 0x3 SHL AND SHR NOT AND SWAP1 SSTORE DUP9 DUP1 DUP1 PUSH2 0x1A26 JUMP JUMPDEST DUP2 DUP2 ADD MLOAD DUP4 SSTORE PUSH1 0x20 SWAP5 DUP6 ADD SWAP5 PUSH1 0x1 SWAP1 SWAP4 ADD SWAP3 SWAP1 SWAP2 ADD SWAP1 PUSH2 0x1A0B JUMP JUMPDEST SWAP1 SWAP2 POP PUSH1 0x3 DUP6 ADD PUSH1 0x0 MSTORE PUSH1 0x20 PUSH1 0x0 KECCAK256 PUSH1 0x1F DUP5 ADD PUSH1 0x5 SHR DUP2 ADD PUSH1 0x20 DUP6 LT PUSH2 0x1AB6 JUMPI JUMPDEST SWAP1 DUP5 SWAP4 SWAP3 SWAP2 JUMPDEST PUSH1 0x1F DUP4 ADD PUSH1 0x5 SHR DUP3 ADD DUP2 LT PUSH2 0x1AA7 JUMPI POP POP PUSH2 0x1726 JUMP JUMPDEST PUSH1 0x0 DUP2 SSTORE DUP6 SWAP5 POP PUSH1 0x1 ADD PUSH2 0x1A91 JUMP JUMPDEST POP DUP1 PUSH2 0x1A8B JUMP JUMPDEST ADD MLOAD SWAP1 POP DUP9 DUP1 PUSH2 0x16D6 JUMP JUMPDEST SWAP3 POP PUSH1 0x1 DUP6 ADD PUSH1 0x0 MSTORE PUSH1 0x20 PUSH1 0x0 KECCAK256 SWAP1 PUSH1 0x0 SWAP4 JUMPDEST PUSH1 0x1F NOT DUP5 AND DUP6 LT PUSH2 0x1B1F JUMPI PUSH1 0x1 SWAP5 POP DUP4 PUSH1 0x1F NOT DUP2 AND LT PUSH2 0x1B06 JUMPI JUMPDEST POP POP POP DUP2 SHL ADD PUSH1 0x1 DUP4 ADD SSTORE PUSH2 0x16EE JUMP JUMPDEST ADD MLOAD PUSH1 0x0 NOT PUSH1 0xF8 DUP5 PUSH1 0x3 SHL AND SHR NOT AND SWAP1 SSTORE DUP9 DUP1 DUP1 PUSH2 0x1AF6 JUMP JUMPDEST DUP2 DUP2 ADD MLOAD DUP4 SSTORE PUSH1 0x20 SWAP5 DUP6 ADD SWAP5 PUSH1 0x1 SWAP1 SWAP4 ADD SWAP3 SWAP1 SWAP2 ADD SWAP1 PUSH2 0x1ADB JUMP JUMPDEST SWAP1 SWAP2 POP PUSH1 0x1 DUP6 ADD PUSH1 0x0 MSTORE PUSH1 0x20 PUSH1 0x0 KECCAK256 PUSH1 0x1F DUP5 ADD PUSH1 0x5 SHR DUP2 ADD PUSH1 0x20 DUP6 LT PUSH2 0x1B86 JUMPI JUMPDEST SWAP1 DUP5 SWAP4 SWAP3 SWAP2 JUMPDEST PUSH1 0x1F DUP4 ADD PUSH1 0x5 SHR DUP3 ADD DUP2 LT PUSH2 0x1B77 JUMPI POP POP PUSH2 0x16BF JUMP JUMPDEST PUSH1 0x0 DUP2 SSTORE DUP6 SWAP5 POP PUSH1 0x1 ADD PUSH2 0x1B61 JUMP JUMPDEST POP DUP1 PUSH2 0x1B5B JUMP JUMPDEST PUSH2 0x1BA6 SWAP2 POP PUSH1 0x20 RETURNDATASIZE PUSH1 0x20 GT PUSH2 0xC48 JUMPI PUSH2 0xC3A DUP2 DUP4 PUSH2 0x2331 JUMP JUMPDEST DUP6 PUSH2 0x15D5 JUMP JUMPDEST PUSH1 0x40 MLOAD PUSH3 0x461BCD PUSH1 0xE5 SHL DUP2 MSTORE PUSH1 0x20 PUSH1 0x4 DUP3 ADD MSTORE PUSH1 0x15 PUSH1 0x24 DUP3 ADD MSTORE PUSH21 0x496E76616C696420746F6B656E2061646472657373 PUSH1 0x58 SHL PUSH1 0x44 DUP3 ADD MSTORE PUSH1 0x64 SWAP1 REVERT JUMPDEST CALLVALUE PUSH2 0x731 JUMPI PUSH1 0x40 CALLDATASIZE PUSH1 0x3 NOT ADD SLT PUSH2 0x731 JUMPI PUSH2 0x1C02 PUSH2 0x22A0 JUMP JUMPDEST PUSH1 0x1 PUSH1 0x1 PUSH1 0xA0 SHL SUB AND PUSH1 0x0 SWAP1 DUP2 MSTORE PUSH1 0x5 PUSH1 0x20 MSTORE PUSH1 0x40 SWAP1 KECCAK256 DUP1 SLOAD PUSH1 0x24 CALLDATALOAD SWAP2 SWAP1 DUP3 LT ISZERO PUSH2 0x731 JUMPI PUSH1 0x20 SWAP2 PUSH2 0x1483 SWAP2 PUSH2 0x22CC JUMP JUMPDEST CALLVALUE PUSH2 0x731 JUMPI PUSH2 0x1C41 CALLDATASIZE PUSH2 0x22B6 JUMP JUMPDEST PUSH2 0x1C49 PUSH2 0x261E JUMP JUMPDEST DUP2 PUSH1 0x0 MSTORE PUSH1 0x3 PUSH1 0x20 MSTORE PUSH1 0x40 PUSH1 0x0 KECCAK256 PUSH2 0x1C63 DUP2 SLOAD ISZERO ISZERO PUSH2 0x269D JUMP JUMPDEST PUSH1 0x7 DUP2 ADD SWAP2 DUP3 SLOAD SWAP3 PUSH1 0xFF DUP5 PUSH1 0xA0 SHR AND PUSH1 0x6 DUP2 LT ISZERO PUSH2 0x57B JUMPI PUSH1 0x2 SUB PUSH2 0x1D7E JUMPI PUSH1 0x4 DUP4 ADD SLOAD PUSH1 0x1 PUSH1 0x1 PUSH1 0xA0 SHL SUB AND CALLER SUB PUSH2 0x1D39 JUMPI DUP2 ISZERO PUSH2 0x1CF4 JUMPI PUSH1 0xFF PUSH1 0xA0 SHL NOT SWAP1 SWAP4 AND PUSH1 0x3 PUSH1 0xA0 SHL OR SWAP1 SWAP3 SSTORE PUSH1 0xC DUP2 ADD DUP3 SWAP1 SSTORE PUSH1 0xD ADD DUP2 SWAP1 SSTORE PUSH1 0x40 DUP1 MLOAD DUP3 DUP2 MSTORE PUSH1 0x20 DUP2 ADD SWAP3 SWAP1 SWAP3 MSTORE PUSH32 0xE2C01B5758E9A0315E7C73EB6FF4D8F49DF76A7ADF97BDC252E685949E8D74A0 SWAP2 LOG2 PUSH1 0x1 PUSH1 0x0 SSTORE STOP JUMPDEST PUSH1 0x40 MLOAD PUSH3 0x461BCD PUSH1 0xE5 SHL DUP2 MSTORE PUSH1 0x20 PUSH1 0x4 DUP3 ADD MSTORE PUSH1 0x1B PUSH1 0x24 DUP3 ADD MSTORE PUSH32 0x496E76616C696420636F6E6669726D65642074696D657374616D700000000000 PUSH1 0x44 DUP3 ADD MSTORE PUSH1 0x64 SWAP1 REVERT JUMPDEST PUSH1 0x40 MLOAD PUSH3 0x461BCD PUSH1 0xE5 SHL DUP2 MSTORE PUSH1 0x20 PUSH1 0x4 DUP3 ADD MSTORE PUSH1 0x1A PUSH1 0x24 DUP3 ADD MSTORE PUSH32 0x4F6E6C79207265717565737465722063616E20636F6E6669726D000000000000 PUSH1 0x44 DUP3 ADD MSTORE PUSH1 0x64 SWAP1 REVERT JUMPDEST PUSH1 0x40 MLOAD PUSH3 0x461BCD PUSH1 0xE5 SHL DUP2 MSTORE PUSH1 0x20 PUSH1 0x4 DUP3 ADD MSTORE PUSH1 0x14 PUSH1 0x24 DUP3 ADD MSTORE PUSH20 0x109BDD5B9D1E481B9BDD081CDD589B5A5D1D1959 PUSH1 0x62 SHL PUSH1 0x44 DUP3 ADD MSTORE PUSH1 0x64 SWAP1 REVERT JUMPDEST CALLVALUE PUSH2 0x731 JUMPI PUSH1 0x20 DUP1 PUSH1 0x3 NOT CALLDATASIZE ADD SLT PUSH2 0x731 JUMPI PUSH1 0x1 PUSH1 0x1 PUSH1 0xA0 SHL SUB PUSH2 0x1DDC PUSH2 0x22A0 JUMP JUMPDEST AND PUSH1 0x0 MSTORE PUSH1 0x5 DUP2 MSTORE PUSH1 0x40 PUSH1 0x0 KECCAK256 SWAP1 PUSH1 0x40 MLOAD SWAP1 DUP2 DUP2 DUP5 SLOAD SWAP2 DUP3 DUP2 MSTORE ADD SWAP4 PUSH1 0x0 MSTORE DUP2 PUSH1 0x0 KECCAK256 SWAP2 PUSH1 0x0 SWAP1 JUMPDEST DUP3 DUP3 LT PUSH2 0x1E27 JUMPI PUSH2 0xEA0 DUP6 PUSH2 0x1E1B DUP2 DUP10 SUB DUP3 PUSH2 0x2331 JUMP JUMPDEST PUSH1 0x40 MLOAD SWAP2 DUP3 SWAP2 DUP3 PUSH2 0x2265 JUMP JUMPDEST DUP4 SLOAD DUP7 MSTORE SWAP5 DUP6 ADD SWAP5 PUSH1 0x1 SWAP4 DUP5 ADD SWAP4 SWAP1 SWAP2 ADD SWAP1 PUSH2 0x1E04 JUMP JUMPDEST CALLVALUE PUSH2 0x731 JUMPI PUSH1 0x20 DUP1 PUSH1 0x3 NOT CALLDATASIZE ADD SLT PUSH2 0x731 JUMPI PUSH1 0x4 CALLDATALOAD PUSH2 0x1E5B PUSH2 0x261E JUMP JUMPDEST DUP1 PUSH1 0x0 MSTORE PUSH1 0x3 DUP3 MSTORE PUSH1 0x40 PUSH1 0x0 KECCAK256 SWAP2 PUSH2 0x1E75 DUP4 SLOAD ISZERO ISZERO PUSH2 0x269D JUMP JUMPDEST PUSH1 0x7 DUP4 ADD DUP1 SLOAD SWAP1 PUSH1 0xFF DUP3 PUSH1 0xA0 SHR AND PUSH1 0x6 DUP2 LT ISZERO PUSH2 0x57B JUMPI PUSH1 0x3 SUB PUSH2 0x2090 JUMPI PUSH1 0x5 DUP6 ADD SWAP1 PUSH1 0x1 DUP1 PUSH1 0xA0 SHL SUB SWAP3 DUP4 DUP4 SLOAD AND SWAP2 DUP3 CALLER SUB PUSH2 0x2053 JUMPI PUSH1 0xD DUP9 ADD SLOAD TIMESTAMP LT PUSH2 0x200E JUMPI PUSH1 0xFF PUSH1 0xA0 SHL NOT DUP3 AND PUSH1 0x1 PUSH1 0xA2 SHL OR SWAP1 SSTORE TIMESTAMP PUSH1 0xE DUP9 ADD SSTORE DUP4 AND DUP1 PUSH2 0x1F71 JUMPI POP POP PUSH1 0x0 DUP1 DUP1 DUP1 DUP6 DUP6 SLOAD AND PUSH1 0x6 DUP11 ADD SLOAD SWAP1 GAS CALL PUSH2 0x1EEF PUSH2 0x26DC JUMP JUMPDEST POP ISZERO PUSH2 0x1F36 JUMPI SWAP2 PUSH1 0x6 PUSH1 0x40 SWAP3 PUSH32 0x2EEFA727CCED3362EFE12827696BBD9DF4926ABCE3C569DDAF6B9634AE1AF147 SWAP5 JUMPDEST SLOAD AND SWAP6 ADD SLOAD SWAP1 DUP3 MLOAD SWAP2 DUP3 MSTORE TIMESTAMP SWAP1 DUP3 ADD MSTORE LOG3 PUSH1 0x1 PUSH1 0x0 SSTORE STOP JUMPDEST PUSH1 0x40 MLOAD PUSH3 0x461BCD PUSH1 0xE5 SHL DUP2 MSTORE PUSH1 0x4 DUP2 ADD DUP5 SWAP1 MSTORE PUSH1 0x13 PUSH1 0x24 DUP3 ADD MSTORE PUSH19 0x115512081D1C985B9CD9995C8819985A5B1959 PUSH1 0x6A SHL PUSH1 0x44 DUP3 ADD MSTORE PUSH1 0x64 SWAP1 REVERT JUMPDEST PUSH1 0x6 DUP8 ADD SLOAD PUSH1 0x40 MLOAD PUSH4 0xA9059CBB PUSH1 0xE0 SHL DUP2 MSTORE PUSH1 0x1 PUSH1 0x1 PUSH1 0xA0 SHL SUB SWAP4 SWAP1 SWAP4 AND PUSH1 0x4 DUP5 ADD MSTORE PUSH1 0x24 DUP4 ADD MSTORE SWAP2 SWAP4 SWAP1 SWAP3 SWAP1 SWAP2 DUP3 SWAP1 DUP5 SWAP1 PUSH1 0x44 SWAP1 DUP3 SWAP1 PUSH1 0x0 SWAP1 GAS CALL SWAP1 DUP2 ISZERO PUSH2 0xC4F JUMPI PUSH32 0x2EEFA727CCED3362EFE12827696BBD9DF4926ABCE3C569DDAF6B9634AE1AF147 SWAP5 PUSH2 0x1FEC PUSH1 0x6 SWAP4 PUSH1 0x40 SWAP7 PUSH1 0x0 SWAP2 PUSH2 0x1FF1 JUMPI POP PUSH2 0x2659 JUMP JUMPDEST PUSH2 0x1F1E JUMP JUMPDEST PUSH2 0x2008 SWAP2 POP DUP7 RETURNDATASIZE DUP9 GT PUSH2 0xC48 JUMPI PUSH2 0xC3A DUP2 DUP4 PUSH2 0x2331 JUMP JUMPDEST DUP11 PUSH2 0x15D5 JUMP JUMPDEST PUSH1 0x40 MLOAD PUSH3 0x461BCD PUSH1 0xE5 SHL DUP2 MSTORE PUSH1 0x4 DUP2 ADD DUP8 SWAP1 MSTORE PUSH1 0x18 PUSH1 0x24 DUP3 ADD MSTORE PUSH32 0x436F6F6C696E6720706572696F64206E6F7420656E6465640000000000000000 PUSH1 0x44 DUP3 ADD MSTORE PUSH1 0x64 SWAP1 REVERT JUMPDEST PUSH1 0x40 MLOAD PUSH3 0x461BCD PUSH1 0xE5 SHL DUP2 MSTORE PUSH1 0x4 DUP2 ADD DUP8 SWAP1 MSTORE PUSH1 0x15 PUSH1 0x24 DUP3 ADD MSTORE PUSH21 0x4F6E6C7920776F726B65722063616E20636C61696D PUSH1 0x58 SHL PUSH1 0x44 DUP3 ADD MSTORE PUSH1 0x64 SWAP1 REVERT JUMPDEST PUSH1 0x40 MLOAD PUSH3 0x461BCD PUSH1 0xE5 SHL DUP2 MSTORE PUSH1 0x4 DUP2 ADD DUP5 SWAP1 MSTORE PUSH1 0x14 PUSH1 0x24 DUP3 ADD MSTORE PUSH20 0x109BDD5B9D1E481B9BDD0818DBDB999A5C9B5959 PUSH1 0x62 SHL PUSH1 0x44 DUP3 ADD MSTORE PUSH1 0x64 SWAP1 REVERT JUMPDEST CALLVALUE PUSH2 0x731 JUMPI PUSH1 0x20 DUP1 PUSH1 0x3 NOT CALLDATASIZE ADD SLT PUSH2 0x731 JUMPI PUSH1 0x1 PUSH1 0x1 PUSH1 0xA0 SHL SUB PUSH2 0x20EE PUSH2 0x22A0 JUMP JUMPDEST AND PUSH1 0x0 MSTORE PUSH1 0x6 DUP2 MSTORE PUSH1 0x40 PUSH1 0x0 KECCAK256 SWAP1 PUSH1 0x40 MLOAD SWAP1 DUP2 DUP2 DUP5 SLOAD SWAP2 DUP3 DUP2 MSTORE ADD SWAP4 PUSH1 0x0 MSTORE DUP2 PUSH1 0x0 KECCAK256 SWAP2 PUSH1 0x0 SWAP1 JUMPDEST DUP3 DUP3 LT PUSH2 0x212D JUMPI PUSH2 0xEA0 DUP6 PUSH2 0x1E1B DUP2 DUP10 SUB DUP3 PUSH2 0x2331 JUMP JUMPDEST DUP4 SLOAD DUP7 MSTORE SWAP5 DUP6 ADD SWAP5 PUSH1 0x1 SWAP4 DUP5 ADD SWAP4 SWAP1 SWAP2 ADD SWAP1 PUSH2 0x2116 JUMP JUMPDEST CALLVALUE PUSH2 0x731 JUMPI PUSH1 0x20 CALLDATASIZE PUSH1 0x3 NOT ADD SLT PUSH2 0x731 JUMPI PUSH1 0x4 CALLDATALOAD PUSH1 0x0 MSTORE PUSH1 0x4 PUSH1 0x20 MSTORE PUSH1 0x20 PUSH1 0x40 PUSH1 0x0 KECCAK256 SLOAD PUSH1 0x40 MLOAD SWAP1 DUP2 MSTORE RETURN JUMPDEST CALLVALUE PUSH2 0x731 JUMPI PUSH1 0x20 DUP1 PUSH1 0x3 NOT CALLDATASIZE ADD SLT PUSH2 0x731 JUMPI PUSH1 0x4 CALLDATALOAD SWAP1 PUSH1 0x6 SWAP1 DUP2 DUP4 LT ISZERO DUP1 PUSH2 0x731 JUMPI PUSH1 0x2 SLOAD SWAP2 PUSH1 0x0 PUSH1 0x1 JUMPDEST DUP5 DUP2 LT PUSH2 0x2216 JUMPI POP PUSH2 0x21AC SWAP1 PUSH2 0x2723 JUMP JUMPDEST SWAP4 PUSH1 0x0 SWAP2 PUSH1 0x1 JUMPDEST DUP6 DUP2 LT PUSH2 0x21C8 JUMPI PUSH1 0x40 MLOAD DUP1 PUSH2 0xEA0 DUP10 DUP3 PUSH2 0x2265 JUMP JUMPDEST DUP1 DUP6 SWAP2 PUSH1 0x0 MSTORE PUSH1 0x3 DUP4 MSTORE PUSH1 0xFF PUSH1 0x7 PUSH1 0x40 PUSH1 0x0 KECCAK256 ADD SLOAD PUSH1 0xA0 SHR AND SWAP2 PUSH2 0x57B JUMPI DUP4 DUP3 LT ISZERO PUSH2 0x57B JUMPI DUP9 PUSH2 0x21FD SWAP3 EQ PUSH2 0x2202 JUMPI PUSH2 0x25B1 JUMP JUMPDEST PUSH2 0x21B3 JUMP JUMPDEST DUP1 PUSH2 0xEC8 PUSH2 0x220F DUP8 PUSH2 0x25B1 JUMP JUMPDEST SWAP7 DUP11 PUSH2 0x2755 JUMP JUMPDEST DUP1 PUSH1 0x0 MSTORE PUSH1 0x3 DUP4 MSTORE DUP4 PUSH1 0xFF PUSH1 0x7 PUSH1 0x40 PUSH1 0x0 KECCAK256 ADD SLOAD PUSH1 0xA0 SHR AND SWAP1 PUSH2 0x57B JUMPI DUP7 DUP2 LT ISZERO PUSH2 0x57B JUMPI DUP8 EQ PUSH2 0x2250 JUMPI JUMPDEST PUSH2 0x224B SWAP1 PUSH2 0x25B1 JUMP JUMPDEST PUSH2 0x219B JUMP JUMPDEST SWAP1 PUSH2 0x225D PUSH2 0x224B SWAP2 PUSH2 0x25B1 JUMP JUMPDEST SWAP2 SWAP1 POP PUSH2 0x2242 JUMP JUMPDEST PUSH1 0x20 SWAP1 DUP2 PUSH1 0x40 DUP2 DUP4 ADD SWAP3 DUP3 DUP2 MSTORE DUP6 MLOAD DUP1 SWAP5 MSTORE ADD SWAP4 ADD SWAP2 PUSH1 0x0 JUMPDEST DUP3 DUP2 LT PUSH2 0x228C JUMPI POP POP POP POP SWAP1 JUMP JUMPDEST DUP4 MLOAD DUP6 MSTORE SWAP4 DUP2 ADD SWAP4 SWAP3 DUP2 ADD SWAP3 PUSH1 0x1 ADD PUSH2 0x227E JUMP JUMPDEST PUSH1 0x4 CALLDATALOAD SWAP1 PUSH1 0x1 PUSH1 0x1 PUSH1 0xA0 SHL SUB DUP3 AND DUP3 SUB PUSH2 0x731 JUMPI JUMP JUMPDEST PUSH1 0x40 SWAP1 PUSH1 0x3 NOT ADD SLT PUSH2 0x731 JUMPI PUSH1 0x4 CALLDATALOAD SWAP1 PUSH1 0x24 CALLDATALOAD SWAP1 JUMP JUMPDEST DUP1 SLOAD DUP3 LT ISZERO PUSH2 0x22E4 JUMPI PUSH1 0x0 MSTORE PUSH1 0x20 PUSH1 0x0 KECCAK256 ADD SWAP1 PUSH1 0x0 SWAP1 JUMP JUMPDEST PUSH4 0x4E487B71 PUSH1 0xE0 SHL PUSH1 0x0 MSTORE PUSH1 0x32 PUSH1 0x4 MSTORE PUSH1 0x24 PUSH1 0x0 REVERT JUMPDEST PUSH2 0x200 DUP2 ADD SWAP1 DUP2 LT PUSH1 0x1 PUSH1 0x1 PUSH1 0x40 SHL SUB DUP3 GT OR PUSH2 0x565 JUMPI PUSH1 0x40 MSTORE JUMP JUMPDEST PUSH1 0x20 DUP2 ADD SWAP1 DUP2 LT PUSH1 0x1 PUSH1 0x1 PUSH1 0x40 SHL SUB DUP3 GT OR PUSH2 0x565 JUMPI PUSH1 0x40 MSTORE JUMP JUMPDEST SWAP1 PUSH1 0x1F DUP1 NOT SWAP2 ADD AND DUP2 ADD SWAP1 DUP2 LT PUSH1 0x1 PUSH1 0x1 PUSH1 0x40 SHL SUB DUP3 GT OR PUSH2 0x565 JUMPI PUSH1 0x40 MSTORE JUMP JUMPDEST PUSH1 0x1 PUSH1 0x1 PUSH1 0x40 SHL SUB DUP2 GT PUSH2 0x565 JUMPI PUSH1 0x1F ADD PUSH1 0x1F NOT AND PUSH1 0x20 ADD SWAP1 JUMP JUMPDEST DUP2 PUSH1 0x1F DUP3 ADD SLT ISZERO PUSH2 0x731 JUMPI DUP1 CALLDATALOAD SWAP1 PUSH2 0x2384 DUP3 PUSH2 0x2352 JUMP JUMPDEST SWAP3 PUSH2 0x2392 PUSH1 0x40 MLOAD SWAP5 DUP6 PUSH2 0x2331 JUMP JUMPDEST DUP3 DUP5 MSTORE PUSH1 0x20 DUP4 DUP4 ADD ADD GT PUSH2 0x731 JUMPI DUP2 PUSH1 0x0 SWAP3 PUSH1 0x20 DUP1 SWAP4 ADD DUP4 DUP7 ADD CALLDATACOPY DUP4 ADD ADD MSTORE SWAP1 JUMP JUMPDEST SWAP1 PUSH1 0x1 DUP3 DUP2 SHR SWAP3 AND DUP1 ISZERO PUSH2 0x23E4 JUMPI JUMPDEST PUSH1 0x20 DUP4 LT EQ PUSH2 0x23CE JUMPI JUMP JUMPDEST PUSH4 0x4E487B71 PUSH1 0xE0 SHL PUSH1 0x0 MSTORE PUSH1 0x22 PUSH1 0x4 MSTORE PUSH1 0x24 PUSH1 0x0 REVERT JUMPDEST SWAP2 PUSH1 0x7F AND SWAP2 PUSH2 0x23C3 JUMP JUMPDEST SWAP1 PUSH1 0x40 MLOAD SWAP2 DUP3 PUSH1 0x0 DUP3 SLOAD SWAP3 PUSH2 0x2402 DUP5 PUSH2 0x23B4 JUMP JUMPDEST SWAP1 DUP2 DUP5 MSTORE PUSH1 0x1 SWAP5 DUP6 DUP2 AND SWAP1 DUP2 PUSH1 0x0 EQ PUSH2 0x2471 JUMPI POP PUSH1 0x1 EQ PUSH2 0x242E JUMPI JUMPDEST POP POP PUSH2 0x242C SWAP3 POP SUB DUP4 PUSH2 0x2331 JUMP JUMPDEST JUMP JUMPDEST SWAP1 SWAP4 SWAP2 POP PUSH1 0x0 MSTORE PUSH1 0x20 SWAP1 DUP2 PUSH1 0x0 KECCAK256 SWAP4 PUSH1 0x0 SWAP2 JUMPDEST DUP2 DUP4 LT PUSH2 0x2459 JUMPI POP POP PUSH2 0x242C SWAP4 POP DUP3 ADD ADD CODESIZE DUP1 PUSH2 0x241E JUMP JUMPDEST DUP6 SLOAD DUP9 DUP5 ADD DUP6 ADD MSTORE SWAP5 DUP6 ADD SWAP5 DUP8 SWAP5 POP SWAP2 DUP4 ADD SWAP2 PUSH2 0x2441 JUMP JUMPDEST SWAP2 POP POP PUSH2 0x242C SWAP5 POP PUSH1 0x20 SWAP3 POP PUSH1 0xFF NOT AND DUP3 DUP5 ADD MSTORE ISZERO ISZERO PUSH1 0x5 SHL DUP3 ADD ADD CODESIZE DUP1 PUSH2 0x241E JUMP JUMPDEST SWAP2 SWAP1 DUP3 MLOAD SWAP3 DUP4 DUP3 MSTORE PUSH1 0x0 JUMPDEST DUP5 DUP2 LT PUSH2 0x24C0 JUMPI POP POP DUP3 PUSH1 0x0 PUSH1 0x20 DUP1 SWAP5 SWAP6 DUP5 ADD ADD MSTORE PUSH1 0x1F DUP1 NOT SWAP2 ADD AND ADD ADD SWAP1 JUMP JUMPDEST PUSH1 0x20 DUP2 DUP4 ADD DUP2 ADD MLOAD DUP5 DUP4 ADD DUP3 ADD MSTORE ADD PUSH2 0x249F JUMP JUMPDEST SWAP1 PUSH1 0x6 DUP3 LT ISZERO PUSH2 0x57B JUMPI MSTORE JUMP JUMPDEST PUSH1 0x1 SLOAD PUSH1 0x1 PUSH1 0x1 PUSH1 0xA0 SHL SUB AND CALLER SUB PUSH2 0x24F5 JUMPI JUMP JUMPDEST PUSH1 0x40 MLOAD PUSH4 0x118CDAA7 PUSH1 0xE0 SHL DUP2 MSTORE CALLER PUSH1 0x4 DUP3 ADD MSTORE PUSH1 0x24 SWAP1 REVERT JUMPDEST ISZERO PUSH2 0x2514 JUMPI JUMP JUMPDEST PUSH1 0x40 MLOAD PUSH3 0x461BCD PUSH1 0xE5 SHL DUP2 MSTORE PUSH1 0x20 PUSH1 0x4 DUP3 ADD MSTORE PUSH1 0x1D PUSH1 0x24 DUP3 ADD MSTORE PUSH32 0x416D6F756E74206D7573742062652067726561746572207468616E2030000000 PUSH1 0x44 DUP3 ADD MSTORE PUSH1 0x64 SWAP1 REVERT JUMPDEST ISZERO PUSH2 0x2560 JUMPI JUMP JUMPDEST PUSH1 0x40 MLOAD PUSH3 0x461BCD PUSH1 0xE5 SHL DUP2 MSTORE PUSH1 0x20 PUSH1 0x4 DUP3 ADD MSTORE PUSH1 0x23 PUSH1 0x24 DUP3 ADD MSTORE PUSH32 0x426F756E747920616C72656164792065786973747320666F7220746869732074 PUSH1 0x44 DUP3 ADD MSTORE PUSH3 0x61736B PUSH1 0xE8 SHL PUSH1 0x64 DUP3 ADD MSTORE PUSH1 0x84 SWAP1 REVERT JUMPDEST PUSH1 0x0 NOT DUP2 EQ PUSH2 0xED3 JUMPI PUSH1 0x1 ADD SWAP1 JUMP JUMPDEST SWAP1 PUSH1 0x6 DUP2 LT ISZERO PUSH2 0x57B JUMPI DUP2 SLOAD PUSH1 0xFF PUSH1 0xA0 SHL NOT AND PUSH1 0xA0 SWAP2 SWAP1 SWAP2 SHL PUSH1 0xFF PUSH1 0xA0 SHL AND OR SWAP1 SSTORE JUMP JUMPDEST DUP1 SLOAD PUSH9 0x10000000000000000 DUP2 LT ISZERO PUSH2 0x565 JUMPI PUSH2 0x2606 SWAP2 PUSH1 0x1 DUP3 ADD DUP2 SSTORE PUSH2 0x22CC JUMP JUMPDEST DUP2 SWAP3 SWAP2 SLOAD SWAP1 PUSH1 0x3 SHL SWAP2 DUP3 SHL SWAP2 PUSH1 0x0 NOT SWAP1 SHL NOT AND OR SWAP1 SSTORE JUMP JUMPDEST PUSH1 0x2 PUSH1 0x0 SLOAD EQ PUSH2 0x262F JUMPI PUSH1 0x2 PUSH1 0x0 SSTORE JUMP JUMPDEST PUSH1 0x40 MLOAD PUSH4 0x3EE5AEB5 PUSH1 0xE0 SHL DUP2 MSTORE PUSH1 0x4 SWAP1 REVERT JUMPDEST SWAP1 DUP2 PUSH1 0x20 SWAP2 SUB SLT PUSH2 0x731 JUMPI MLOAD DUP1 ISZERO ISZERO DUP2 SUB PUSH2 0x731 JUMPI SWAP1 JUMP JUMPDEST ISZERO PUSH2 0x2660 JUMPI JUMP JUMPDEST PUSH1 0x40 MLOAD PUSH3 0x461BCD PUSH1 0xE5 SHL DUP2 MSTORE PUSH1 0x20 PUSH1 0x4 DUP3 ADD MSTORE PUSH1 0x15 PUSH1 0x24 DUP3 ADD MSTORE PUSH21 0x151BDAD95B881D1C985B9CD9995C8819985A5B1959 PUSH1 0x5A SHL PUSH1 0x44 DUP3 ADD MSTORE PUSH1 0x64 SWAP1 REVERT JUMPDEST ISZERO PUSH2 0x26A4 JUMPI JUMP JUMPDEST PUSH1 0x40 MLOAD PUSH3 0x461BCD PUSH1 0xE5 SHL DUP2 MSTORE PUSH1 0x20 PUSH1 0x4 DUP3 ADD MSTORE PUSH1 0x10 PUSH1 0x24 DUP3 ADD MSTORE PUSH16 0x109BDD5B9D1E481B9BDD08199BDD5B99 PUSH1 0x82 SHL PUSH1 0x44 DUP3 ADD MSTORE PUSH1 0x64 SWAP1 REVERT JUMPDEST RETURNDATASIZE ISZERO PUSH2 0x2707 JUMPI RETURNDATASIZE SWAP1 PUSH2 0x26ED DUP3 PUSH2 0x2352 JUMP JUMPDEST SWAP2 PUSH2 0x26FB PUSH1 0x40 MLOAD SWAP4 DUP5 PUSH2 0x2331 JUMP JUMPDEST DUP3 MSTORE RETURNDATASIZE PUSH1 0x0 PUSH1 0x20 DUP5 ADD RETURNDATACOPY JUMP JUMPDEST PUSH1 0x60 SWAP1 JUMP JUMPDEST PUSH1 0x1 PUSH1 0x1 PUSH1 0x40 SHL SUB DUP2 GT PUSH2 0x565 JUMPI PUSH1 0x5 SHL PUSH1 0x20 ADD SWAP1 JUMP JUMPDEST SWAP1 PUSH2 0x272D DUP3 PUSH2 0x270C JUMP JUMPDEST PUSH2 0x273A PUSH1 0x40 MLOAD SWAP2 DUP3 PUSH2 0x2331 JUMP JUMPDEST DUP3 DUP2 MSTORE DUP1 SWAP3 PUSH2 0x274B PUSH1 0x1F NOT SWAP2 PUSH2 0x270C JUMP JUMPDEST ADD SWAP1 PUSH1 0x20 CALLDATASIZE SWAP2 ADD CALLDATACOPY JUMP JUMPDEST DUP1 MLOAD DUP3 LT ISZERO PUSH2 0x22E4 JUMPI PUSH1 0x20 SWAP2 PUSH1 0x5 SHL ADD ADD SWAP1 JUMP INVALID 0xCF 0xB2 EXP 0xDB 0xA8 0x27 DUP2 DUP10 SWAP12 PUSH17 0x4D711BDF1FB0F695B9656B9CD36E723AE5 0xEE 0xAA 0x23 SWAP15 0xD0 LOG2 PUSH5 0x6970667358 0x22 SLT KECCAK256 0xE8 SHL 0xBF 0x26 0xFB 0xCF PUSH30 0x4E58C4226FC28CB46BEDD01943C4FF21DACE397011FA45A46964736F6C63 NUMBER STOP ADDMOD EQ STOP CALLER "},"methodIdentifiers":{"COOLING_PERIOD()":"df288974","acceptBounty(uint256,address)":"8e438b75","bounties(uint256)":"dc2f8744","cancelBounty(uint256)":"e5e5dff1","claimBounty(uint256)":"44021ad7","confirmBounty(uint256,uint256)":"4a0bccd4","createBounty(string,bytes32,string)":"fdcf377f","createBountyWithToken(string,bytes32,string,address,uint256)":"6f068f87","getBountiesByRequester(address)":"493b242b","getBountiesByStatus(uint8)":"332710d4","getBountiesByWorker(address)":"3edc8d99","getBounty(uint256)":"ee8c4bbf","getBountyByTaskHash(bytes32)":"a4c0b37d","listBounties(uint256,uint256)":"c63c4cdd","owner()":"8da5cb5b","renounceOwnership()":"715018a6","requesterBounties(address,uint256)":"4f595244","submitBounty(uint256,string)":"b2b5df68","taskHashToBountyId(bytes32)":"35491a47","transferOwnership(address)":"f2fde38b","workerBounties(address,uint256)":"7577132a"}}}}}