{
  "_format": "hh-sol-artifact-1",
  "contractName": "BountyManager",
  "sourceName": "contracts/BountyManager.sol",
  "abi": [
    {
      "inputs": [],
      "stateMutability": "nonpayable",
      "type": "constructor"
    },
    {
      "inputs": [
        {
          "internalType": "address",
          "name": "owner",
          "type": "address"
        }
      ],
      "name": "OwnableInvalidOwner",
      "type": "error"
    },
    {
      "inputs": [
        {
          "internalType": "address",
          "name": "account",
          "type": "address"
        }
      ],
      "name": "OwnableUnauthorizedAccount",
      "type": "error"
    },
    {
      "inputs": [],
      "name": "ReentrancyGuardReentrantCall",
      "type": "error"
    },
    {
      "anonymous": false,
      "inputs": [
        {
          "indexed": true,
          "internalType": "uint256",
          "name": "bountyId",
          "type": "uint256"
        },
        {
          "indexed": true,
          "internalType": "address",
          "name": "worker",
          "type": "address"
        },
        {
          "indexed": false,
          "internalType": "uint256",
          "name": "acceptedAt",
          "type": "uint256"
        }
      ],
      "name": "BountyAccepted",
      "type": "event"
    },
    {
      "anonymous": false,
      "inputs": [
        {
          "indexed": true,
          "internalType": "uint256",
          "name": "bountyId",
          "type": "uint256"
        },
        {
          "indexed": true,
          "internalType": "address",
          "name": "requester",
          "type": "address"
        },
        {
          "indexed": false,
          "internalType": "uint256",
          "name": "cancelledAt",
          "type": "uint256"
        }
      ],
      "name": "BountyCancelled",
      "type": "event"
    },
    {
      "anonymous": false,
      "inputs": [
        {
          "indexed": true,
          "internalType": "uint256",
          "name": "bountyId",
          "type": "uint256"
        },
        {
          "indexed": true,
          "internalType": "address",
          "name": "worker",
          "type": "address"
        },
        {
          "indexed": false,
          "internalType": "uint256",
          "name": "amount",
          "type": "uint256"
        },
        {
          "indexed": false,
          "internalType": "uint256",
          "name": "claimedAt",
          "type": "uint256"
        }
      ],
      "name": "BountyClaimed",
      "type": "event"
    },
    {
      "anonymous": false,
      "inputs": [
        {
          "indexed": true,
          "internalType": "uint256",
          "name": "bountyId",
          "type": "uint256"
        },
        {
          "indexed": false,
          "internalType": "uint256",
          "name": "confirmedAt",
          "type": "uint256"
        }
      ],
      "name": "BountyConfirmed",
      "type": "event"
    },
    {
      "anonymous": false,
      "inputs": [
        {
          "indexed": true,
          "internalType": "uint256",
          "name": "bountyId",
          "type": "uint256"
        },
        {
          "indexed": false,
          "internalType": "string",
          "name": "taskId",
          "type": "string"
        },
        {
          "indexed": false,
          "internalType": "bytes32",
          "name": "taskHash",
          "type": "bytes32"
        },
        {
          "indexed": true,
          "internalType": "address",
          "name": "requester",
          "type": "address"
        },
        {
          "indexed": false,
          "internalType": "uint256",
          "name": "amount",
          "type": "uint256"
        },
        {
          "indexed": false,
          "internalType": "address",
          "name": "asset",
          "type": "address"
        }
      ],
      "name": "BountyCreated",
      "type": "event"
    },
    {
      "anonymous": false,
      "inputs": [
        {
          "indexed": true,
          "internalType": "uint256",
          "name": "bountyId",
          "type": "uint256"
        },
        {
          "indexed": false,
          "internalType": "string",
          "name": "submissionUrl",
          "type": "string"
        },
        {
          "indexed": false,
          "internalType": "uint256",
          "name": "submittedAt",
          "type": "uint256"
        }
      ],
      "name": "BountySubmitted",
      "type": "event"
    },
    {
      "anonymous": false,
      "inputs": [
        {
          "indexed": true,
          "internalType": "address",
          "name": "previousOwner",
          "type": "address"
        },
        {
          "indexed": true,
          "internalType": "address",
          "name": "newOwner",
          "type": "address"
        }
      ],
      "name": "OwnershipTransferred",
      "type": "event"
    },
    {
      "inputs": [
        {
          "internalType": "uint256",
          "name": "bountyId",
          "type": "uint256"
        },
        {
          "internalType": "address",
          "name": "worker",
          "type": "address"
        }
      ],
      "name": "acceptBounty",
      "outputs": [],
      "stateMutability": "nonpayable",
      "type": "function"
    },
    {
      "inputs": [
        {
          "internalType": "uint256",
          "name": "",
          "type": "uint256"
        }
      ],
      "name": "bounties",
      "outputs": [
        {
          "internalType": "uint256",
          "name": "bountyId",
          "type": "uint256"
        },
        {
          "internalType": "string",
          "name": "taskId",
          "type": "string"
        },
        {
          "internalType": "bytes32",
          "name": "taskHash",
          "type": "bytes32"
        },
        {
          "internalType": "address",
          "name": "requester",
          "type": "address"
        },
        {
          "internalType": "address",
          "name": "worker",
          "type": "address"
        },
        {
          "internalType": "uint256",
          "name": "amount",
          "type": "uint256"
        },
        {
          "internalType": "address",
          "name": "asset",
          "type": "address"
        },
        {
          "internalType": "enum BountyManager.BountyStatus",
          "name": "status",
          "type": "uint8"
        },
        {
          "internalType": "uint256",
          "name": "createdAt",
          "type": "uint256"
        },
        {
          "internalType": "uint256",
          "name": "acceptedAt",
          "type": "uint256"
        },
        {
          "internalType": "uint256",
          "name": "submittedAt",
          "type": "uint256"
        },
        {
          "internalType": "string",
          "name": "submissionUrl",
          "type": "string"
        },
        {
          "internalType": "uint256",
          "name": "confirmedAt",
          "type": "uint256"
        },
        {
          "internalType": "uint256",
          "name": "claimedAt",
          "type": "uint256"
        }
      ],
      "stateMutability": "view",
      "type": "function"
    },
    {
      "inputs": [
        {
          "internalType": "uint256",
          "name": "bountyId",
          "type": "uint256"
        }
      ],
      "name": "cancelBounty",
      "outputs": [],
      "stateMutability": "nonpayable",
      "type": "function"
    },
    {
      "inputs": [
        {
          "internalType": "uint256",
          "name": "bountyId",
          "type": "uint256"
        }
      ],
      "name": "claimBounty",
      "outputs": [],
      "stateMutability": "nonpayable",
      "type": "function"
    },
    {
      "inputs": [
        {
          "internalType": "uint256",
          "name": "bountyId",
          "type": "uint256"
        },
        {
          "internalType": "uint256",
          "name": "confirmedAt",
          "type": "uint256"
        }
      ],
      "name": "confirmBounty",
      "outputs": [],
      "stateMutability": "nonpayable",
      "type": "function"
    },
    {
      "inputs": [
        {
          "internalType": "string",
          "name": "taskId",
          "type": "string"
        },
        {
          "internalType": "bytes32",
          "name": "taskHash",
          "type": "bytes32"
        }
      ],
      "name": "createBounty",
      "outputs": [
        {
          "internalType": "uint256",
          "name": "",
          "type": "uint256"
        }
      ],
      "stateMutability": "payable",
      "type": "function"
    },
    {
      "inputs": [
        {
          "internalType": "string",
          "name": "taskId",
          "type": "string"
        },
        {
          "internalType": "bytes32",
          "name": "taskHash",
          "type": "bytes32"
        },
        {
          "internalType": "address",
          "name": "asset",
          "type": "address"
        },
        {
          "internalType": "uint256",
          "name": "amount",
          "type": "uint256"
        }
      ],
      "name": "createBountyWithToken",
      "outputs": [
        {
          "internalType": "uint256",
          "name": "",
          "type": "uint256"
        }
      ],
      "stateMutability": "nonpayable",
      "type": "function"
    },
    {
      "inputs": [
        {
          "internalType": "address",
          "name": "requester",
          "type": "address"
        }
      ],
      "name": "getBountiesByRequester",
      "outputs": [
        {
          "internalType": "uint256[]",
          "name": "",
          "type": "uint256[]"
        }
      ],
      "stateMutability": "view",
      "type": "function"
    },
    {
      "inputs": [
        {
          "internalType": "enum BountyManager.BountyStatus",
          "name": "status",
          "type": "uint8"
        }
      ],
      "name": "getBountiesByStatus",
      "outputs": [
        {
          "internalType": "uint256[]",
          "name": "",
          "type": "uint256[]"
        }
      ],
      "stateMutability": "view",
      "type": "function"
    },
    {
      "inputs": [
        {
          "internalType": "address",
          "name": "worker",
          "type": "address"
        }
      ],
      "name": "getBountiesByWorker",
      "outputs": [
        {
          "internalType": "uint256[]",
          "name": "",
          "type": "uint256[]"
        }
      ],
      "stateMutability": "view",
      "type": "function"
    },
    {
      "inputs": [
        {
          "internalType": "uint256",
          "name": "bountyId",
          "type": "uint256"
        }
      ],
      "name": "getBounty",
      "outputs": [
        {
          "components": [
            {
              "internalType": "uint256",
              "name": "bountyId",
              "type": "uint256"
            },
            {
              "internalType": "string",
              "name": "taskId",
              "type": "string"
            },
            {
              "internalType": "bytes32",
              "name": "taskHash",
              "type": "bytes32"
            },
            {
              "internalType": "address",
              "name": "requester",
              "type": "address"
            },
            {
              "internalType": "address",
              "name": "worker",
              "type": "address"
            },
            {
              "internalType": "uint256",
              "name": "amount",
              "type": "uint256"
            },
            {
              "internalType": "address",
              "name": "asset",
              "type": "address"
            },
            {
              "internalType": "enum BountyManager.BountyStatus",
              "name": "status",
              "type": "uint8"
            },
            {
              "internalType": "uint256",
              "name": "createdAt",
              "type": "uint256"
            },
            {
              "internalType": "uint256",
              "name": "acceptedAt",
              "type": "uint256"
            },
            {
              "internalType": "uint256",
              "name": "submittedAt",
              "type": "uint256"
            },
            {
              "internalType": "string",
              "name": "submissionUrl",
              "type": "string"
            },
            {
              "internalType": "uint256",
              "name": "confirmedAt",
              "type": "uint256"
            },
            {
              "internalType": "uint256",
              "name": "claimedAt",
              "type": "uint256"
            }
          ],
          "internalType": "struct BountyManager.Bounty",
          "name": "",
          "type": "tuple"
        }
      ],
      "stateMutability": "view",
      "type": "function"
    },
    {
      "inputs": [
        {
          "internalType": "bytes32",
          "name": "taskHash",
          "type": "bytes32"
        }
      ],
      "name": "getBountyByTaskHash",
      "outputs": [
        {
          "internalType": "bool",
          "name": "exists",
          "type": "bool"
        },
        {
          "internalType": "uint256",
          "name": "bountyId",
          "type": "uint256"
        }
      ],
      "stateMutability": "view",
      "type": "function"
    },
    {
      "inputs": [
        {
          "internalType": "uint256",
          "name": "offset",
          "type": "uint256"
        },
        {
          "internalType": "uint256",
          "name": "limit",
          "type": "uint256"
        }
      ],
      "name": "listBounties",
      "outputs": [
        {
          "internalType": "uint256[]",
          "name": "",
          "type": "uint256[]"
        }
      ],
      "stateMutability": "view",
      "type": "function"
    },
    {
      "inputs": [],
      "name": "owner",
      "outputs": [
        {
          "internalType": "address",
          "name": "",
          "type": "address"
        }
      ],
      "stateMutability": "view",
      "type": "function"
    },
    {
      "inputs": [],
      "name": "renounceOwnership",
      "outputs": [],
      "stateMutability": "nonpayable",
      "type": "function"
    },
    {
      "inputs": [
        {
          "internalType": "address",
          "name": "",
          "type": "address"
        },
        {
          "internalType": "uint256",
          "name": "",
          "type": "uint256"
        }
      ],
      "name": "requesterBounties",
      "outputs": [
        {
          "internalType": "uint256",
          "name": "",
          "type": "uint256"
        }
      ],
      "stateMutability": "view",
      "type": "function"
    },
    {
      "inputs": [
        {
          "internalType": "uint256",
          "name": "bountyId",
          "type": "uint256"
        },
        {
          "internalType": "string",
          "name": "submissionUrl",
          "type": "string"
        }
      ],
      "name": "submitBounty",
      "outputs": [],
      "stateMutability": "nonpayable",
      "type": "function"
    },
    {
      "inputs": [
        {
          "internalType": "bytes32",
          "name": "",
          "type": "bytes32"
        }
      ],
      "name": "taskHashToBountyId",
      "outputs": [
        {
          "internalType": "uint256",
          "name": "",
          "type": "uint256"
        }
      ],
      "stateMutability": "view",
      "type": "function"
    },
    {
      "inputs": [
        {
          "internalType": "address",
          "name": "newOwner",
          "type": "address"
        }
      ],
      "name": "transferOwnership",
      "outputs": [],
      "stateMutability": "nonpayable",
      "type": "function"
    },
    {
      "inputs": [
        {
          "internalType": "address",
          "name": "",
          "type": "address"
        },
        {
          "internalType": "uint256",
          "name": "",
          "type": "uint256"
        }
      ],
      "name": "workerBounties",
      "outputs": [
        {
          "internalType": "uint256",
          "name": "",
          "type": "uint256"
        }
      ],
      "stateMutability": "view",
      "type": "function"
    }
  ],
  "bytecode": "0x60808060405234610084576001600055331561006e5760018054336001600160a01b03198216811790925560405191906001600160a01b03167f8be0079c531659141344cd1fd0a4f28419497f9722a3daafe3b4186f6b6457e0600080a360016002556123bf908161008a8239f35b631e4fbdf760e01b815260006004820152602490fd5b600080fdfe6080604052600436101561001257600080fd5b60003560e01c8063332710d414611d8d57806335491a4714611d615780633edc8d9914611ce957806344021ad714611aab578063493b242b14611a275780634a0bccd4146118ad5780634f5952441461186357806350cf26d6146113de578063715018a6146113815780637577132a146113295780638da5cb5b146113005780638e438b7514611157578063a4c0b37d14611125578063b2b5df6814610e1a578063b48840911461086b578063c63c4cdd14610784578063dc2f874414610670578063e5e5dff1146103e9578063ee8c4bbf146101865763f2fde38b146100f857600080fd5b3461018157602036600319011261018157610111611ebb565b610119612100565b6001600160a01b0390811690811561016857600154826001600160601b0360a01b821617600155167f8be0079c531659141344cd1fd0a4f28419497f9722a3daafe3b4186f6b6457e0600080a3005b604051631e4fbdf760e01b815260006004820152602490fd5b600080fd5b346101815760203660031901126101815760043560006101a06040516101ab81611f15565b828152606060208201528260408201528260608201528260808201528260a08201528260c08201528260e0820152826101008201528261012082015282610140820152606061016082015282610180820152015280600052600360205261021860406000205415156122bc565b600052600360205260406000206040519061023282611f15565b805482526102426001820161200d565b60208301526002810154604083015260038101546001600160a01b039081166060840152600482015481166080840152600582015460a08085019190915260068084015492831660c08601529192919083901c60ff1610156103d35760ff600c9260a01c1660e08401526007810154610100840152600881015461012084015260098101546101408401526102d9600a820161200d565b610160840152600b81015461018084015201546101a0820152604051809160208252805160208301526101a06103bc61032360208401516101c060408701526101e08601906120b3565b6040840151606086015260018060a01b03606085015116608086015260018060a01b0360808501511660a086015260a084015160c086015260018060a01b0360c08501511660e086015261038060e08501516101008701906120f3565b610100840151610120860152610120840151610140860152610140840151610160860152610160840151601f19868303016101808701526120b3565b916101808101518285015201516101c08301520390f35b634e487b7160e01b600052602160045260246000fd5b34610181576020806003193601126101815760043561040661223d565b8060005260038252604060002061041f815415156122bc565b6006810180549160ff8360a01c1660068110156103d35761062b57600381019160018060a01b039384845416918233036105e65760ff60a01b198216600560a01b1790558691908516806104fe57505050600080808093600587875416910154905af161048a6122fb565b50156104c557907fb9670bf4f2273686f771c9ab65309436df5ed75afa63eefec8b67640d8bcf72c915b541692604051428152a36001600055005b60405162461bcd60e51b8152600481018590526011602482015270115512081c99599d5b990819985a5b1959607a1b6044820152606490fd5b6005939093015460405163a9059cbb60e01b81526001600160a01b03929092166004830152602482015291829060449082906000905af19081156105da576000916105ad575b501561057257907fb9670bf4f2273686f771c9ab65309436df5ed75afa63eefec8b67640d8bcf72c916104b4565b60405162461bcd60e51b8152600481018590526013602482015272151bdad95b881c99599d5b990819985a5b1959606a1b6044820152606490fd5b6105cd9150853d87116105d3575b6105c58183611f4e565b810190612260565b85610544565b503d6105bb565b6040513d6000823e3d90fd5b60405162461bcd60e51b815260048101899052601960248201527f4f6e6c79207265717565737465722063616e2063616e63656c000000000000006044820152606490fd5b60405162461bcd60e51b815260048101869052601b60248201527f43616e206f6e6c792063616e63656c206f70656e20626f756e747900000000006044820152606490fd5b3461018157602036600319011261018157600435600052600360205260406000208054600182016106a09061200d565b600283015460038401546004850154600586015460068701546007880154600889015460098a01549799976001600160a01b03968716979590961695939092906106ec600a8a0161200d565b96600b8a015499600c0154986040519c8d9c8d528c6101c06020819201528d01610715916120b3565b9760408d015260608c015260808b015260a08a0152600160a01b60019003811660c08a015260e089019060a01c60ff169061074f916120f3565b610100880152610120870152610140860152848103610160860152610773916120b3565b916101808401526101a08301520390f35b346101815761079236611ed1565b600254908183101561083057828203918211610813576000198201918211610813578082101561082957505b6107c781612343565b9160005b8281106107e457604051806107e08682611e80565b0390f35b8082019081831161081357600182018092116108135761080e916108088287612375565b526121d0565b6107cb565b634e487b7160e01b600052601160045260246000fd5b90506107be565b60405162461bcd60e51b81526020600482015260136024820152724f6666736574206f7574206f662072616e676560681b6044820152606490fd5b346101815760803660031901126101815760043567ffffffffffffffff81116101815761089c903690600401611f8c565b6044356001600160a01b0381168103610181576108b761223d565b6001600160a01b03811615610ddd576108d3606435151561212c565b60243560005260046020526108ed60406000205415612178565b6040516323b872dd60e01b815233600482015230602482015260648035604483015260209082908160006001600160a01b0387165af180156105da5761093b91600091610dbe575b50612278565b60025490610948826121d0565b60025560405161095781611f15565b82815283602082015260243560408201523360608201526000608082015260643560a082015260018060a01b03821660c0820152600060e082015242610100820152600061012082015260006101408201526040516109b581611f32565b60008152610160820152600061018082015260006101a0820152826000526003602052604060002081518155602082015180519067ffffffffffffffff8211610cd8578190610a076001850154611fd3565b601f8111610d6b575b50602090601f8311600114610cf957600092610cee575b50508160011b916000199060031b1c19161760018201555b6040820151600282015560608201516003820180546001600160a01b03199081166001600160a01b03938416179091556080840151600484018054831691841691909117905560a0840151600584015560c0840151600680850180549093169190931617815560e084015190918110156103d357610abc916121df565b6101008201516007820155610120820151600882015561014082015160098201556101608201519182519267ffffffffffffffff8411610cd857610b03600a840154611fd3565b601f8111610c91575b50916020969186938890601f8711600114610bf75791867f29a544661c4d2ccca2cf368e0752de52b8f5c31bf823c8da200a4c06b6137a9096976101a093600c95600092610bec575b50508160011b916000199060031b1c191617600a8501555b610180810151600b850155015191015560243560005260048652826040600020553360005260058652610ba4836040600020612203565b610bb9604051916080835260808301906120b3565b6024358288015260643560408301526001600160a01b039094166060820152339381900390a36001600055604051908152f35b015190508c80610b55565b9590600a8401600052896000209660005b601f1984168110610c775750827f29a544661c4d2ccca2cf368e0752de52b8f5c31bf823c8da200a4c06b6137a909798600c95936001936101a096601f19811610610c5e575b505050811b01600a850155610b6d565b015160001960f88460031b161c191690558c8080610c4e565b8282015189556001909801978a9750918b01918b01610c08565b600a84016000526020600020601f860160051c810160208710610cd1575b601f830160051c82018110610cc5575050610b0c565b60008155600101610caf565b5080610caf565b634e487b7160e01b600052604160045260246000fd5b015190508780610a27565b9250600184016000526020600020906000935b601f1984168510610d50576001945083601f19811610610d37575b505050811b016001820155610a3f565b015160001960f88460031b161c19169055878080610d27565b81810151835560209485019460019093019290910190610d0c565b909150600184016000526020600020601f840160051c810160208510610db7575b90849392915b601f830160051c82018110610da8575050610a10565b60008155859450600101610d92565b5080610d8c565b610dd7915060203d6020116105d3576105c58183611f4e565b84610935565b60405162461bcd60e51b8152602060048201526015602482015274496e76616c696420746f6b656e206164647265737360581b6044820152606490fd5b346101815760403660031901126101815767ffffffffffffffff6004356024803583811161018157610e50903690600401611f8c565b90610e5961223d565b8260005260209060038252604060002094610e76865415156122bc565b600686019586549660ff8860a01c169760068910156111105760018099036110d65760048301546001600160a01b03163303611099578651156110555760ff60a01b1916600160a11b1790554260098201558451600a9190910192909182116110415750610ee48254611fd3565b601f8111610ff8575b5082601f8211600114610f6c579181610f5394927f15feca2794848feb9e2ebb4a4a286dddbf20f7a2c1508e117799dab6e7ff89569694600091610f61575b50600019600383901b1c191690881b1790555b6040519283926040845260408401906120b3565b9042908301520390a2600055005b905084015189610f2c565b908691601f1982169084600052856000209160005b818110610fe157509183917f15feca2794848feb9e2ebb4a4a286dddbf20f7a2c1508e117799dab6e7ff8956989694610f5398969410610fc8575b5050811b019055610f3f565b86015160001960f88460031b161c191690558980610fbc565b8883015184558a9590930192918701918701610f81565b8260005283600020601f830160051c810191858410611037575b601f0160051c019087905b82811061102b575050610eed565b6000815501879061101d565b9091508190611012565b634e487b7160e01b60009081526041600452fd5b60405162461bcd60e51b8152600481018790526017818701527f5375626d697373696f6e2055524c2072657175697265640000000000000000006044820152606490fd5b60405162461bcd60e51b8152600481018790526016818701527513db9b1e481ddbdc9ad95c8818d85b881cdd589b5a5d60521b6044820152606490fd5b60405162461bcd60e51b81526004810187905260138187015272109bdd5b9d1e481b9bdd081858d8d95c1d1959606a1b6044820152606490fd5b84634e487b7160e01b60005260216004526000fd5b346101815760203660031901126101815760043560005260046020526040806000205481519080151582526020820152f35b34610181576040366003190112610181576001600160a01b0360243581811690600435908290036101815761118a61223d565b8060005260206003815260406000206111a5815415156122bc565b6006810180549560ff8760a01c1660068110156103d3576112c9576003830154163303611284578415611246577f4aa9d087bda72ed5e9f18284fbda4e853a8b279176f1805c7155872fbc1258e693949560048301876001600160601b0360a01b825416179055600160a01b9060ff60a01b19161790556008429101558360005260068152611238836040600020612203565b604051428152a36001600055005b60405162461bcd60e51b8152600481018490526016602482015275496e76616c696420776f726b6572206164647265737360501b6044820152606490fd5b60405162461bcd60e51b815260048101849052601960248201527f4f6e6c79207265717565737465722063616e20616363657074000000000000006044820152606490fd5b60405162461bcd60e51b815260048101859052600f60248201526e2137bab73a3c903737ba1037b832b760891b6044820152606490fd5b34610181576000366003190112610181576001546040516001600160a01b039091168152602090f35b3461018157604036600319011261018157611342611ebb565b6001600160a01b03166000908152600660205260409020805460243591908210156101815760209161137391611ee7565b90546040519160031b1c8152f35b346101815760003660031901126101815761139a612100565b600180546001600160a01b031981169091556000906001600160a01b03167f8be0079c531659141344cd1fd0a4f28419497f9722a3daafe3b4186f6b6457e08280a3005b60403660031901126101815760043567ffffffffffffffff81116101815761140a903690600401611f8c565b61141261223d565b61141d34151561212c565b602435600052600460205261143760406000205415612178565b600254611443816121d0565b6002556040519161145383611f15565b8183528060208401526024356040840152336060840152600060808401523460a0840152600060c0840152600060e084015242610100840152600061012084015260006101408401526040516114a881611f32565b60008152610160840152600061018084015260006101a0840152816000526003602052604060002083518155602084015180519067ffffffffffffffff8211610cd85781906114fa6001850154611fd3565b601f8111611810575b50602090601f831160011461179e57600092611793575b50508160011b916000199060031b1c19161760018201555b604084015160028201556003810160018060a01b039081606087015116906001600160601b0360a01b918282541617905560048301826080880151168282541617905560a08601516005840155600683019160c0870151169082541617815560e085015160068110156103d3576115a8916121df565b61010084015160078201556101208401516008820155610140840151600982015561016084015193845167ffffffffffffffff8111610cd8576115ee600a840154611fd3565b95601f8711611748575b602096508690601f83116001146116d4579180600c94926101a0946000926116c9575b50508160011b916000199060031b1c191617600a8501555b610180810151600b85015501519101556024356000526004835281604060002055336000526005835261166a826040600020612203565b817f29a544661c4d2ccca2cf368e0752de52b8f5c31bf823c8da200a4c06b6137a906116a1604051936080855260808501906120b3565b9260243586820152346040820152600060608201528033940390a36001600055604051908152f35b01519050898061161b565b90600a8501600052876000209160005b601f1985168110611731575092600c94926001926101a09583601f19811610611718575b505050811b01600a850155611633565b015160001960f88460031b161c19169055898080611708565b9192896001819286850151815501940192016116e4565b600a84016000526020600020601f830160051c81019760208410611789575b601f0160051c01965b87811061177d57506115f8565b60008155600101611770565b9097508790611767565b01519050868061151a565b9250600184016000526020600020906000935b601f19841685106117f5576001945083601f198116106117dc575b505050811b016001820155611532565b015160001960f88460031b161c191690558680806117cc565b818101518355602094850194600190930192909101906117b1565b909150600184016000526020600020601f840160051c81016020851061185c575b90849392915b601f830160051c8201811061184d575050611503565b60008155859450600101611837565b5080611831565b346101815760403660031901126101815761187c611ebb565b6001600160a01b03166000908152600560205260409020805460243591908210156101815760209161137391611ee7565b34610181576118bb36611ed1565b6118c361223d565b81600052600360205260406000206118dd815415156122bc565b600681019182549260ff8460a01c1660068110156103d3576002036119eb5760038301546001600160a01b031633036119a65781156119615760ff60a01b19909316600360a01b17909255600b018190556040519081527f9e8a889cc03f3e5f61b036354851885a53cf3edb3980aa392b7770314067bed890602090a26001600055005b60405162461bcd60e51b815260206004820152601b60248201527f496e76616c696420636f6e6669726d65642074696d657374616d7000000000006044820152606490fd5b60405162461bcd60e51b815260206004820152601a60248201527f4f6e6c79207265717565737465722063616e20636f6e6669726d0000000000006044820152606490fd5b60405162461bcd60e51b8152602060048201526014602482015273109bdd5b9d1e481b9bdd081cdd589b5a5d1d195960621b6044820152606490fd5b3461018157602080600319360112610181576001600160a01b03611a49611ebb565b1660005260058152604060002090604051908181845491828152019360005281600020916000905b828210611a94576107e085611a8881890382611f4e565b60405191829182611e80565b835486529485019460019384019390910190611a71565b346101815760208060031936011261018157600435611ac861223d565b8060005260038252604060002091611ae2835415156122bc565b6006830180549060ff8260a01c1660068110156103d357600303611cad57600485019060018060a01b03928383541691823303611c705760ff60a01b198216600160a21b17905542600c880155831680611bd357505060008080808585541660058a0154905af1611b516122fb565b5015611b98579160056040927f2eefa727cced3362efe12827696bbd9df4926abce3c569ddaf6b9634ae1af147945b54169501549082519182524290820152a36001600055005b60405162461bcd60e51b8152600481018490526013602482015272115512081d1c985b9cd9995c8819985a5b1959606a1b6044820152606490fd5b600587015460405163a9059cbb60e01b81526001600160a01b0393909316600484015260248301529193909290918290849060449082906000905af19081156105da577f2eefa727cced3362efe12827696bbd9df4926abce3c569ddaf6b9634ae1af14794611c4e600593604096600091611c535750612278565b611b80565b611c6a9150863d88116105d3576105c58183611f4e565b8a610935565b60405162461bcd60e51b81526004810187905260156024820152744f6e6c7920776f726b65722063616e20636c61696d60581b6044820152606490fd5b60405162461bcd60e51b8152600481018490526014602482015273109bdd5b9d1e481b9bdd0818dbdb999a5c9b595960621b6044820152606490fd5b3461018157602080600319360112610181576001600160a01b03611d0b611ebb565b1660005260068152604060002090604051908181845491828152019360005281600020916000905b828210611d4a576107e085611a8881890382611f4e565b835486529485019460019384019390910190611d33565b346101815760203660031901126101815760043560005260046020526020604060002054604051908152f35b3461018157602080600319360112610181576004359060069081831015806101815760025491600060015b848110611e325750611dc990612343565b9360009160015b858110611de557604051806107e08982611e80565b8085916000526003835260ff846040600020015460a01c16916103d357838210156103d35788611e199214611e1e576121d0565b611dd0565b80610808611e2b876121d0565b968a612375565b80600052600383528360ff876040600020015460a01c16906103d357868110156103d3578714611e6b575b611e66906121d0565b611db8565b90611e78611e66916121d0565b919050611e5d565b6020908160408183019282815285518094520193019160005b828110611ea7575050505090565b835185529381019392810192600101611e99565b600435906001600160a01b038216820361018157565b6040906003190112610181576004359060243590565b8054821015611eff5760005260206000200190600090565b634e487b7160e01b600052603260045260246000fd5b6101c0810190811067ffffffffffffffff821117610cd857604052565b6020810190811067ffffffffffffffff821117610cd857604052565b90601f8019910116810190811067ffffffffffffffff821117610cd857604052565b67ffffffffffffffff8111610cd857601f01601f191660200190565b81601f8201121561018157803590611fa382611f70565b92611fb16040519485611f4e565b8284526020838301011161018157816000926020809301838601378301015290565b90600182811c92168015612003575b6020831014611fed57565b634e487b7160e01b600052602260045260246000fd5b91607f1691611fe2565b906040519182600082549261202184611fd3565b908184526001948581169081600014612090575060011461204d575b505061204b92500383611f4e565b565b9093915060005260209081600020936000915b81831061207857505061204b9350820101388061203d565b85548884018501529485019487945091830191612060565b91505061204b94506020925060ff191682840152151560051b820101388061203d565b919082519283825260005b8481106120df575050826000602080949584010152601f8019910116010190565b6020818301810151848301820152016120be565b9060068210156103d35752565b6001546001600160a01b0316330361211457565b60405163118cdaa760e01b8152336004820152602490fd5b1561213357565b60405162461bcd60e51b815260206004820152601d60248201527f416d6f756e74206d7573742062652067726561746572207468616e20300000006044820152606490fd5b1561217f57565b60405162461bcd60e51b815260206004820152602360248201527f426f756e747920616c72656164792065786973747320666f722074686973207460448201526261736b60e81b6064820152608490fd5b60001981146108135760010190565b9060068110156103d357815460ff60a01b191660a09190911b60ff60a01b16179055565b805468010000000000000000811015610cd85761222591600182018155611ee7565b819291549060031b91821b91600019901b1916179055565b60026000541461224e576002600055565b604051633ee5aeb560e01b8152600490fd5b90816020910312610181575180151581036101815790565b1561227f57565b60405162461bcd60e51b8152602060048201526015602482015274151bdad95b881d1c985b9cd9995c8819985a5b1959605a1b6044820152606490fd5b156122c357565b60405162461bcd60e51b815260206004820152601060248201526f109bdd5b9d1e481b9bdd08199bdd5b9960821b6044820152606490fd5b3d15612326573d9061230c82611f70565b9161231a6040519384611f4e565b82523d6000602084013e565b606090565b67ffffffffffffffff8111610cd85760051b60200190565b9061234d8261232b565b61235a6040519182611f4e565b828152809261236b601f199161232b565b0190602036910137565b8051821015611eff5760209160051b01019056fea2646970667358221220e948634cb9078efc8dcd94433ed7f2befecf9591996fbae25512992f80a50edc64736f6c63430008140033",
  "linkReferences": {},
  "deployedLinkReferences": {}
}