{
  "_format": "hh-sol-artifact-1",
  "contractName": "BountyManager",
  "sourceName": "contracts/BountyManager.sol",
  "abi": [
    {
      "inputs": [],
      "stateMutability": "nonpayable",
      "type": "constructor"
    },
    {
      "inputs": [
        {
          "internalType": "address",
          "name": "owner",
          "type": "address"
        }
      ],
      "name": "OwnableInvalidOwner",
      "type": "error"
    },
    {
      "inputs": [
        {
          "internalType": "address",
          "name": "account",
          "type": "address"
        }
      ],
      "name": "OwnableUnauthorizedAccount",
      "type": "error"
    },
    {
      "inputs": [],
      "name": "ReentrancyGuardReentrantCall",
      "type": "error"
    },
    {
      "anonymous": false,
      "inputs": [
        {
          "indexed": true,
          "internalType": "uint256",
          "name": "bountyId",
          "type": "uint256"
        },
        {
          "indexed": true,
          "internalType": "address",
          "name": "worker",
          "type": "address"
        },
        {
          "indexed": false,
          "internalType": "uint256",
          "name": "acceptedAt",
          "type": "uint256"
        }
      ],
      "name": "BountyAccepted",
      "type": "event"
    },
    {
      "anonymous": false,
      "inputs": [
        {
          "indexed": true,
          "internalType": "uint256",
          "name": "bountyId",
          "type": "uint256"
        },
        {
          "indexed": true,
          "internalType": "address",
          "name": "requester",
          "type": "address"
        },
        {
          "indexed": false,
          "internalType": "uint256",
          "name": "cancelledAt",
          "type": "uint256"
        }
      ],
      "name": "BountyCancelled",
      "type": "event"
    },
    {
      "anonymous": false,
      "inputs": [
        {
          "indexed": true,
          "internalType": "uint256",
          "name": "bountyId",
          "type": "uint256"
        },
        {
          "indexed": true,
          "internalType": "address",
          "name": "worker",
          "type": "address"
        },
        {
          "indexed": false,
          "internalType": "uint256",
          "name": "amount",
          "type": "uint256"
        },
        {
          "indexed": false,
          "internalType": "uint256",
          "name": "claimedAt",
          "type": "uint256"
        }
      ],
      "name": "BountyClaimed",
      "type": "event"
    },
    {
      "anonymous": false,
      "inputs": [
        {
          "indexed": true,
          "internalType": "uint256",
          "name": "bountyId",
          "type": "uint256"
        },
        {
          "indexed": false,
          "internalType": "uint256",
          "name": "confirmedAt",
          "type": "uint256"
        },
        {
          "indexed": false,
          "internalType": "uint256",
          "name": "coolingUntil",
          "type": "uint256"
        }
      ],
      "name": "BountyConfirmed",
      "type": "event"
    },
    {
      "anonymous": false,
      "inputs": [
        {
          "indexed": true,
          "internalType": "uint256",
          "name": "bountyId",
          "type": "uint256"
        },
        {
          "indexed": false,
          "internalType": "string",
          "name": "taskId",
          "type": "string"
        },
        {
          "indexed": false,
          "internalType": "bytes32",
          "name": "taskHash",
          "type": "bytes32"
        },
        {
          "indexed": true,
          "internalType": "address",
          "name": "requester",
          "type": "address"
        },
        {
          "indexed": false,
          "internalType": "uint256",
          "name": "amount",
          "type": "uint256"
        },
        {
          "indexed": false,
          "internalType": "address",
          "name": "asset",
          "type": "address"
        }
      ],
      "name": "BountyCreated",
      "type": "event"
    },
    {
      "anonymous": false,
      "inputs": [
        {
          "indexed": true,
          "internalType": "uint256",
          "name": "bountyId",
          "type": "uint256"
        },
        {
          "indexed": false,
          "internalType": "string",
          "name": "submissionUrl",
          "type": "string"
        },
        {
          "indexed": false,
          "internalType": "uint256",
          "name": "submittedAt",
          "type": "uint256"
        }
      ],
      "name": "BountySubmitted",
      "type": "event"
    },
    {
      "anonymous": false,
      "inputs": [
        {
          "indexed": true,
          "internalType": "address",
          "name": "previousOwner",
          "type": "address"
        },
        {
          "indexed": true,
          "internalType": "address",
          "name": "newOwner",
          "type": "address"
        }
      ],
      "name": "OwnershipTransferred",
      "type": "event"
    },
    {
      "inputs": [],
      "name": "COOLING_PERIOD",
      "outputs": [
        {
          "internalType": "uint256",
          "name": "",
          "type": "uint256"
        }
      ],
      "stateMutability": "view",
      "type": "function"
    },
    {
      "inputs": [
        {
          "internalType": "uint256",
          "name": "bountyId",
          "type": "uint256"
        },
        {
          "internalType": "address",
          "name": "worker",
          "type": "address"
        }
      ],
      "name": "acceptBounty",
      "outputs": [],
      "stateMutability": "nonpayable",
      "type": "function"
    },
    {
      "inputs": [
        {
          "internalType": "uint256",
          "name": "",
          "type": "uint256"
        }
      ],
      "name": "bounties",
      "outputs": [
        {
          "internalType": "uint256",
          "name": "bountyId",
          "type": "uint256"
        },
        {
          "internalType": "string",
          "name": "taskId",
          "type": "string"
        },
        {
          "internalType": "bytes32",
          "name": "taskHash",
          "type": "bytes32"
        },
        {
          "internalType": "address",
          "name": "requester",
          "type": "address"
        },
        {
          "internalType": "address",
          "name": "worker",
          "type": "address"
        },
        {
          "internalType": "uint256",
          "name": "amount",
          "type": "uint256"
        },
        {
          "internalType": "address",
          "name": "asset",
          "type": "address"
        },
        {
          "internalType": "enum BountyManager.BountyStatus",
          "name": "status",
          "type": "uint8"
        },
        {
          "internalType": "uint256",
          "name": "createdAt",
          "type": "uint256"
        },
        {
          "internalType": "uint256",
          "name": "acceptedAt",
          "type": "uint256"
        },
        {
          "internalType": "uint256",
          "name": "submittedAt",
          "type": "uint256"
        },
        {
          "internalType": "string",
          "name": "submissionUrl",
          "type": "string"
        },
        {
          "internalType": "uint256",
          "name": "confirmedAt",
          "type": "uint256"
        },
        {
          "internalType": "uint256",
          "name": "coolingUntil",
          "type": "uint256"
        },
        {
          "internalType": "uint256",
          "name": "claimedAt",
          "type": "uint256"
        }
      ],
      "stateMutability": "view",
      "type": "function"
    },
    {
      "inputs": [
        {
          "internalType": "uint256",
          "name": "bountyId",
          "type": "uint256"
        }
      ],
      "name": "cancelBounty",
      "outputs": [],
      "stateMutability": "nonpayable",
      "type": "function"
    },
    {
      "inputs": [
        {
          "internalType": "uint256",
          "name": "bountyId",
          "type": "uint256"
        }
      ],
      "name": "claimBounty",
      "outputs": [],
      "stateMutability": "nonpayable",
      "type": "function"
    },
    {
      "inputs": [
        {
          "internalType": "uint256",
          "name": "bountyId",
          "type": "uint256"
        },
        {
          "internalType": "uint256",
          "name": "confirmedAt",
          "type": "uint256"
        }
      ],
      "name": "confirmBounty",
      "outputs": [],
      "stateMutability": "nonpayable",
      "type": "function"
    },
    {
      "inputs": [
        {
          "internalType": "string",
          "name": "taskId",
          "type": "string"
        },
        {
          "internalType": "bytes32",
          "name": "taskHash",
          "type": "bytes32"
        }
      ],
      "name": "createBounty",
      "outputs": [
        {
          "internalType": "uint256",
          "name": "",
          "type": "uint256"
        }
      ],
      "stateMutability": "payable",
      "type": "function"
    },
    {
      "inputs": [
        {
          "internalType": "string",
          "name": "taskId",
          "type": "string"
        },
        {
          "internalType": "bytes32",
          "name": "taskHash",
          "type": "bytes32"
        },
        {
          "internalType": "address",
          "name": "asset",
          "type": "address"
        },
        {
          "internalType": "uint256",
          "name": "amount",
          "type": "uint256"
        }
      ],
      "name": "createBountyWithToken",
      "outputs": [
        {
          "internalType": "uint256",
          "name": "",
          "type": "uint256"
        }
      ],
      "stateMutability": "nonpayable",
      "type": "function"
    },
    {
      "inputs": [
        {
          "internalType": "address",
          "name": "requester",
          "type": "address"
        }
      ],
      "name": "getBountiesByRequester",
      "outputs": [
        {
          "internalType": "uint256[]",
          "name": "",
          "type": "uint256[]"
        }
      ],
      "stateMutability": "view",
      "type": "function"
    },
    {
      "inputs": [
        {
          "internalType": "enum BountyManager.BountyStatus",
          "name": "status",
          "type": "uint8"
        }
      ],
      "name": "getBountiesByStatus",
      "outputs": [
        {
          "internalType": "uint256[]",
          "name": "",
          "type": "uint256[]"
        }
      ],
      "stateMutability": "view",
      "type": "function"
    },
    {
      "inputs": [
        {
          "internalType": "address",
          "name": "worker",
          "type": "address"
        }
      ],
      "name": "getBountiesByWorker",
      "outputs": [
        {
          "internalType": "uint256[]",
          "name": "",
          "type": "uint256[]"
        }
      ],
      "stateMutability": "view",
      "type": "function"
    },
    {
      "inputs": [
        {
          "internalType": "uint256",
          "name": "bountyId",
          "type": "uint256"
        }
      ],
      "name": "getBounty",
      "outputs": [
        {
          "components": [
            {
              "internalType": "uint256",
              "name": "bountyId",
              "type": "uint256"
            },
            {
              "internalType": "string",
              "name": "taskId",
              "type": "string"
            },
            {
              "internalType": "bytes32",
              "name": "taskHash",
              "type": "bytes32"
            },
            {
              "internalType": "address",
              "name": "requester",
              "type": "address"
            },
            {
              "internalType": "address",
              "name": "worker",
              "type": "address"
            },
            {
              "internalType": "uint256",
              "name": "amount",
              "type": "uint256"
            },
            {
              "internalType": "address",
              "name": "asset",
              "type": "address"
            },
            {
              "internalType": "enum BountyManager.BountyStatus",
              "name": "status",
              "type": "uint8"
            },
            {
              "internalType": "uint256",
              "name": "createdAt",
              "type": "uint256"
            },
            {
              "internalType": "uint256",
              "name": "acceptedAt",
              "type": "uint256"
            },
            {
              "internalType": "uint256",
              "name": "submittedAt",
              "type": "uint256"
            },
            {
              "internalType": "string",
              "name": "submissionUrl",
              "type": "string"
            },
            {
              "internalType": "uint256",
              "name": "confirmedAt",
              "type": "uint256"
            },
            {
              "internalType": "uint256",
              "name": "coolingUntil",
              "type": "uint256"
            },
            {
              "internalType": "uint256",
              "name": "claimedAt",
              "type": "uint256"
            }
          ],
          "internalType": "struct BountyManager.Bounty",
          "name": "",
          "type": "tuple"
        }
      ],
      "stateMutability": "view",
      "type": "function"
    },
    {
      "inputs": [
        {
          "internalType": "bytes32",
          "name": "taskHash",
          "type": "bytes32"
        }
      ],
      "name": "getBountyByTaskHash",
      "outputs": [
        {
          "internalType": "bool",
          "name": "exists",
          "type": "bool"
        },
        {
          "internalType": "uint256",
          "name": "bountyId",
          "type": "uint256"
        }
      ],
      "stateMutability": "view",
      "type": "function"
    },
    {
      "inputs": [
        {
          "internalType": "uint256",
          "name": "offset",
          "type": "uint256"
        },
        {
          "internalType": "uint256",
          "name": "limit",
          "type": "uint256"
        }
      ],
      "name": "listBounties",
      "outputs": [
        {
          "internalType": "uint256[]",
          "name": "",
          "type": "uint256[]"
        }
      ],
      "stateMutability": "view",
      "type": "function"
    },
    {
      "inputs": [],
      "name": "owner",
      "outputs": [
        {
          "internalType": "address",
          "name": "",
          "type": "address"
        }
      ],
      "stateMutability": "view",
      "type": "function"
    },
    {
      "inputs": [],
      "name": "renounceOwnership",
      "outputs": [],
      "stateMutability": "nonpayable",
      "type": "function"
    },
    {
      "inputs": [
        {
          "internalType": "address",
          "name": "",
          "type": "address"
        },
        {
          "internalType": "uint256",
          "name": "",
          "type": "uint256"
        }
      ],
      "name": "requesterBounties",
      "outputs": [
        {
          "internalType": "uint256",
          "name": "",
          "type": "uint256"
        }
      ],
      "stateMutability": "view",
      "type": "function"
    },
    {
      "inputs": [
        {
          "internalType": "uint256",
          "name": "bountyId",
          "type": "uint256"
        },
        {
          "internalType": "string",
          "name": "submissionUrl",
          "type": "string"
        }
      ],
      "name": "submitBounty",
      "outputs": [],
      "stateMutability": "nonpayable",
      "type": "function"
    },
    {
      "inputs": [
        {
          "internalType": "bytes32",
          "name": "",
          "type": "bytes32"
        }
      ],
      "name": "taskHashToBountyId",
      "outputs": [
        {
          "internalType": "uint256",
          "name": "",
          "type": "uint256"
        }
      ],
      "stateMutability": "view",
      "type": "function"
    },
    {
      "inputs": [
        {
          "internalType": "address",
          "name": "newOwner",
          "type": "address"
        }
      ],
      "name": "transferOwnership",
      "outputs": [],
      "stateMutability": "nonpayable",
      "type": "function"
    },
    {
      "inputs": [
        {
          "internalType": "address",
          "name": "",
          "type": "address"
        },
        {
          "internalType": "uint256",
          "name": "",
          "type": "uint256"
        }
      ],
      "name": "workerBounties",
      "outputs": [
        {
          "internalType": "uint256",
          "name": "",
          "type": "uint256"
        }
      ],
      "stateMutability": "view",
      "type": "function"
    }
  ],
  "bytecode": "0x60808060405234610084576001600055331561006e5760018054336001600160a01b03198216811790925560405191906001600160a01b03167f8be0079c531659141344cd1fd0a4f28419497f9722a3daafe3b4186f6b6457e0600080a36001600255612493908161008a8239f35b631e4fbdf760e01b815260006004820152602490fd5b600080fdfe6080604052600436101561001257600080fd5b60003560e01c8063332710d414611e6157806335491a4714611e355780633edc8d9914611dbd57806344021ad714611b2f578063493b242b14611aab5780634a0bccd4146119245780634f595244146118da57806350cf26d614611446578063715018a6146113e95780637577132a146113915780638da5cb5b146113685780638e438b75146111bf578063a4c0b37d1461118d578063b2b5df6814610e82578063b4884091146108c0578063c63c4cdd146107d9578063dc2f8744146106b5578063df28897414610699578063e5e5dff114610412578063ee8c4bbf146101915763f2fde38b1461010357600080fd5b3461018c57602036600319011261018c5761011c611f8f565b6101246121d4565b6001600160a01b0390811690811561017357600154826001600160601b0360a01b821617600155167f8be0079c531659141344cd1fd0a4f28419497f9722a3daafe3b4186f6b6457e0600080a3005b604051631e4fbdf760e01b815260006004820152602490fd5b600080fd5b3461018c57602036600319011261018c5760043560006101c06040516101b681611fe9565b828152606060208201528260408201528260608201528260808201528260a08201528260c08201528260e0820152826101008201528261012082015282610140820152606061016082015282610180820152826101a0820152015280600052600360205261022a6040600020541515612390565b600052600360205260406000206040519061024482611fe9565b80548252610254600182016120e1565b60208301526002810154604083015260038101546001600160a01b039081166060840152600482015481166080840152600582015460a08085019190915260068084015492831660c08601529192919083901c60ff1610156103fc5760ff600d9260a01c1660e08401526007810154610100840152600881015461012084015260098101546101408401526102eb600a82016120e1565b610160840152600b810154610180840152600c8101546101a084015201546101c0820152604051809160208252805160208301526101c06103d961034060208401516101e06040870152610200860190612187565b6040840151606086015260018060a01b03606085015116608086015260018060a01b0360808501511660a086015260a084015160c086015260018060a01b0360c08501511660e086015261039d60e08501516101008701906121c7565b610100840151610120860152610120840151610140860152610140840151610160860152610160840151601f1986830301610180870152612187565b916101808101516101a08501526101a08101518285015201516101e08301520390f35b634e487b7160e01b600052602160045260246000fd5b3461018c5760208060031936011261018c5760043561042f612311565b8060005260038252604060002061044881541515612390565b6006810180549160ff8360a01c1660068110156103fc5761065457600381019160018060a01b0393848454169182330361060f5760ff60a01b198216600560a01b17905586919085168061052757505050600080808093600587875416910154905af16104b36123cf565b50156104ee57907fb9670bf4f2273686f771c9ab65309436df5ed75afa63eefec8b67640d8bcf72c915b541692604051428152a36001600055005b60405162461bcd60e51b8152600481018590526011602482015270115512081c99599d5b990819985a5b1959607a1b6044820152606490fd5b6005939093015460405163a9059cbb60e01b81526001600160a01b03929092166004830152602482015291829060449082906000905af1908115610603576000916105d6575b501561059b57907fb9670bf4f2273686f771c9ab65309436df5ed75afa63eefec8b67640d8bcf72c916104dd565b60405162461bcd60e51b8152600481018590526013602482015272151bdad95b881c99599d5b990819985a5b1959606a1b6044820152606490fd5b6105f69150853d87116105fc575b6105ee8183612022565b810190612334565b8561056d565b503d6105e4565b6040513d6000823e3d90fd5b60405162461bcd60e51b815260048101899052601960248201527f4f6e6c79207265717565737465722063616e2063616e63656c000000000000006044820152606490fd5b60405162461bcd60e51b815260048101869052601b60248201527f43616e206f6e6c792063616e63656c206f70656e20626f756e747900000000006044820152606490fd5b3461018c57600036600319011261018c57602060405160008152f35b3461018c57602036600319011261018c57600435600052600360205260406000208054600182016106e5906120e1565b600283015460038401546004850154600586015460068701546007880154600889015460098a0154969997986001600160a01b0395861698969095169693949392909190610735600a88016120e1565b95600b88015499600c89015498600d0154996040519d8e9d8e998a526101e08060208c01528a0161076591612187565b986040015260608d015260808c015260a08b0152600160a01b60019003811660c08b015260e08a019060a01c60ff169061079e916121c7565b6101008901526101208801526101408701528581036101608701526107c291612187565b926101808501526101a08401526101c08301520390f35b3461018c576107e736611fa5565b600254908183101561088557828203918211610868576000198201918211610868578082101561087e57505b61081c81612417565b9160005b82811061083957604051806108358682611f54565b0390f35b808201908183116108685760018201809211610868576108639161085d8287612449565b526122a4565b610820565b634e487b7160e01b600052601160045260246000fd5b9050610813565b60405162461bcd60e51b81526020600482015260136024820152724f6666736574206f7574206f662072616e676560681b6044820152606490fd5b3461018c57608036600319011261018c5760043567ffffffffffffffff811161018c576108f1903690600401612060565b6044356001600160a01b038116810361018c5761090c612311565b6001600160a01b03811615610e45576109286064351515612200565b60243560005260046020526109426040600020541561224c565b6040516323b872dd60e01b815233600482015230602482015260648035604483015260209082908160006001600160a01b0387165af180156106035761099091600091610e26575b5061234c565b6002549061099d826122a4565b6002556040516109ac81611fe9565b82815283602082015260243560408201523360608201526000608082015260643560a082015260018060a01b03821660c0820152600060e08201524261010082015260006101208201526000610140820152604051610a0a81612006565b60008152610160820152600061018082015260006101a082015260006101c0820152826000526003602052604060002081518155602082015180519067ffffffffffffffff8211610d40578190610a6460018501546120a7565b601f8111610dd3575b50602090601f8311600114610d6157600092610d56575b50508160011b916000199060031b1c19161760018201555b6040820151600282015560608201516003820180546001600160a01b03199081166001600160a01b03938416179091556080840151600484018054831691841691909117905560a0840151600584015560c0840151600680850180549093169190931617815560e084015190918110156103fc57610b19916122b3565b6101008201516007820155610120820151600882015561014082015160098201556101608201519182519267ffffffffffffffff8411610d4057610b60600a8401546120a7565b601f8111610cf9575b50916020969186938890601f8711600114610c5f5791867f29a544661c4d2ccca2cf368e0752de52b8f5c31bf823c8da200a4c06b6137a9096976101c093600d95600092610c54575b50508160011b916000199060031b1c191617600a8501555b610180810151600b8501556101a0810151600c850155015191015560243560005260048652826040600020553360005260058652610c0c8360406000206122d7565b610c2160405191608083526080830190612187565b6024358288015260643560408301526001600160a01b039094166060820152339381900390a36001600055604051908152f35b015190508c80610bb2565b9590600a8401600052896000209660005b601f1984168110610cdf5750827f29a544661c4d2ccca2cf368e0752de52b8f5c31bf823c8da200a4c06b6137a909798600d95936001936101c096601f19811610610cc6575b505050811b01600a850155610bca565b015160001960f88460031b161c191690558c8080610cb6565b8282015189556001909801978a9750918b01918b01610c70565b600a84016000526020600020601f860160051c810160208710610d39575b601f830160051c82018110610d2d575050610b69565b60008155600101610d17565b5080610d17565b634e487b7160e01b600052604160045260246000fd5b015190508780610a84565b9250600184016000526020600020906000935b601f1984168510610db8576001945083601f19811610610d9f575b505050811b016001820155610a9c565b015160001960f88460031b161c19169055878080610d8f565b81810151835560209485019460019093019290910190610d74565b909150600184016000526020600020601f840160051c810160208510610e1f575b90849392915b601f830160051c82018110610e10575050610a6d565b60008155859450600101610dfa565b5080610df4565b610e3f915060203d6020116105fc576105ee8183612022565b8461098a565b60405162461bcd60e51b8152602060048201526015602482015274496e76616c696420746f6b656e206164647265737360581b6044820152606490fd5b3461018c57604036600319011261018c5767ffffffffffffffff6004356024803583811161018c57610eb8903690600401612060565b90610ec1612311565b8260005260209060038252604060002094610ede86541515612390565b600686019586549660ff8860a01c1697600689101561117857600180990361113e5760048301546001600160a01b03163303611101578651156110bd5760ff60a01b1916600160a11b1790554260098201558451600a9190910192909182116110a95750610f4c82546120a7565b601f8111611060575b5082601f8211600114610fd4579181610fbb94927f15feca2794848feb9e2ebb4a4a286dddbf20f7a2c1508e117799dab6e7ff89569694600091610fc9575b50600019600383901b1c191690881b1790555b604051928392604084526040840190612187565b9042908301520390a2600055005b905084015189610f94565b908691601f1982169084600052856000209160005b81811061104957509183917f15feca2794848feb9e2ebb4a4a286dddbf20f7a2c1508e117799dab6e7ff8956989694610fbb98969410611030575b5050811b019055610fa7565b86015160001960f88460031b161c191690558980611024565b8883015184558a9590930192918701918701610fe9565b8260005283600020601f830160051c81019185841061109f575b601f0160051c019087905b828110611093575050610f55565b60008155018790611085565b909150819061107a565b634e487b7160e01b60009081526041600452fd5b60405162461bcd60e51b8152600481018790526017818701527f5375626d697373696f6e2055524c2072657175697265640000000000000000006044820152606490fd5b60405162461bcd60e51b8152600481018790526016818701527513db9b1e481ddbdc9ad95c8818d85b881cdd589b5a5d60521b6044820152606490fd5b60405162461bcd60e51b81526004810187905260138187015272109bdd5b9d1e481b9bdd081858d8d95c1d1959606a1b6044820152606490fd5b84634e487b7160e01b60005260216004526000fd5b3461018c57602036600319011261018c5760043560005260046020526040806000205481519080151582526020820152f35b3461018c57604036600319011261018c576001600160a01b03602435818116906004359082900361018c576111f2612311565b80600052602060038152604060002061120d81541515612390565b6006810180549560ff8760a01c1660068110156103fc576113315760038301541633036112ec5784156112ae577f4aa9d087bda72ed5e9f18284fbda4e853a8b279176f1805c7155872fbc1258e693949560048301876001600160601b0360a01b825416179055600160a01b9060ff60a01b191617905560084291015583600052600681526112a08360406000206122d7565b604051428152a36001600055005b60405162461bcd60e51b8152600481018490526016602482015275496e76616c696420776f726b6572206164647265737360501b6044820152606490fd5b60405162461bcd60e51b815260048101849052601960248201527f4f6e6c79207265717565737465722063616e20616363657074000000000000006044820152606490fd5b60405162461bcd60e51b815260048101859052600f60248201526e2137bab73a3c903737ba1037b832b760891b6044820152606490fd5b3461018c57600036600319011261018c576001546040516001600160a01b039091168152602090f35b3461018c57604036600319011261018c576113aa611f8f565b6001600160a01b031660009081526006602052604090208054602435919082101561018c576020916113db91611fbb565b90546040519160031b1c8152f35b3461018c57600036600319011261018c576114026121d4565b600180546001600160a01b031981169091556000906001600160a01b03167f8be0079c531659141344cd1fd0a4f28419497f9722a3daafe3b4186f6b6457e08280a3005b604036600319011261018c5760043567ffffffffffffffff811161018c57611472903690600401612060565b61147a612311565b611485341515612200565b602435600052600460205261149f6040600020541561224c565b6002546114ab816122a4565b600255604051916114bb83611fe9565b8183528060208401526024356040840152336060840152600060808401523460a0840152600060c0840152600060e0840152426101008401526000610120840152600061014084015260405161151081612006565b60008152610160840152600061018084015260006101a084015260006101c0840152816000526003602052604060002083518155602084015180519067ffffffffffffffff8211610d4057819061156a60018501546120a7565b601f8111611887575b50602090601f83116001146118155760009261180a575b50508160011b916000199060031b1c19161760018201555b604084015160028201556003810160018060a01b039081606087015116906001600160601b0360a01b918282541617905560048301826080880151168282541617905560a08601516005840155600683019160c0870151169082541617815560e085015160068110156103fc57611618916122b3565b61010084015160078201556101208401516008820155610140840151600982015561016084015193845167ffffffffffffffff8111610d405761165e600a8401546120a7565b95601f87116117c3575b602096508690601f831160011461174f579180600d94926101c094600092611744575b50508160011b916000199060031b1c191617600a8501555b610180810151600b8501556101a0810151600c8501550151910155602435600052600483528160406000205533600052600583526116e58260406000206122d7565b817f29a544661c4d2ccca2cf368e0752de52b8f5c31bf823c8da200a4c06b6137a9061171c60405193608085526080850190612187565b9260243586820152346040820152600060608201528033940390a36001600055604051908152f35b01519050898061168b565b90600a8501600052876000209160005b601f19851681106117ac575092600d94926001926101c09583601f19811610611793575b505050811b01600a8501556116a3565b015160001960f88460031b161c19169055898080611783565b91928960018192868501518155019401920161175f565b600a84016000526020600020601f830160051c810160208410611803575b601f890160051c820181106117f7575050611668565b600081556001016117e1565b50806117e1565b01519050868061158a565b9250600184016000526020600020906000935b601f198416851061186c576001945083601f19811610611853575b505050811b0160018201556115a2565b015160001960f88460031b161c19169055868080611843565b81810151835560209485019460019093019290910190611828565b909150600184016000526020600020601f840160051c8101602085106118d3575b90849392915b601f830160051c820181106118c4575050611573565b600081558594506001016118ae565b50806118a8565b3461018c57604036600319011261018c576118f3611f8f565b6001600160a01b031660009081526005602052604090208054602435919082101561018c576020916113db91611fbb565b3461018c5761193236611fa5565b61193a612311565b816000526003602052604060002061195481541515612390565b600681019182549260ff8460a01c1660068110156103fc57600203611a6f5760038301546001600160a01b03163303611a2a5781156119e55760ff60a01b19909316600360a01b17909255600b8101829055600c018190556040805182815260208101929092527fe2c01b5758e9a0315e7c73eb6ff4d8f49df76a7adf97bdc252e685949e8d74a091a26001600055005b60405162461bcd60e51b815260206004820152601b60248201527f496e76616c696420636f6e6669726d65642074696d657374616d7000000000006044820152606490fd5b60405162461bcd60e51b815260206004820152601a60248201527f4f6e6c79207265717565737465722063616e20636f6e6669726d0000000000006044820152606490fd5b60405162461bcd60e51b8152602060048201526014602482015273109bdd5b9d1e481b9bdd081cdd589b5a5d1d195960621b6044820152606490fd5b3461018c5760208060031936011261018c576001600160a01b03611acd611f8f565b1660005260058152604060002090604051908181845491828152019360005281600020916000905b828210611b185761083585611b0c81890382612022565b60405191829182611f54565b835486529485019460019384019390910190611af5565b3461018c5760208060031936011261018c57600435611b4c612311565b8060005260038252604060002091611b6683541515612390565b6006830180549060ff8260a01c1660068110156103fc57600303611d8157600485019060018060a01b03928383541691823303611d4457600c8801544210611cff5760ff60a01b198216600160a21b17905542600d880155831680611c6257505060008080808585541660058a0154905af1611be06123cf565b5015611c27579160056040927f2eefa727cced3362efe12827696bbd9df4926abce3c569ddaf6b9634ae1af147945b54169501549082519182524290820152a36001600055005b60405162461bcd60e51b8152600481018490526013602482015272115512081d1c985b9cd9995c8819985a5b1959606a1b6044820152606490fd5b600587015460405163a9059cbb60e01b81526001600160a01b0393909316600484015260248301529193909290918290849060449082906000905af1908115610603577f2eefa727cced3362efe12827696bbd9df4926abce3c569ddaf6b9634ae1af14794611cdd600593604096600091611ce2575061234c565b611c0f565b611cf99150863d88116105fc576105ee8183612022565b8a61098a565b60405162461bcd60e51b815260048101879052601860248201527f436f6f6c696e6720706572696f64206e6f7420656e64656400000000000000006044820152606490fd5b60405162461bcd60e51b81526004810187905260156024820152744f6e6c7920776f726b65722063616e20636c61696d60581b6044820152606490fd5b60405162461bcd60e51b8152600481018490526014602482015273109bdd5b9d1e481b9bdd0818dbdb999a5c9b595960621b6044820152606490fd5b3461018c5760208060031936011261018c576001600160a01b03611ddf611f8f565b1660005260068152604060002090604051908181845491828152019360005281600020916000905b828210611e1e5761083585611b0c81890382612022565b835486529485019460019384019390910190611e07565b3461018c57602036600319011261018c5760043560005260046020526020604060002054604051908152f35b3461018c5760208060031936011261018c5760043590600690818310158061018c5760025491600060015b848110611f065750611e9d90612417565b9360009160015b858110611eb957604051806108358982611f54565b8085916000526003835260ff846040600020015460a01c16916103fc57838210156103fc5788611eed9214611ef2576122a4565b611ea4565b8061085d611eff876122a4565b968a612449565b80600052600383528360ff876040600020015460a01c16906103fc57868110156103fc578714611f3f575b611f3a906122a4565b611e8c565b90611f4c611f3a916122a4565b919050611f31565b6020908160408183019282815285518094520193019160005b828110611f7b575050505090565b835185529381019392810192600101611f6d565b600435906001600160a01b038216820361018c57565b604090600319011261018c576004359060243590565b8054821015611fd35760005260206000200190600090565b634e487b7160e01b600052603260045260246000fd5b6101e0810190811067ffffffffffffffff821117610d4057604052565b6020810190811067ffffffffffffffff821117610d4057604052565b90601f8019910116810190811067ffffffffffffffff821117610d4057604052565b67ffffffffffffffff8111610d4057601f01601f191660200190565b81601f8201121561018c5780359061207782612044565b926120856040519485612022565b8284526020838301011161018c57816000926020809301838601378301015290565b90600182811c921680156120d7575b60208310146120c157565b634e487b7160e01b600052602260045260246000fd5b91607f16916120b6565b90604051918260008254926120f5846120a7565b9081845260019485811690816000146121645750600114612121575b505061211f92500383612022565b565b9093915060005260209081600020936000915b81831061214c57505061211f93508201013880612111565b85548884018501529485019487945091830191612134565b91505061211f94506020925060ff191682840152151560051b8201013880612111565b919082519283825260005b8481106121b3575050826000602080949584010152601f8019910116010190565b602081830181015184830182015201612192565b9060068210156103fc5752565b6001546001600160a01b031633036121e857565b60405163118cdaa760e01b8152336004820152602490fd5b1561220757565b60405162461bcd60e51b815260206004820152601d60248201527f416d6f756e74206d7573742062652067726561746572207468616e20300000006044820152606490fd5b1561225357565b60405162461bcd60e51b815260206004820152602360248201527f426f756e747920616c72656164792065786973747320666f722074686973207460448201526261736b60e81b6064820152608490fd5b60001981146108685760010190565b9060068110156103fc57815460ff60a01b191660a09190911b60ff60a01b16179055565b805468010000000000000000811015610d40576122f991600182018155611fbb565b819291549060031b91821b91600019901b1916179055565b600260005414612322576002600055565b604051633ee5aeb560e01b8152600490fd5b9081602091031261018c5751801515810361018c5790565b1561235357565b60405162461bcd60e51b8152602060048201526015602482015274151bdad95b881d1c985b9cd9995c8819985a5b1959605a1b6044820152606490fd5b1561239757565b60405162461bcd60e51b815260206004820152601060248201526f109bdd5b9d1e481b9bdd08199bdd5b9960821b6044820152606490fd5b3d156123fa573d906123e082612044565b916123ee6040519384612022565b82523d6000602084013e565b606090565b67ffffffffffffffff8111610d405760051b60200190565b90612421826123ff565b61242e6040519182612022565b828152809261243f601f19916123ff565b0190602036910137565b8051821015611fd35760209160051b01019056fea26469706673582212206b6ba2322d16e64b365abe6fb28141be159749775d220e1c7d5d06fe91cb6af564736f6c63430008140033",
  "linkReferences": {},
  "deployedLinkReferences": {}
}