{
  "_format": "hh-sol-artifact-1",
  "contractName": "BountyManager",
  "sourceName": "contracts/BountyManager.sol",
  "abi": [
    {
      "inputs": [],
      "stateMutability": "nonpayable",
      "type": "constructor"
    },
    {
      "inputs": [
        {
          "internalType": "address",
          "name": "owner",
          "type": "address"
        }
      ],
      "name": "OwnableInvalidOwner",
      "type": "error"
    },
    {
      "inputs": [
        {
          "internalType": "address",
          "name": "account",
          "type": "address"
        }
      ],
      "name": "OwnableUnauthorizedAccount",
      "type": "error"
    },
    {
      "inputs": [],
      "name": "ReentrancyGuardReentrantCall",
      "type": "error"
    },
    {
      "anonymous": false,
      "inputs": [
        {
          "indexed": true,
          "internalType": "uint256",
          "name": "bountyId",
          "type": "uint256"
        },
        {
          "indexed": true,
          "internalType": "address",
          "name": "worker",
          "type": "address"
        },
        {
          "indexed": false,
          "internalType": "uint256",
          "name": "acceptedAt",
          "type": "uint256"
        }
      ],
      "name": "BountyAccepted",
      "type": "event"
    },
    {
      "anonymous": false,
      "inputs": [
        {
          "indexed": true,
          "internalType": "uint256",
          "name": "bountyId",
          "type": "uint256"
        },
        {
          "indexed": true,
          "internalType": "address",
          "name": "requester",
          "type": "address"
        },
        {
          "indexed": false,
          "internalType": "uint256",
          "name": "cancelledAt",
          "type": "uint256"
        }
      ],
      "name": "BountyCancelled",
      "type": "event"
    },
    {
      "anonymous": false,
      "inputs": [
        {
          "indexed": true,
          "internalType": "uint256",
          "name": "bountyId",
          "type": "uint256"
        },
        {
          "indexed": true,
          "internalType": "address",
          "name": "worker",
          "type": "address"
        },
        {
          "indexed": false,
          "internalType": "uint256",
          "name": "amount",
          "type": "uint256"
        },
        {
          "indexed": false,
          "internalType": "uint256",
          "name": "claimedAt",
          "type": "uint256"
        }
      ],
      "name": "BountyClaimed",
      "type": "event"
    },
    {
      "anonymous": false,
      "inputs": [
        {
          "indexed": true,
          "internalType": "uint256",
          "name": "bountyId",
          "type": "uint256"
        },
        {
          "indexed": false,
          "internalType": "uint256",
          "name": "confirmedAt",
          "type": "uint256"
        }
      ],
      "name": "BountyConfirmed",
      "type": "event"
    },
    {
      "anonymous": false,
      "inputs": [
        {
          "indexed": true,
          "internalType": "uint256",
          "name": "bountyId",
          "type": "uint256"
        },
        {
          "indexed": false,
          "internalType": "string",
          "name": "taskId",
          "type": "string"
        },
        {
          "indexed": false,
          "internalType": "string",
          "name": "taskUrl",
          "type": "string"
        },
        {
          "indexed": false,
          "internalType": "bytes32",
          "name": "taskHash",
          "type": "bytes32"
        },
        {
          "indexed": true,
          "internalType": "address",
          "name": "requester",
          "type": "address"
        },
        {
          "indexed": false,
          "internalType": "uint256",
          "name": "amount",
          "type": "uint256"
        },
        {
          "indexed": false,
          "internalType": "address",
          "name": "asset",
          "type": "address"
        }
      ],
      "name": "BountyCreated",
      "type": "event"
    },
    {
      "anonymous": false,
      "inputs": [
        {
          "indexed": true,
          "internalType": "uint256",
          "name": "bountyId",
          "type": "uint256"
        },
        {
          "indexed": false,
          "internalType": "string",
          "name": "submissionUrl",
          "type": "string"
        },
        {
          "indexed": false,
          "internalType": "uint256",
          "name": "submittedAt",
          "type": "uint256"
        }
      ],
      "name": "BountySubmitted",
      "type": "event"
    },
    {
      "anonymous": false,
      "inputs": [
        {
          "indexed": true,
          "internalType": "address",
          "name": "previousOwner",
          "type": "address"
        },
        {
          "indexed": true,
          "internalType": "address",
          "name": "newOwner",
          "type": "address"
        }
      ],
      "name": "OwnershipTransferred",
      "type": "event"
    },
    {
      "inputs": [
        {
          "internalType": "uint256",
          "name": "bountyId",
          "type": "uint256"
        },
        {
          "internalType": "address",
          "name": "worker",
          "type": "address"
        }
      ],
      "name": "acceptBounty",
      "outputs": [],
      "stateMutability": "nonpayable",
      "type": "function"
    },
    {
      "inputs": [
        {
          "internalType": "uint256",
          "name": "",
          "type": "uint256"
        }
      ],
      "name": "bounties",
      "outputs": [
        {
          "internalType": "uint256",
          "name": "bountyId",
          "type": "uint256"
        },
        {
          "internalType": "string",
          "name": "taskId",
          "type": "string"
        },
        {
          "internalType": "string",
          "name": "taskUrl",
          "type": "string"
        },
        {
          "internalType": "bytes32",
          "name": "taskHash",
          "type": "bytes32"
        },
        {
          "internalType": "address",
          "name": "requester",
          "type": "address"
        },
        {
          "internalType": "address",
          "name": "worker",
          "type": "address"
        },
        {
          "internalType": "uint256",
          "name": "amount",
          "type": "uint256"
        },
        {
          "internalType": "address",
          "name": "asset",
          "type": "address"
        },
        {
          "internalType": "enum BountyManager.BountyStatus",
          "name": "status",
          "type": "uint8"
        },
        {
          "internalType": "uint256",
          "name": "createdAt",
          "type": "uint256"
        },
        {
          "internalType": "uint256",
          "name": "acceptedAt",
          "type": "uint256"
        },
        {
          "internalType": "uint256",
          "name": "submittedAt",
          "type": "uint256"
        },
        {
          "internalType": "string",
          "name": "submissionUrl",
          "type": "string"
        },
        {
          "internalType": "uint256",
          "name": "confirmedAt",
          "type": "uint256"
        },
        {
          "internalType": "uint256",
          "name": "claimedAt",
          "type": "uint256"
        }
      ],
      "stateMutability": "view",
      "type": "function"
    },
    {
      "inputs": [
        {
          "internalType": "uint256",
          "name": "bountyId",
          "type": "uint256"
        }
      ],
      "name": "cancelBounty",
      "outputs": [],
      "stateMutability": "nonpayable",
      "type": "function"
    },
    {
      "inputs": [
        {
          "internalType": "uint256",
          "name": "bountyId",
          "type": "uint256"
        }
      ],
      "name": "claimBounty",
      "outputs": [],
      "stateMutability": "nonpayable",
      "type": "function"
    },
    {
      "inputs": [
        {
          "internalType": "uint256",
          "name": "bountyId",
          "type": "uint256"
        },
        {
          "internalType": "uint256",
          "name": "confirmedAt",
          "type": "uint256"
        }
      ],
      "name": "confirmBounty",
      "outputs": [],
      "stateMutability": "nonpayable",
      "type": "function"
    },
    {
      "inputs": [
        {
          "internalType": "string",
          "name": "taskId",
          "type": "string"
        },
        {
          "internalType": "string",
          "name": "taskUrl",
          "type": "string"
        },
        {
          "internalType": "bytes32",
          "name": "taskHash",
          "type": "bytes32"
        }
      ],
      "name": "createBounty",
      "outputs": [
        {
          "internalType": "uint256",
          "name": "",
          "type": "uint256"
        }
      ],
      "stateMutability": "payable",
      "type": "function"
    },
    {
      "inputs": [
        {
          "internalType": "string",
          "name": "taskId",
          "type": "string"
        },
        {
          "internalType": "string",
          "name": "taskUrl",
          "type": "string"
        },
        {
          "internalType": "bytes32",
          "name": "taskHash",
          "type": "bytes32"
        },
        {
          "internalType": "address",
          "name": "asset",
          "type": "address"
        },
        {
          "internalType": "uint256",
          "name": "amount",
          "type": "uint256"
        }
      ],
      "name": "createBountyWithToken",
      "outputs": [
        {
          "internalType": "uint256",
          "name": "",
          "type": "uint256"
        }
      ],
      "stateMutability": "nonpayable",
      "type": "function"
    },
    {
      "inputs": [
        {
          "internalType": "address",
          "name": "requester",
          "type": "address"
        }
      ],
      "name": "getBountiesByRequester",
      "outputs": [
        {
          "internalType": "uint256[]",
          "name": "",
          "type": "uint256[]"
        }
      ],
      "stateMutability": "view",
      "type": "function"
    },
    {
      "inputs": [
        {
          "internalType": "enum BountyManager.BountyStatus",
          "name": "status",
          "type": "uint8"
        }
      ],
      "name": "getBountiesByStatus",
      "outputs": [
        {
          "internalType": "uint256[]",
          "name": "",
          "type": "uint256[]"
        }
      ],
      "stateMutability": "view",
      "type": "function"
    },
    {
      "inputs": [
        {
          "internalType": "address",
          "name": "worker",
          "type": "address"
        }
      ],
      "name": "getBountiesByWorker",
      "outputs": [
        {
          "internalType": "uint256[]",
          "name": "",
          "type": "uint256[]"
        }
      ],
      "stateMutability": "view",
      "type": "function"
    },
    {
      "inputs": [
        {
          "internalType": "uint256",
          "name": "bountyId",
          "type": "uint256"
        }
      ],
      "name": "getBounty",
      "outputs": [
        {
          "components": [
            {
              "internalType": "uint256",
              "name": "bountyId",
              "type": "uint256"
            },
            {
              "internalType": "string",
              "name": "taskId",
              "type": "string"
            },
            {
              "internalType": "string",
              "name": "taskUrl",
              "type": "string"
            },
            {
              "internalType": "bytes32",
              "name": "taskHash",
              "type": "bytes32"
            },
            {
              "internalType": "address",
              "name": "requester",
              "type": "address"
            },
            {
              "internalType": "address",
              "name": "worker",
              "type": "address"
            },
            {
              "internalType": "uint256",
              "name": "amount",
              "type": "uint256"
            },
            {
              "internalType": "address",
              "name": "asset",
              "type": "address"
            },
            {
              "internalType": "enum BountyManager.BountyStatus",
              "name": "status",
              "type": "uint8"
            },
            {
              "internalType": "uint256",
              "name": "createdAt",
              "type": "uint256"
            },
            {
              "internalType": "uint256",
              "name": "acceptedAt",
              "type": "uint256"
            },
            {
              "internalType": "uint256",
              "name": "submittedAt",
              "type": "uint256"
            },
            {
              "internalType": "string",
              "name": "submissionUrl",
              "type": "string"
            },
            {
              "internalType": "uint256",
              "name": "confirmedAt",
              "type": "uint256"
            },
            {
              "internalType": "uint256",
              "name": "claimedAt",
              "type": "uint256"
            }
          ],
          "internalType": "struct BountyManager.Bounty",
          "name": "",
          "type": "tuple"
        }
      ],
      "stateMutability": "view",
      "type": "function"
    },
    {
      "inputs": [
        {
          "internalType": "bytes32",
          "name": "taskHash",
          "type": "bytes32"
        }
      ],
      "name": "getBountyByTaskHash",
      "outputs": [
        {
          "internalType": "bool",
          "name": "exists",
          "type": "bool"
        },
        {
          "internalType": "uint256",
          "name": "bountyId",
          "type": "uint256"
        }
      ],
      "stateMutability": "view",
      "type": "function"
    },
    {
      "inputs": [
        {
          "internalType": "uint256",
          "name": "offset",
          "type": "uint256"
        },
        {
          "internalType": "uint256",
          "name": "limit",
          "type": "uint256"
        }
      ],
      "name": "listBounties",
      "outputs": [
        {
          "internalType": "uint256[]",
          "name": "",
          "type": "uint256[]"
        }
      ],
      "stateMutability": "view",
      "type": "function"
    },
    {
      "inputs": [],
      "name": "owner",
      "outputs": [
        {
          "internalType": "address",
          "name": "",
          "type": "address"
        }
      ],
      "stateMutability": "view",
      "type": "function"
    },
    {
      "inputs": [],
      "name": "renounceOwnership",
      "outputs": [],
      "stateMutability": "nonpayable",
      "type": "function"
    },
    {
      "inputs": [
        {
          "internalType": "address",
          "name": "",
          "type": "address"
        },
        {
          "internalType": "uint256",
          "name": "",
          "type": "uint256"
        }
      ],
      "name": "requesterBounties",
      "outputs": [
        {
          "internalType": "uint256",
          "name": "",
          "type": "uint256"
        }
      ],
      "stateMutability": "view",
      "type": "function"
    },
    {
      "inputs": [
        {
          "internalType": "uint256",
          "name": "bountyId",
          "type": "uint256"
        },
        {
          "internalType": "string",
          "name": "submissionUrl",
          "type": "string"
        }
      ],
      "name": "submitBounty",
      "outputs": [],
      "stateMutability": "nonpayable",
      "type": "function"
    },
    {
      "inputs": [
        {
          "internalType": "bytes32",
          "name": "",
          "type": "bytes32"
        }
      ],
      "name": "taskHashToBountyId",
      "outputs": [
        {
          "internalType": "uint256",
          "name": "",
          "type": "uint256"
        }
      ],
      "stateMutability": "view",
      "type": "function"
    },
    {
      "inputs": [
        {
          "internalType": "address",
          "name": "newOwner",
          "type": "address"
        }
      ],
      "name": "transferOwnership",
      "outputs": [],
      "stateMutability": "nonpayable",
      "type": "function"
    },
    {
      "inputs": [
        {
          "internalType": "address",
          "name": "",
          "type": "address"
        },
        {
          "internalType": "uint256",
          "name": "",
          "type": "uint256"
        }
      ],
      "name": "workerBounties",
      "outputs": [
        {
          "internalType": "uint256",
          "name": "",
          "type": "uint256"
        }
      ],
      "stateMutability": "view",
      "type": "function"
    }
  ],
  "bytecode": "0x60808060405234610084576001600055331561006e5760018054336001600160a01b03198216811790925560405191906001600160a01b03167f8be0079c531659141344cd1fd0a4f28419497f9722a3daafe3b4186f6b6457e0600080a36001600255612741908161008a8239f35b631e4fbdf760e01b815260006004820152602490fd5b600080fdfe6080604052600436101561001257600080fd5b60003560e01c80632ce31bcc14611ba9578063332710d414611ab457806335491a4714611a885780633edc8d9914611a1057806344021ad7146117d2578063493b242b1461174e5780634a0bccd4146115d45780634f5952441461158a578063715018a61461152d5780637577132a146114d55780638da5cb5b146114ac5780638e438b7514611303578063a4c0b37d146112d1578063aebaf85514610bc7578063b2b5df68146108bd578063c63c4cdd146107d6578063dc2f8744146106a5578063e5e5dff11461041e578063ee8c4bbf146101865763f2fde38b146100f857600080fd5b3461018157602036600319011261018157610111612299565b610119612420565b6001600160a01b0390811690811561016857600154826001600160601b0360a01b821617600155167f8be0079c531659141344cd1fd0a4f28419497f9722a3daafe3b4186f6b6457e0600080a3005b604051631e4fbdf760e01b815260006004820152602490fd5b600080fd5b346101815760203660031901126101815760043560006101c06040516101ab816121a4565b82815260606020820152606060408201528260608201528260808201528260a08201528260c08201528260e0820152826101008201528261012082015282610140820152826101608201526060610180820152826101a08201520152806000526003602052610220604060002054151561261f565b600052600360205260406000206040519061023a826121a4565b8054825261024a6001820161232d565b602083015261025b6002820161232d565b60408301526003810154606083015260048101546001600160a01b0390811660808401526005820154811660a08085019190915260068084015460c0860152600784015492831660e08601529192919083901c60ff1610156104085760ff600d9260a01c1661010084015260088101546101208401526009810154610140840152600a8101546101608401526102f3600b820161232d565b610180840152600c8101546101a084015201546101c0820152604051809160208252805160208301526101c06103f161035661034060208501516101e060408801526102008701906123d3565b6040850151868203601f190160608801526123d3565b6060840151608086015260018060a01b0360808501511660a086015260018060a01b0360a08501511660c086015260c084015160e086015260018060a01b0360e0850151166101008601526103b5610100850151610120870190612413565b610120840151610140860152610140840151610160860152610160840151610180860152610180840151601f19868303016101a08701526123d3565b916101a08101518285015201516101e08301520390f35b634e487b7160e01b600052602160045260246000fd5b34610181576020806003193601126101815760043561043b6125a0565b806000526003825260406000206104548154151561261f565b6007810180549160ff8360a01c1660068110156104085761066057600481019160018060a01b0393848454169182330361061b5760ff60a01b198216600560a01b17905586919085168061053357505050600080808093600687875416910154905af16104bf61265e565b50156104fa57907fb9670bf4f2273686f771c9ab65309436df5ed75afa63eefec8b67640d8bcf72c915b541692604051428152a36001600055005b60405162461bcd60e51b8152600481018590526011602482015270115512081c99599d5b990819985a5b1959607a1b6044820152606490fd5b6006939093015460405163a9059cbb60e01b81526001600160a01b03929092166004830152602482015291829060449082906000905af190811561060f576000916105e2575b50156105a757907fb9670bf4f2273686f771c9ab65309436df5ed75afa63eefec8b67640d8bcf72c916104e9565b60405162461bcd60e51b8152600481018590526013602482015272151bdad95b881c99599d5b990819985a5b1959606a1b6044820152606490fd5b6106029150853d8711610608575b6105fa81836121db565b8101906125c3565b85610579565b503d6105f0565b6040513d6000823e3d90fd5b60405162461bcd60e51b815260048101899052601960248201527f4f6e6c79207265717565737465722063616e2063616e63656c000000000000006044820152606490fd5b60405162461bcd60e51b815260048101869052601b60248201527f43616e206f6e6c792063616e63656c206f70656e20626f756e747900000000006044820152606490fd5b3461018157602036600319011261018157600435600052600360205260406000208054600182016106d59061232d565b916106e26002820161232d565b6003820154600483015460058401546006850154600786015460088701546009880154600a8901546001600160a01b03968716979690959194929392911661072c600b8b0161232d565b97600c8b01549a600d0154996040519d8e9d8e528d6101e09081602082015201610755916123d3565b8d810360408f0152610766916123d3565b9760608d015260808c015260a08b015260c08a0152600160a01b60019003811660e08a015261010089019060a01c60ff16906107a191612413565b6101208801526101408701526101608601528481036101808601526107c5916123d3565b916101a08401526101c08301520390f35b34610181576107e4366122af565b600254908183101561088257828203918211610865576000198201918211610865578082101561087b57505b610819816126a5565b9160005b8281106108365760405180610832868261225e565b0390f35b808201908183116108655760018201809211610865576108609161085a82876126d7565b52612533565b61081d565b634e487b7160e01b600052601160045260246000fd5b9050610810565b60405162461bcd60e51b81526020600482015260136024820152724f6666736574206f7574206f662072616e676560681b6044820152606490fd5b34610181576040366003190112610181576001600160401b0360043560248035838111610181576108f2903690600401612217565b906108fb6125a0565b82600052602090600382526040600020946109188654151561261f565b600786019586549660ff8860a01c16976006891015610bb2576001809903610b785760058301546001600160a01b03163303610b3b57865115610af75760ff60a01b1916600160a11b17905542600a8201558451600b919091019290918211610ae3575061098682546122f3565b601f8111610a9a575b5082601f8211600114610a0e5791816109f594927f15feca2794848feb9e2ebb4a4a286dddbf20f7a2c1508e117799dab6e7ff89569694600091610a03575b50600019600383901b1c191690881b1790555b6040519283926040845260408401906123d3565b9042908301520390a2600055005b9050840151896109ce565b908691601f1982169084600052856000209160005b818110610a8357509183917f15feca2794848feb9e2ebb4a4a286dddbf20f7a2c1508e117799dab6e7ff89569896946109f598969410610a6a575b5050811b0190556109e1565b86015160001960f88460031b161c191690558980610a5e565b8883015184558a9590930192918701918701610a23565b8260005283600020601f830160051c810191858410610ad9575b601f0160051c019087905b828110610acd57505061098f565b60008155018790610abf565b9091508190610ab4565b634e487b7160e01b60009081526041600452fd5b60405162461bcd60e51b8152600481018790526017818701527f5375626d697373696f6e2055524c2072657175697265640000000000000000006044820152606490fd5b60405162461bcd60e51b8152600481018790526016818701527513db9b1e481ddbdc9ad95c8818d85b881cdd589b5a5d60521b6044820152606490fd5b60405162461bcd60e51b81526004810187905260138187015272109bdd5b9d1e481b9bdd081858d8d95c1d1959606a1b6044820152606490fd5b84634e487b7160e01b60005260216004526000fd5b346101815760a0366003190112610181576004356001600160401b03811161018157610bf7903690600401612217565b6024356001600160401b03811161018157610c16903690600401612217565b6064356001600160a01b038116810361018157610c316125a0565b610c3d8251151561244c565b6001600160a01b0381161561129457610c59608435151561248f565b6044356000526004602052610c73604060002054156124db565b6040516323b872dd60e01b8152336004820152306024820152608435604482015260208160648160006001600160a01b0387165af1801561060f57610cc091600091611275575b506125db565b60025491610ccd83612533565b600255604051610cdc816121a4565b8381528460208201528160408201526044356060820152336080820152600060a082015260843560c082015260018060a01b03831660e082015260006101008201524261012082015260006101408201526000610160820152604051610d41816121c0565b6000815261018082015260006101a082015260006101c08201528360005260036020526040600020908051825560208101518051906001600160401b0382116110bf578190610d9360018601546122f3565b601f8111611222575b50602090601f83116001146111b0576000926111a5575b50508160011b916000199060031b1c19161760018301555b60408101518051906001600160401b0382116110bf578190610df060028601546122f3565b601f8111611152575b50602090601f83116001146110e0576000926110d5575b50508160011b916000199060031b1c19161760028301555b606081015160038301556004820160018060a01b03608083015116906001600160601b0360a01b91828254161790556005830160018060a01b0360a0840151168282541617905560c08201516006840155600783019060018060a01b0360e08401511690825416178155610100820151600681101561040857610eaa91612542565b61012081015160088301556101408101516009830155610160810151600a8301556101808101518051906001600160401b0382116110bf57610eef600b8501546122f3565b601f8111611078575b509160209793918795938990601f8311600114610fe6576000805160206126ec83398151915296959383610fa79694600d946101c094600092610fdb575b50508160011b916000199060031b1c191617600b8501555b6101a0810151600c850155015191015560443560005260048852846040600020553360005260058852610f85856040600020612566565b610f9a6040519360a0855260a08501906123d3565b90838203898501526123d3565b604435604083015260843560608301526001600160a01b039094166080820152339381900390a36001600055604051908152f35b015190508e80610f36565b600b8594939298979695016000528a6000209060005b601f198416811061105e5750926001836101c0936000805160206126ec8339815191529a9b610fa7999897600d97601f19811610611045575b505050811b01600b850155610f4e565b015160001960f88460031b161c191690558e8080611035565b818a01518355988c01988b98506001909201918c01610ffc565b600b85016000526020600020601f840160051c8101602085106110b8575b601f830160051c820181106110ac575050610ef8565b60008155600101611096565b5080611096565b634e487b7160e01b600052604160045260246000fd5b015190508880610e10565b9250600285016000526020600020906000935b601f1984168510611137576001945083601f1981161061111e575b505050811b016002830155610e28565b015160001960f88460031b161c1916905588808061110e565b818101518355602094850194600190930192909101906110f3565b909150600285016000526020600020601f840160051c81016020851061119e575b90849392915b601f830160051c8201811061118f575050610df9565b60008155859450600101611179565b5080611173565b015190508880610db3565b9250600185016000526020600020906000935b601f1984168510611207576001945083601f198116106111ee575b505050811b016001830155610dcb565b015160001960f88460031b161c191690558880806111de565b818101518355602094850194600190930192909101906111c3565b909150600185016000526020600020601f840160051c81016020851061126e575b90849392915b601f830160051c8201811061125f575050610d9c565b60008155859450600101611249565b5080611243565b61128e915060203d602011610608576105fa81836121db565b85610cba565b60405162461bcd60e51b8152602060048201526015602482015274496e76616c696420746f6b656e206164647265737360581b6044820152606490fd5b346101815760203660031901126101815760043560005260046020526040806000205481519080151582526020820152f35b34610181576040366003190112610181576001600160a01b036024358181169060043590829003610181576113366125a0565b8060005260206003815260406000206113518154151561261f565b6007810180549560ff8760a01c166006811015610408576114755760048301541633036114305784156113f2577f4aa9d087bda72ed5e9f18284fbda4e853a8b279176f1805c7155872fbc1258e693949560058301876001600160601b0360a01b825416179055600160a01b9060ff60a01b191617905560094291015583600052600681526113e4836040600020612566565b604051428152a36001600055005b60405162461bcd60e51b8152600481018490526016602482015275496e76616c696420776f726b6572206164647265737360501b6044820152606490fd5b60405162461bcd60e51b815260048101849052601960248201527f4f6e6c79207265717565737465722063616e20616363657074000000000000006044820152606490fd5b60405162461bcd60e51b815260048101859052600f60248201526e2137bab73a3c903737ba1037b832b760891b6044820152606490fd5b34610181576000366003190112610181576001546040516001600160a01b039091168152602090f35b34610181576040366003190112610181576114ee612299565b6001600160a01b03166000908152600660205260409020805460243591908210156101815760209161151f916122c5565b90546040519160031b1c8152f35b3461018157600036600319011261018157611546612420565b600180546001600160a01b031981169091556000906001600160a01b03167f8be0079c531659141344cd1fd0a4f28419497f9722a3daafe3b4186f6b6457e08280a3005b34610181576040366003190112610181576115a3612299565b6001600160a01b03166000908152600560205260409020805460243591908210156101815760209161151f916122c5565b34610181576115e2366122af565b6115ea6125a0565b81600052600360205260406000206116048154151561261f565b600781019182549260ff8460a01c166006811015610408576002036117125760048301546001600160a01b031633036116cd5781156116885760ff60a01b19909316600360a01b17909255600c018190556040519081527f9e8a889cc03f3e5f61b036354851885a53cf3edb3980aa392b7770314067bed890602090a26001600055005b60405162461bcd60e51b815260206004820152601b60248201527f496e76616c696420636f6e6669726d65642074696d657374616d7000000000006044820152606490fd5b60405162461bcd60e51b815260206004820152601a60248201527f4f6e6c79207265717565737465722063616e20636f6e6669726d0000000000006044820152606490fd5b60405162461bcd60e51b8152602060048201526014602482015273109bdd5b9d1e481b9bdd081cdd589b5a5d1d195960621b6044820152606490fd5b3461018157602080600319360112610181576001600160a01b03611770612299565b1660005260058152604060002090604051908181845491828152019360005281600020916000905b8282106117bb57610832856117af818903826121db565b6040519182918261225e565b835486529485019460019384019390910190611798565b3461018157602080600319360112610181576004356117ef6125a0565b80600052600382526040600020916118098354151561261f565b6007830180549060ff8260a01c166006811015610408576003036119d457600585019060018060a01b039283835416918233036119975760ff60a01b198216600160a21b17905542600d8801558316806118fa57505060008080808585541660068a0154905af161187861265e565b50156118bf579160066040927f2eefa727cced3362efe12827696bbd9df4926abce3c569ddaf6b9634ae1af147945b54169501549082519182524290820152a36001600055005b60405162461bcd60e51b8152600481018490526013602482015272115512081d1c985b9cd9995c8819985a5b1959606a1b6044820152606490fd5b600687015460405163a9059cbb60e01b81526001600160a01b0393909316600484015260248301529193909290918290849060449082906000905af190811561060f577f2eefa727cced3362efe12827696bbd9df4926abce3c569ddaf6b9634ae1af1479461197560069360409660009161197a57506125db565b6118a7565b6119919150863d8811610608576105fa81836121db565b8a610cba565b60405162461bcd60e51b81526004810187905260156024820152744f6e6c7920776f726b65722063616e20636c61696d60581b6044820152606490fd5b60405162461bcd60e51b8152600481018490526014602482015273109bdd5b9d1e481b9bdd0818dbdb999a5c9b595960621b6044820152606490fd5b3461018157602080600319360112610181576001600160a01b03611a32612299565b1660005260068152604060002090604051908181845491828152019360005281600020916000905b828210611a7157610832856117af818903826121db565b835486529485019460019384019390910190611a5a565b346101815760203660031901126101815760043560005260046020526020604060002054604051908152f35b3461018157602080600319360112610181576004359060069081831015806101815760025491600060015b848110611b5a5750611af0906126a5565b9360009160015b858110611b0c5760405180610832898261225e565b8085916000526003835260ff60076040600020015460a01c169161040857838210156104085788611b419214611b4657612533565b611af7565b8061085a611b5387612533565b968a6126d7565b80600052600383528360ff60076040600020015460a01c16906104085786811015610408578714611b94575b611b8f90612533565b611adf565b90611ba1611b8f91612533565b919050611b86565b6060366003190112610181576004356001600160401b03811161018157611bd4903690600401612217565b6024356001600160401b03811161018157611bf3903690600401612217565b90611bfc6125a0565b611c088251151561244c565b611c1334151561248f565b6044356000526004602052611c2d604060002054156124db565b60025490611c3a82612533565b600255604051611c49816121a4565b8281528160208201528360408201526044356060820152336080820152600060a08201523460c0820152600060e082015260006101008201524261012082015260006101408201526000610160820152604051611ca5816121c0565b6000815261018082015260006101a082015260006101c08201528260005260036020526040600020908051825560208101518051906001600160401b0382116110bf578190611cf760018601546122f3565b601f8111612151575b50602090601f83116001146120df576000926120d4575b50508160011b916000199060031b1c19161760018301555b60408101518051906001600160401b0382116110bf578190611d5460028601546122f3565b601f8111612081575b50602090601f831160011461200f57600092612004575b50508160011b916000199060031b1c19161760028301555b606081015160038301556004820160018060a01b039081608084015116906001600160601b0360a01b9182825416179055600584018260a0850151168282541617905560c08301516006850155600784019160e08401511690825416178155610100820151600681101561040857611e0391612542565b61012081015160088301556101408101516009830155610160810151600a8301556101808101518051906001600160401b0382116110bf57611e48600b8501546122f3565b601f8111611fbd575b5091859391602097938890601f8311600114611f32576000805160206126ec833981519152959383611efe9694600d946101c094600092611f27575b50508160011b916000199060031b1c191617600b8501555b6101a0810151600c850155015191015560443560005260048752836040600020553360005260058752611edc846040600020612566565b611ef16040519560a0875260a08701906123d3565b90858203888701526123d3565b926044356040820152346060820152600060808201528033940390a36001600055604051908152f35b015190508d80611e8d565b90600b8501600052896000209160005b601f1985168110611fa3575093600184600d946101c0946000805160206126ec8339815191529a98611efe9a98601f19811610611f8a575b505050811b01600b850155611ea5565b015160001960f88460031b161c191690558d8080611f7a565b8183015184558a9850600190930192918b01918b01611f42565b600b85016000526020600020601f840160051c810160208510611ffd575b601f830160051c82018110611ff1575050611e51565b60008155600101611fdb565b5080611fdb565b015190508780611d74565b9250600285016000526020600020906000935b601f1984168510612066576001945083601f1981161061204d575b505050811b016002830155611d8c565b015160001960f88460031b161c1916905587808061203d565b81810151835560209485019460019093019290910190612022565b909150600285016000526020600020601f840160051c8101602085106120cd575b90849392915b601f830160051c820181106120be575050611d5d565b600081558594506001016120a8565b50806120a2565b015190508780611d17565b9250600185016000526020600020906000935b601f1984168510612136576001945083601f1981161061211d575b505050811b016001830155611d2f565b015160001960f88460031b161c1916905587808061210d565b818101518355602094850194600190930192909101906120f2565b909150600185016000526020600020601f840160051c81016020851061219d575b90849392915b601f830160051c8201811061218e575050611d00565b60008155859450600101612178565b5080612172565b6101e081019081106001600160401b038211176110bf57604052565b602081019081106001600160401b038211176110bf57604052565b90601f801991011681019081106001600160401b038211176110bf57604052565b6001600160401b0381116110bf57601f01601f191660200190565b81601f820112156101815780359061222e826121fc565b9261223c60405194856121db565b8284526020838301011161018157816000926020809301838601378301015290565b6020908160408183019282815285518094520193019160005b828110612285575050505090565b835185529381019392810192600101612277565b600435906001600160a01b038216820361018157565b6040906003190112610181576004359060243590565b80548210156122dd5760005260206000200190600090565b634e487b7160e01b600052603260045260246000fd5b90600182811c92168015612323575b602083101461230d57565b634e487b7160e01b600052602260045260246000fd5b91607f1691612302565b9060405191826000825492612341846122f3565b9081845260019485811690816000146123b0575060011461236d575b505061236b925003836121db565b565b9093915060005260209081600020936000915b81831061239857505061236b9350820101388061235d565b85548884018501529485019487945091830191612380565b91505061236b94506020925060ff191682840152151560051b820101388061235d565b919082519283825260005b8481106123ff575050826000602080949584010152601f8019910116010190565b6020818301810151848301820152016123de565b9060068210156104085752565b6001546001600160a01b0316330361243457565b60405163118cdaa760e01b8152336004820152602490fd5b1561245357565b60405162461bcd60e51b815260206004820152601460248201527315185cdac8155493081a5cc81c995c5d5a5c995960621b6044820152606490fd5b1561249657565b60405162461bcd60e51b815260206004820152601d60248201527f416d6f756e74206d7573742062652067726561746572207468616e20300000006044820152606490fd5b156124e257565b60405162461bcd60e51b815260206004820152602360248201527f426f756e747920616c72656164792065786973747320666f722074686973207460448201526261736b60e81b6064820152608490fd5b60001981146108655760010190565b90600681101561040857815460ff60a01b191660a09190911b60ff60a01b16179055565b8054680100000000000000008110156110bf57612588916001820181556122c5565b819291549060031b91821b91600019901b1916179055565b6002600054146125b1576002600055565b604051633ee5aeb560e01b8152600490fd5b90816020910312610181575180151581036101815790565b156125e257565b60405162461bcd60e51b8152602060048201526015602482015274151bdad95b881d1c985b9cd9995c8819985a5b1959605a1b6044820152606490fd5b1561262657565b60405162461bcd60e51b815260206004820152601060248201526f109bdd5b9d1e481b9bdd08199bdd5b9960821b6044820152606490fd5b3d15612689573d9061266f826121fc565b9161267d60405193846121db565b82523d6000602084013e565b606090565b6001600160401b0381116110bf5760051b60200190565b906126af8261268e565b6126bc60405191826121db565b82815280926126cd601f199161268e565b0190602036910137565b80518210156122dd5760209160051b01019056fe71c5e0519e52622481c5df58f4268994a62e581f696bec236af06bd23fd82f3da2646970667358221220a125f97b93bf4d9610da358cf4543595b4bb2f7571b5029f4c7ee0fa4b4653fc64736f6c63430008140033",
  "linkReferences": {},
  "deployedLinkReferences": {}
}